{
  "transactions": [
    {
      "hash": "0x85376649e7e5436bed2207926c74c1fd7973a13a0620f16e31dba5f33780361f",
      "transactionType": "CALL",
      "contractName": null,
      "contractAddress": "0x64c03e378f29d7a39a9cf2c509c4332336e44d5b",
      "function": "authorizePolicy(address,bytes)",
      "arguments": [
        "0x7e5dF10ac18784255fCA481e6956367004Cb2205",
        "0x0000000000000000000000000000000000000000000000000de0b6b3a76400000000000000000000000000003c7deb6feaeb7a82bde580fb73d8d69c401b219e"
      ],
      "transaction": {
        "from": "0xefbbd14082cf2fbcf5badc7ee619f0f4e36d0a5b",
        "to": "0x64c03e378f29d7a39a9cf2c509c4332336e44d5b",
        "gas": "0x3e072",
        "value": "0x0",
        "input": "0x2f6cc1020000000000000000000000007e5df10ac18784255fca481e6956367004cb2205000000000000000000000000000000000000000000000000000000000000004000000000000000000000000000000000000000000000000000000000000000400000000000000000000000000000000000000000000000000de0b6b3a76400000000000000000000000000003c7deb6feaeb7a82bde580fb73d8d69c401b219e",
        "nonce": "0xae1",
        "chainId": "0x13882"
      },
      "additionalContracts": [],
      "isFixedGasLimit": false
    }
  ],
  "receipts": [
    {
      "status": "0x1",
      "cumulativeGasUsed": "0x9192b",
      "logs": [
        {
          "address": "0x64c03e378f29d7a39a9cf2c509c4332336e44d5b",
          "topics": [
            "0x5cb9da284fafde1dbc3bcca8044638033fca6bd849c17652ce352d90669f91b0",
            "0x0000000000000000000000007e5df10ac18784255fca481e6956367004cb2205",
            "0x000000000000000000000000efbbd14082cf2fbcf5badc7ee619f0f4e36d0a5b"
          ],
          "data": "0x000000000000000000000000000000000000000000000000000000000000002000000000000000000000000000000000000000000000000000000000000000400000000000000000000000000000000000000000000000000de0b6b3a76400000000000000000000000000003c7deb6feaeb7a82bde580fb73d8d69c401b219e",
          "blockHash": "0x13297d4e8924a980660fc18b206d3e7eea94543f732d7625089565d80e7e725c",
          "blockNumber": "0x10c884b",
          "transactionHash": "0x85376649e7e5436bed2207926c74c1fd7973a13a0620f16e31dba5f33780361f",
          "transactionIndex": "0x3",
          "logIndex": "0x9",
          "removed": false
        },
        {
          "address": "0x0000000000000000000000000000000000001010",
          "topics": [
            "0x4dfe1bbbcf077ddc3e01291eea2d5c70c2b422b415d95645b9adcfd678cb1d63",
            "0x0000000000000000000000000000000000000000000000000000000000001010",
            "0x000000000000000000000000efbbd14082cf2fbcf5badc7ee619f0f4e36d0a5b",
            "0x0000000000000000000000004631753190f2f5a15a7ba172bbac102b7d95fa22"
          ],
          "data": "0x00000000000000000000000000000000000000000000000001729a46c4643c0d000000000000000000000000000000000000000000000000eb0454f6375134b80000000000000000000000000000000000000000000004fa9deffb571bc31de5000000000000000000000000000000000000000000000000e991baaf72ecf8ab0000000000000000000000000000000000000000000004fa9f62959de02759f2",
          "blockHash": "0x13297d4e8924a980660fc18b206d3e7eea94543f732d7625089565d80e7e725c",
          "blockNumber": "0x10c884b",
          "transactionHash": "0x85376649e7e5436bed2207926c74c1fd7973a13a0620f16e31dba5f33780361f",
          "transactionIndex": "0x3",
          "logIndex": "0xa",
          "removed": false
        }
      ],
      "logsBloom": "0x00000000000000000000000000000000000000002000000400000000000000000000000000000020000000100000000000008000000000000002000040000000008000000000000000000000000000800000000000000000000100000000000000000000000000100000000000000000000000000000000080000000000000000800000008000000000000000000000000000000000000000000000000000000200000000000000000000000000000000002400000000000000000000000004000000000000000000005800000000000000000004000000000100000000000000000000000000000000000000000000000000000000000000000000000100000",
      "type": "0x2",
      "transactionHash": "0x85376649e7e5436bed2207926c74c1fd7973a13a0620f16e31dba5f33780361f",
      "transactionIndex": "0x3",
      "blockHash": "0x13297d4e8924a980660fc18b206d3e7eea94543f732d7625089565d80e7e725c",
      "blockNumber": "0x10c884b",
      "gasUsed": "0x2a699",
      "effectiveGasPrice": "0x8bcf2f8da4",
      "from": "0xefbbd14082cf2fbcf5badc7ee619f0f4e36d0a5b",
      "to": "0x64c03e378f29d7a39a9cf2c509c4332336e44d5b",
      "contractAddress": null
    }
  ],
  "libraries": [],
  "pending": [],
  "returns": {},
  "timestamp": 1738517127,
  "chain": 80002,
  "commit": "c5ea3b3"
}