{
  "transactions": [
    {
      "hash": "0xb52460da8e081e189cd02fe7073c82232fc4cdc9fc29046948db8020cc0a3742",
      "transactionType": "CALL",
      "contractName": null,
      "contractAddress": "0xffe1e57a2afe7a1aa41bb34629f76e8d0fae331f",
      "function": "authorizePolicy(address,bytes)",
      "arguments": [
        "0x8a2861520500B557Dbf14A9C4DaEcB4322736B65",
        "0x0000000000000000000000000000000000000000000000000de0b6b3a76400000000000000000000000000003c7deb6feaeb7a82bde580fb73d8d69c401b219e"
      ],
      "transaction": {
        "from": "0xefbbd14082cf2fbcf5badc7ee619f0f4e36d0a5b",
        "to": "0xffe1e57a2afe7a1aa41bb34629f76e8d0fae331f",
        "gas": "0x3902c",
        "value": "0x0",
        "input": "0x2f6cc1020000000000000000000000008a2861520500b557dbf14a9c4daecb4322736b65000000000000000000000000000000000000000000000000000000000000004000000000000000000000000000000000000000000000000000000000000000400000000000000000000000000000000000000000000000000de0b6b3a76400000000000000000000000000003c7deb6feaeb7a82bde580fb73d8d69c401b219e",
        "nonce": "0x9fa",
        "chainId": "0x13882"
      },
      "additionalContracts": [],
      "isFixedGasLimit": false
    }
  ],
  "receipts": [
    {
      "status": "0x1",
      "cumulativeGasUsed": "0x98510",
      "logs": [
        {
          "address": "0xffe1e57a2afe7a1aa41bb34629f76e8d0fae331f",
          "topics": [
            "0x6ba225fe6c79a8c5ddd429f9aa7654c4dbebe2cc98a02209616ac200ceba5c56",
            "0x0000000000000000000000008a2861520500b557dbf14a9c4daecb4322736b65",
            "0x000000000000000000000000efbbd14082cf2fbcf5badc7ee619f0f4e36d0a5b"
          ],
          "data": "0x00000000000000000000000000000000000000000000000000000000677ec9c9000000000000000000000000000000000000000000000000000000000000004000000000000000000000000000000000000000000000000000000000000000400000000000000000000000000000000000000000000000000de0b6b3a76400000000000000000000000000003c7deb6feaeb7a82bde580fb73d8d69c401b219e",
          "blockHash": "0xf0bbc3739e80963a4055fa07f93e44238e6bbb4b630204e67a3fa327383f5e9e",
          "blockNumber": "0xfd96d8",
          "transactionHash": "0xb52460da8e081e189cd02fe7073c82232fc4cdc9fc29046948db8020cc0a3742",
          "transactionIndex": "0x1",
          "logIndex": "0x1",
          "removed": false
        },
        {
          "address": "0x0000000000000000000000000000000000001010",
          "topics": [
            "0x4dfe1bbbcf077ddc3e01291eea2d5c70c2b422b415d95645b9adcfd678cb1d63",
            "0x0000000000000000000000000000000000000000000000000000000000001010",
            "0x000000000000000000000000efbbd14082cf2fbcf5badc7ee619f0f4e36d0a5b",
            "0x0000000000000000000000004ad84f7014b7b44f723f284a85b1662337971439"
          ],
          "data": "0x000000000000000000000000000000000000000000000000000f04065b601c000000000000000000000000000000000000000000000000012b854bb1e7c4b5750000000000000000000000000000000000000000000004bf1d016a4f468384060000000000000000000000000000000000000000000000012b7647ab8c6499750000000000000000000000000000000000000000000004bf1d106e55a1e3a006",
          "blockHash": "0xf0bbc3739e80963a4055fa07f93e44238e6bbb4b630204e67a3fa327383f5e9e",
          "blockNumber": "0xfd96d8",
          "transactionHash": "0xb52460da8e081e189cd02fe7073c82232fc4cdc9fc29046948db8020cc0a3742",
          "transactionIndex": "0x1",
          "logIndex": "0x2",
          "removed": false
        }
      ],
      "logsBloom": "0x00000000000000000000000000000000000000000000000400000000000000000000000000200000000000000000000000008000000000000000000000400000008040000000000000000000000000800000000000000000000100001000000000000000000000200000000000000000000000000000000080000000000000000900000000000000000100000000000000000000000000000000000000008000200000000000000000000000000000000000400000000000000000000000044000000000000000000001000000000000000000000000000000100000000000000000000020000000000000000000008000000000000000000000000000100000",
      "type": "0x2",
      "transactionHash": "0xb52460da8e081e189cd02fe7073c82232fc4cdc9fc29046948db8020cc0a3742",
      "transactionIndex": "0x1",
      "blockHash": "0xf0bbc3739e80963a4055fa07f93e44238e6bbb4b630204e67a3fa327383f5e9e",
      "blockNumber": "0xfd96d8",
      "gasUsed": "0x29466",
      "effectiveGasPrice": "0x5d21dba0f",
      "from": "0xefbbd14082cf2fbcf5badc7ee619f0f4e36d0a5b",
      "to": "0xffe1e57a2afe7a1aa41bb34629f76e8d0fae331f",
      "contractAddress": null
    }
  ],
  "libraries": [],
  "pending": [],
  "returns": {},
  "timestamp": 1736362442,
  "chain": 80002,
  "commit": "aec1c85"
}