{
  "transactions": [
    {
      "hash": "0xc3d19b371f4dd799be22306dc1bd106b4cb929aa9bafd5a504c9075a3cf3a859",
      "transactionType": "CALL",
      "contractName": null,
      "contractAddress": "0x64c03e378f29d7a39a9cf2c509c4332336e44d5b",
      "function": "authorizePolicy(address,bytes)",
      "arguments": [
        "0x7488aaF40FC234C91407B219CFC47aB22300505c",
        "0x0000000000000000000000000000000000000000000000000de0b6b3a76400000000000000000000000000003c7deb6feaeb7a82bde580fb73d8d69c401b219e"
      ],
      "transaction": {
        "from": "0xefbbd14082cf2fbcf5badc7ee619f0f4e36d0a5b",
        "to": "0x64c03e378f29d7a39a9cf2c509c4332336e44d5b",
        "gas": "0x3eb3e",
        "value": "0x0",
        "input": "0x2f6cc1020000000000000000000000007488aaf40fc234c91407b219cfc47ab22300505c000000000000000000000000000000000000000000000000000000000000004000000000000000000000000000000000000000000000000000000000000000400000000000000000000000000000000000000000000000000de0b6b3a76400000000000000000000000000003c7deb6feaeb7a82bde580fb73d8d69c401b219e",
        "nonce": "0xa47",
        "chainId": "0x13882"
      },
      "additionalContracts": [],
      "isFixedGasLimit": false
    }
  ],
  "receipts": [
    {
      "status": "0x1",
      "cumulativeGasUsed": "0x2d655",
      "logs": [
        {
          "address": "0x64c03e378f29d7a39a9cf2c509c4332336e44d5b",
          "topics": [
            "0x5cb9da284fafde1dbc3bcca8044638033fca6bd849c17652ce352d90669f91b0",
            "0x0000000000000000000000007488aaf40fc234c91407b219cfc47ab22300505c",
            "0x000000000000000000000000efbbd14082cf2fbcf5badc7ee619f0f4e36d0a5b"
          ],
          "data": "0x000000000000000000000000000000000000000000000000000000000000002000000000000000000000000000000000000000000000000000000000000000400000000000000000000000000000000000000000000000000de0b6b3a76400000000000000000000000000003c7deb6feaeb7a82bde580fb73d8d69c401b219e",
          "blockHash": "0x0860bebfe749cba1da259ae6e6a6992ccfcdb67bd26d9dae53d8366370eeb45d",
          "blockNumber": "0xfe1690",
          "transactionHash": "0xc3d19b371f4dd799be22306dc1bd106b4cb929aa9bafd5a504c9075a3cf3a859",
          "transactionIndex": "0x0",
          "logIndex": "0x0",
          "removed": false
        },
        {
          "address": "0x0000000000000000000000000000000000001010",
          "topics": [
            "0x4dfe1bbbcf077ddc3e01291eea2d5c70c2b422b415d95645b9adcfd678cb1d63",
            "0x0000000000000000000000000000000000000000000000000000000000001010",
            "0x000000000000000000000000efbbd14082cf2fbcf5badc7ee619f0f4e36d0a5b",
            "0x0000000000000000000000004ad84f7014b7b44f723f284a85b1662337971439"
          ],
          "data": "0x0000000000000000000000000000000000000000000000000024552df2d04f05000000000000000000000000000000000000000000000001112e48577e68b62c0000000000000000000000000000000000000000000004c154732b55a3b4d7830000000000000000000000000000000000000000000000011109f3298b9867270000000000000000000000000000000000000000000004c15497808396852688",
          "blockHash": "0x0860bebfe749cba1da259ae6e6a6992ccfcdb67bd26d9dae53d8366370eeb45d",
          "blockNumber": "0xfe1690",
          "transactionHash": "0xc3d19b371f4dd799be22306dc1bd106b4cb929aa9bafd5a504c9075a3cf3a859",
          "transactionIndex": "0x0",
          "logIndex": "0x1",
          "removed": false
        }
      ],
      "logsBloom": "0x00000000000000000000000000000000000000000000000400000000000000000000000000000020000000000000000000008000000000000002000000400000008000000000000001000000000000800000000000000000000100001000000000000000000000000000000000000000000000000000000080000000000000000800000008000000000000000000000000000000000000000000000000000000200000000000000000000002000000000002400000000000000000000000004000000000000000000001000000000400000000004000000000100000000000000000000000000000000000000000008000000000000000000000000000100000",
      "type": "0x2",
      "transactionHash": "0xc3d19b371f4dd799be22306dc1bd106b4cb929aa9bafd5a504c9075a3cf3a859",
      "transactionIndex": "0x0",
      "blockHash": "0x0860bebfe749cba1da259ae6e6a6992ccfcdb67bd26d9dae53d8366370eeb45d",
      "blockNumber": "0xfe1690",
      "gasUsed": "0x2d655",
      "effectiveGasPrice": "0xcce416600",
      "from": "0xefbbd14082cf2fbcf5badc7ee619f0f4e36d0a5b",
      "to": "0x64c03e378f29d7a39a9cf2c509c4332336e44d5b",
      "contractAddress": null
    }
  ],
  "libraries": [],
  "pending": [],
  "returns": {},
  "timestamp": 1736435178,
  "chain": 80002,
  "commit": "aec1c85"
}