{
  "transactions": [
    {
      "hash": "0x79f767886dd202b3f0e79276faaa164a2eef5660ea65d8604be1232218c03321",
      "transactionType": "CALL",
      "contractName": null,
      "contractAddress": "0x147d7c5b0157940d11a17a069b6e77d71c58fe61",
      "function": "authorizePolicy(address,bytes)",
      "arguments": [
        "0xC21478fA891f9766843A203c7c57C6D91A8B58d0",
        "0x0000000000000000000000000000000000000000000000000de0b6b3a76400000000000000000000000000003c7deb6feaeb7a82bde580fb73d8d69c401b219e"
      ],
      "transaction": {
        "from": "0xefbbd14082cf2fbcf5badc7ee619f0f4e36d0a5b",
        "to": "0x147d7c5b0157940d11a17a069b6e77d71c58fe61",
        "gas": "0x3e440",
        "value": "0x0",
        "input": "0x2f6cc102000000000000000000000000c21478fa891f9766843a203c7c57c6d91a8b58d0000000000000000000000000000000000000000000000000000000000000004000000000000000000000000000000000000000000000000000000000000000400000000000000000000000000000000000000000000000000de0b6b3a76400000000000000000000000000003c7deb6feaeb7a82bde580fb73d8d69c401b219e",
        "nonce": "0x90b",
        "chainId": "0x13882"
      },
      "additionalContracts": [],
      "isFixedGasLimit": false
    }
  ],
  "receipts": [
    {
      "status": "0x1",
      "cumulativeGasUsed": "0x2d145",
      "logs": [
        {
          "address": "0x147d7c5b0157940d11a17a069b6e77d71c58fe61",
          "topics": [
            "0x164745c0d5815644c1e92a17e242e89f9c0fd523fc3e94071b60f165692f3d79",
            "0x000000000000000000000000c21478fa891f9766843a203c7c57c6d91a8b58d0",
            "0x000000000000000000000000efbbd14082cf2fbcf5badc7ee619f0f4e36d0a5b"
          ],
          "data": "0x",
          "blockHash": "0x68f9b488dad6e39b399c7d2184205d35d6481869ddd9451e279b8ee4fb637748",
          "blockNumber": "0xf8b052",
          "transactionHash": "0x79f767886dd202b3f0e79276faaa164a2eef5660ea65d8604be1232218c03321",
          "transactionIndex": "0x0",
          "logIndex": "0x0",
          "removed": false
        },
        {
          "address": "0x0000000000000000000000000000000000001010",
          "topics": [
            "0x4dfe1bbbcf077ddc3e01291eea2d5c70c2b422b415d95645b9adcfd678cb1d63",
            "0x0000000000000000000000000000000000000000000000000000000000001010",
            "0x000000000000000000000000efbbd14082cf2fbcf5badc7ee619f0f4e36d0a5b",
            "0x0000000000000000000000006c095a53250dd250797ff915a716cca690ad8842"
          ],
          "data": "0x000000000000000000000000000000000000000000000000001066575add220000000000000000000000000000000000000000000000000159722bb05348de590000000000000000000000000000000000000000000000f37eb54d98fc51694c0000000000000000000000000000000000000000000000015961c558f86bbc590000000000000000000000000000000000000000000000f37ec5b3f0572e8b4c",
          "blockHash": "0x68f9b488dad6e39b399c7d2184205d35d6481869ddd9451e279b8ee4fb637748",
          "blockNumber": "0xf8b052",
          "transactionHash": "0x79f767886dd202b3f0e79276faaa164a2eef5660ea65d8604be1232218c03321",
          "transactionIndex": "0x0",
          "logIndex": "0x1",
          "removed": false
        }
      ],
      "logsBloom": "0x00000000000000000000000000000000000000000000000000000800000000000000000000000000000000000000000000008000000000000000000000000000008000000000000000000000000000800000000000000000000120000000000000100000000000000000000000000000000000000000040080000000000000000800000000000000400000000200000000000000000000000000002000000000200000000000000000008000000000000000400000000000000000000000004000000000000000000001000000000001000020000000000000100000000000000000000008000100000000000000000000000000000000000000000000100000",
      "type": "0x2",
      "transactionHash": "0x79f767886dd202b3f0e79276faaa164a2eef5660ea65d8604be1232218c03321",
      "transactionIndex": "0x0",
      "blockHash": "0x68f9b488dad6e39b399c7d2184205d35d6481869ddd9451e279b8ee4fb637748",
      "blockNumber": "0xf8b052",
      "gasUsed": "0x2d145",
      "effectiveGasPrice": "0x5d21dba0f",
      "from": "0xefbbd14082cf2fbcf5badc7ee619f0f4e36d0a5b",
      "to": "0x147d7c5b0157940d11a17a069b6e77d71c58fe61",
      "contractAddress": null
    }
  ],
  "libraries": [],
  "pending": [],
  "returns": {},
  "timestamp": 1735679881,
  "chain": 80002,
  "commit": "8a8a711"
}