{
  "transactions": [
    {
      "hash": "0xbe85132ae2ee5aa9c454f93d1a333c5c5c5942fbd03c178502ebf6da26d1c671",
      "transactionType": "CALL",
      "contractName": null,
      "contractAddress": "0x0b07690a09fc5377cefb990400c18122ec49b2e2",
      "function": "authorizePolicy(address,bytes)",
      "arguments": [
        "0xc0286e60B9f57F8DeF10612E477A565900eE4c65",
        "0x0000000000000000000000000000000000000000000000000de0b6b3a76400000000000000000000000000003c7deb6feaeb7a82bde580fb73d8d69c401b219e"
      ],
      "transaction": {
        "from": "0xefbbd14082cf2fbcf5badc7ee619f0f4e36d0a5b",
        "to": "0x0b07690a09fc5377cefb990400c18122ec49b2e2",
        "gas": "0x3bd44",
        "value": "0x0",
        "input": "0x2f6cc102000000000000000000000000c0286e60b9f57f8def10612e477a565900ee4c65000000000000000000000000000000000000000000000000000000000000004000000000000000000000000000000000000000000000000000000000000000400000000000000000000000000000000000000000000000000de0b6b3a76400000000000000000000000000003c7deb6feaeb7a82bde580fb73d8d69c401b219e",
        "nonce": "0x888",
        "chainId": "0x13882"
      },
      "additionalContracts": [],
      "isFixedGasLimit": false
    }
  ],
  "receipts": [
    {
      "status": "0x1",
      "cumulativeGasUsed": "0x58754",
      "logs": [
        {
          "address": "0x0b07690a09fc5377cefb990400c18122ec49b2e2",
          "topics": [
            "0x164745c0d5815644c1e92a17e242e89f9c0fd523fc3e94071b60f165692f3d79",
            "0x000000000000000000000000c0286e60b9f57f8def10612e477a565900ee4c65",
            "0x000000000000000000000000efbbd14082cf2fbcf5badc7ee619f0f4e36d0a5b"
          ],
          "data": "0x",
          "blockHash": "0xbbdeee846b525c7a1b42653483e64fa061d955487873c38b9071122aa8538d61",
          "blockNumber": "0xf62615",
          "transactionHash": "0xbe85132ae2ee5aa9c454f93d1a333c5c5c5942fbd03c178502ebf6da26d1c671",
          "transactionIndex": "0x3",
          "logIndex": "0x7",
          "removed": false
        },
        {
          "address": "0x0000000000000000000000000000000000001010",
          "topics": [
            "0x4dfe1bbbcf077ddc3e01291eea2d5c70c2b422b415d95645b9adcfd678cb1d63",
            "0x0000000000000000000000000000000000000000000000000000000000001010",
            "0x000000000000000000000000efbbd14082cf2fbcf5badc7ee619f0f4e36d0a5b",
            "0x000000000000000000000000915a2284d28bd93de7d6f31173b981204bb666e6"
          ],
          "data": "0x0000000000000000000000000000000000000000000000000012f0268c5af53b0000000000000000000000000000000000000000000000013b5d7aa91f54d7e8000000000000000000000000000000000000000000000579638c1ef62287ba790000000000000000000000000000000000000000000000013b4a8a8292f9e2ad000000000000000000000000000000000000000000000579639f0f1caee2afb4",
          "blockHash": "0xbbdeee846b525c7a1b42653483e64fa061d955487873c38b9071122aa8538d61",
          "blockNumber": "0xf62615",
          "transactionHash": "0xbe85132ae2ee5aa9c454f93d1a333c5c5c5942fbd03c178502ebf6da26d1c671",
          "transactionIndex": "0x3",
          "logIndex": "0x8",
          "removed": false
        }
      ],
      "logsBloom": "0x0000000000000000001000000000000000000000000000000000000000000000000000000000000000000000000000000000a000000000000000000000000000008000000000000000000000000000800000000000000000000100000000000000000000000000000000000000000200000000000000000080000000004000000800000000000000000000000200000000000000000000000000000200000000200000000000000000000000000000000000400000000000200000000000004000000000000000000001000000000000000002000000000000100000000000000000000008000100000000000000000000000000400000000000000000100000",
      "type": "0x2",
      "transactionHash": "0xbe85132ae2ee5aa9c454f93d1a333c5c5c5942fbd03c178502ebf6da26d1c671",
      "transactionIndex": "0x3",
      "blockHash": "0xbbdeee846b525c7a1b42653483e64fa061d955487873c38b9071122aa8538d61",
      "blockNumber": "0xf62615",
      "gasUsed": "0x28e8b",
      "effectiveGasPrice": "0x7682c3a20",
      "from": "0xefbbd14082cf2fbcf5badc7ee619f0f4e36d0a5b",
      "to": "0x0b07690a09fc5377cefb990400c18122ec49b2e2",
      "contractAddress": null
    }
  ],
  "libraries": [],
  "pending": [],
  "returns": {},
  "timestamp": 1735326106,
  "chain": 80002,
  "commit": "4cb734c"
}