{
  "transactions": [
    {
      "hash": "0x1eea019f25f855b9e27517d0f83aab79bcea107ab591ee3f1da8195be42a76fd",
      "transactionType": "CALL",
      "contractName": null,
      "contractAddress": "0xffe1e57a2afe7a1aa41bb34629f76e8d0fae331f",
      "function": "authorizePolicy(address,bytes)",
      "arguments": [
        "0x11fF69aaB5b9e7457Ebb5293558Ead5b876Fc7A5",
        "0x0000000000000000000000000000000000000000000000000de0b6b3a76400000000000000000000000000003c7deb6feaeb7a82bde580fb73d8d69c401b219e"
      ],
      "transaction": {
        "from": "0xefbbd14082cf2fbcf5badc7ee619f0f4e36d0a5b",
        "to": "0xffe1e57a2afe7a1aa41bb34629f76e8d0fae331f",
        "gas": "0x3c5e6",
        "value": "0x0",
        "input": "0x2f6cc10200000000000000000000000011ff69aab5b9e7457ebb5293558ead5b876fc7a5000000000000000000000000000000000000000000000000000000000000004000000000000000000000000000000000000000000000000000000000000000400000000000000000000000000000000000000000000000000de0b6b3a76400000000000000000000000000003c7deb6feaeb7a82bde580fb73d8d69c401b219e",
        "nonce": "0xa09",
        "chainId": "0x13882"
      },
      "additionalContracts": [],
      "isFixedGasLimit": false
    }
  ],
  "receipts": [
    {
      "status": "0x1",
      "cumulativeGasUsed": "0x29472",
      "logs": [
        {
          "address": "0xffe1e57a2afe7a1aa41bb34629f76e8d0fae331f",
          "topics": [
            "0x6ba225fe6c79a8c5ddd429f9aa7654c4dbebe2cc98a02209616ac200ceba5c56",
            "0x00000000000000000000000011ff69aab5b9e7457ebb5293558ead5b876fc7a5",
            "0x000000000000000000000000efbbd14082cf2fbcf5badc7ee619f0f4e36d0a5b"
          ],
          "data": "0x00000000000000000000000000000000000000000000000000000000677ef5b1000000000000000000000000000000000000000000000000000000000000004000000000000000000000000000000000000000000000000000000000000000400000000000000000000000000000000000000000000000000de0b6b3a76400000000000000000000000000003c7deb6feaeb7a82bde580fb73d8d69c401b219e",
          "blockHash": "0x9e536a287a55a686368070936509be58e115f9316f42c6bbfd276f7b74bf1a4d",
          "blockNumber": "0xfdab7f",
          "transactionHash": "0x1eea019f25f855b9e27517d0f83aab79bcea107ab591ee3f1da8195be42a76fd",
          "transactionIndex": "0x0",
          "logIndex": "0x0",
          "removed": false
        },
        {
          "address": "0x0000000000000000000000000000000000001010",
          "topics": [
            "0x4dfe1bbbcf077ddc3e01291eea2d5c70c2b422b415d95645b9adcfd678cb1d63",
            "0x0000000000000000000000000000000000000000000000000000000000001010",
            "0x000000000000000000000000efbbd14082cf2fbcf5badc7ee619f0f4e36d0a5b",
            "0x0000000000000000000000004631753190f2f5a15a7ba172bbac102b7d95fa22"
          ],
          "data": "0x0000000000000000000000000000000000000000000000000015060449b9a95200000000000000000000000000000000000000000000000127cb88cd8dcbe79f0000000000000000000000000000000000000000000003fcec7071cc2c2dab6b00000000000000000000000000000000000000000000000127b682c944123e4d0000000000000000000000000000000000000000000003fcec8577d075e754bd",
          "blockHash": "0x9e536a287a55a686368070936509be58e115f9316f42c6bbfd276f7b74bf1a4d",
          "blockNumber": "0xfdab7f",
          "transactionHash": "0x1eea019f25f855b9e27517d0f83aab79bcea107ab591ee3f1da8195be42a76fd",
          "transactionIndex": "0x0",
          "logIndex": "0x1",
          "removed": false
        }
      ],
      "logsBloom": "0x00000000000000000000000000000000000000002000000400080000000000000000000000200000040000000000000000008000000000000000000040000000008040000000000000000000000000800000000000000000000100000000000000000000000000300000000000000000000000000000000080000000000000000900000000000000000100000000000000000000000000000000000000000000200000000000000000000000000000000000400000000000000000000000004000000000000000000001000000000000000000000000000000100000000000000000000000000000000000000000000000000000040000000000000000100000",
      "type": "0x2",
      "transactionHash": "0x1eea019f25f855b9e27517d0f83aab79bcea107ab591ee3f1da8195be42a76fd",
      "transactionIndex": "0x0",
      "blockHash": "0x9e536a287a55a686368070936509be58e115f9316f42c6bbfd276f7b74bf1a4d",
      "blockNumber": "0xfdab7f",
      "gasUsed": "0x29472",
      "effectiveGasPrice": "0x826299e00",
      "from": "0xefbbd14082cf2fbcf5badc7ee619f0f4e36d0a5b",
      "to": "0xffe1e57a2afe7a1aa41bb34629f76e8d0fae331f",
      "contractAddress": null
    }
  ],
  "libraries": [],
  "pending": [],
  "returns": {},
  "timestamp": 1736373681,
  "chain": 80002,
  "commit": "aec1c85"
}