{
  "transactions": [
    {
      "hash": "0x23b50947ec443be29a38bcdc3d9eb0d694e2510b1ef0d49565ce4e3913cd1af1",
      "transactionType": "CALL",
      "contractName": null,
      "contractAddress": "0xffe1e57a2afe7a1aa41bb34629f76e8d0fae331f",
      "function": "authorizePolicy(address,bytes)",
      "arguments": [
        "0x29d359fEAa71b2e33Aed7543B3B8A05E0a3Cf494",
        "0x0000000000000000000000000000000000000000000000000de0b6b3a76400000000000000000000000000003c7deb6feaeb7a82bde580fb73d8d69c401b219e"
      ],
      "transaction": {
        "from": "0xefbbd14082cf2fbcf5badc7ee619f0f4e36d0a5b",
        "to": "0xffe1e57a2afe7a1aa41bb34629f76e8d0fae331f",
        "gas": "0x3ec7f",
        "value": "0x0",
        "input": "0x2f6cc10200000000000000000000000029d359feaa71b2e33aed7543b3b8a05e0a3cf494000000000000000000000000000000000000000000000000000000000000004000000000000000000000000000000000000000000000000000000000000000400000000000000000000000000000000000000000000000000de0b6b3a76400000000000000000000000000003c7deb6feaeb7a82bde580fb73d8d69c401b219e",
        "nonce": "0x9e8",
        "chainId": "0x13882"
      },
      "additionalContracts": [],
      "isFixedGasLimit": false
    }
  ],
  "receipts": [
    {
      "status": "0x1",
      "cumulativeGasUsed": "0x2d73e",
      "logs": [
        {
          "address": "0xffe1e57a2afe7a1aa41bb34629f76e8d0fae331f",
          "topics": [
            "0x6ba225fe6c79a8c5ddd429f9aa7654c4dbebe2cc98a02209616ac200ceba5c56",
            "0x00000000000000000000000029d359feaa71b2e33aed7543b3b8a05e0a3cf494",
            "0x000000000000000000000000efbbd14082cf2fbcf5badc7ee619f0f4e36d0a5b"
          ],
          "data": "0x00000000000000000000000000000000000000000000000000000000677d5e57000000000000000000000000000000000000000000000000000000000000004000000000000000000000000000000000000000000000000000000000000000400000000000000000000000000000000000000000000000000de0b6b3a76400000000000000000000000000003c7deb6feaeb7a82bde580fb73d8d69c401b219e",
          "blockHash": "0x0192fa5943b847fd06eac781291783d9ac1cc540d0cdc414b45d4331ff06852f",
          "blockNumber": "0xfcebd3",
          "transactionHash": "0x23b50947ec443be29a38bcdc3d9eb0d694e2510b1ef0d49565ce4e3913cd1af1",
          "transactionIndex": "0x0",
          "logIndex": "0x0",
          "removed": false
        },
        {
          "address": "0x0000000000000000000000000000000000001010",
          "topics": [
            "0x4dfe1bbbcf077ddc3e01291eea2d5c70c2b422b415d95645b9adcfd678cb1d63",
            "0x0000000000000000000000000000000000000000000000000000000000001010",
            "0x000000000000000000000000efbbd14082cf2fbcf5badc7ee619f0f4e36d0a5b",
            "0x0000000000000000000000004ad84f7014b7b44f723f284a85b1662337971439"
          ],
          "data": "0x0000000000000000000000000000000000000000000000000017f27aa8fb99400000000000000000000000000000000000000000000000012fe64ccc527c5cc90000000000000000000000000000000000000000000004bb6452a6a662d99eea0000000000000000000000000000000000000000000000012fce5a51a980c3890000000000000000000000000000000000000000000004bb646a99210bd5382a",
          "blockHash": "0x0192fa5943b847fd06eac781291783d9ac1cc540d0cdc414b45d4331ff06852f",
          "blockNumber": "0xfcebd3",
          "transactionHash": "0x23b50947ec443be29a38bcdc3d9eb0d694e2510b1ef0d49565ce4e3913cd1af1",
          "transactionIndex": "0x0",
          "logIndex": "0x1",
          "removed": false
        }
      ],
      "logsBloom": "0x00000000000000000000000000000000000000000000000400000000000000000000000000200000000000000000000000008000000000000000000000400000008040000000000000000000000000800000000000000000000100001000000000000000000000200400000000000000000000000000000080000000000000000900008000000000000100000000000000000000000000000000000000000000200000000000000000000000000800000000400000000000000000000000004000000000000000000001000000000000000000000000000000100000000000000000000000000000000000000000008000000000000000000000000000100000",
      "type": "0x2",
      "transactionHash": "0x23b50947ec443be29a38bcdc3d9eb0d694e2510b1ef0d49565ce4e3913cd1af1",
      "transactionIndex": "0x0",
      "blockHash": "0x0192fa5943b847fd06eac781291783d9ac1cc540d0cdc414b45d4331ff06852f",
      "blockNumber": "0xfcebd3",
      "gasUsed": "0x2d73e",
      "effectiveGasPrice": "0x86e04ef6f",
      "from": "0xefbbd14082cf2fbcf5badc7ee619f0f4e36d0a5b",
      "to": "0xffe1e57a2afe7a1aa41bb34629f76e8d0fae331f",
      "contractAddress": null
    }
  ],
  "libraries": [],
  "pending": [],
  "returns": {},
  "timestamp": 1736269399,
  "chain": 80002,
  "commit": "323af23"
}