{
  "transactions": [
    {
      "hash": "0xf8c006e2359f261f6eb8bc8e978cf0c547dbc94131d61ca7eb68df813e9ca190",
      "transactionType": "CALL",
      "contractName": null,
      "contractAddress": "0x7c30314d9146a0b4554fe4be7723863b9f9cd42b",
      "function": "authorizePolicy(address,bytes)",
      "arguments": [
        "0x2C55821f047b5b74C86F228CaBe6A00891df8506",
        "0x0000000000000000000000000000000000000000000000000de0b6b3a76400000000000000000000000000003c7deb6feaeb7a82bde580fb73d8d69c401b219e"
      ],
      "transaction": {
        "from": "0xefbbd14082cf2fbcf5badc7ee619f0f4e36d0a5b",
        "to": "0x7c30314d9146a0b4554fe4be7723863b9f9cd42b",
        "gas": "0x41f06",
        "value": "0x0",
        "input": "0x2f6cc1020000000000000000000000002c55821f047b5b74c86f228cabe6a00891df8506000000000000000000000000000000000000000000000000000000000000004000000000000000000000000000000000000000000000000000000000000000400000000000000000000000000000000000000000000000000de0b6b3a76400000000000000000000000000003c7deb6feaeb7a82bde580fb73d8d69c401b219e",
        "nonce": "0x8c3",
        "chainId": "0x13882"
      },
      "additionalContracts": [],
      "isFixedGasLimit": false
    }
  ],
  "receipts": [
    {
      "status": "0x1",
      "cumulativeGasUsed": "0x3c432",
      "logs": [
        {
          "address": "0x7c30314d9146a0b4554fe4be7723863b9f9cd42b",
          "topics": [
            "0x164745c0d5815644c1e92a17e242e89f9c0fd523fc3e94071b60f165692f3d79",
            "0x0000000000000000000000002c55821f047b5b74c86f228cabe6a00891df8506",
            "0x000000000000000000000000efbbd14082cf2fbcf5badc7ee619f0f4e36d0a5b"
          ],
          "data": "0x",
          "blockHash": "0xd7569877ec69927b38835708d56b90c48d82d8a8d2c348346b8fbf6c070ee366",
          "blockNumber": "0xf62899",
          "transactionHash": "0xf8c006e2359f261f6eb8bc8e978cf0c547dbc94131d61ca7eb68df813e9ca190",
          "transactionIndex": "0x1",
          "logIndex": "0x2",
          "removed": false
        },
        {
          "address": "0x0000000000000000000000000000000000001010",
          "topics": [
            "0x4dfe1bbbcf077ddc3e01291eea2d5c70c2b422b415d95645b9adcfd678cb1d63",
            "0x0000000000000000000000000000000000000000000000000000000000001010",
            "0x000000000000000000000000efbbd14082cf2fbcf5badc7ee619f0f4e36d0a5b",
            "0x0000000000000000000000006ab3d36c46ecfb9b9c0bd51cb1c3da5a2c81cea6"
          ],
          "data": "0x0000000000000000000000000000000000000000000000000014febff8997b330000000000000000000000000000000000000000000000012c285fc3928f8e5700000000000000000000000000000000000000000000044593a713e4a758f7990000000000000000000000000000000000000000000000012c13610399f6132400000000000000000000000000000000000000000000044593bc12a49ff272cc",
          "blockHash": "0xd7569877ec69927b38835708d56b90c48d82d8a8d2c348346b8fbf6c070ee366",
          "blockNumber": "0xf62899",
          "transactionHash": "0xf8c006e2359f261f6eb8bc8e978cf0c547dbc94131d61ca7eb68df813e9ca190",
          "transactionIndex": "0x1",
          "logIndex": "0x3",
          "removed": false
        }
      ],
      "logsBloom": "0x00000000080000000000000000000000000000000000000000000000000000000000200000000000000000000000000000008200000000000000000000000000008000080000000000000000000000800000000000000000000100000000000000000000000000000000000000000000000000000000000080000000000000000800000000000000000000000200000000000000000000000000000000000000200000000000000000000000000000000000400000000000000000000000004000000000000000000001200000000800000000010000000000100000000000000000000008000100000000000000000000000000000000000000400000100080",
      "type": "0x2",
      "transactionHash": "0xf8c006e2359f261f6eb8bc8e978cf0c547dbc94131d61ca7eb68df813e9ca190",
      "transactionIndex": "0x1",
      "blockHash": "0xd7569877ec69927b38835708d56b90c48d82d8a8d2c348346b8fbf6c070ee366",
      "blockNumber": "0xf62899",
      "gasUsed": "0x2d163",
      "effectiveGasPrice": "0x773594000",
      "from": "0xefbbd14082cf2fbcf5badc7ee619f0f4e36d0a5b",
      "to": "0x7c30314d9146a0b4554fe4be7723863b9f9cd42b",
      "contractAddress": null
    }
  ],
  "libraries": [],
  "pending": [],
  "returns": {},
  "timestamp": 1735327474,
  "chain": 80002,
  "commit": "4cb734c"
}