{
  "transactions": [
    {
      "hash": "0x314aa2a7b9557f105fd7af29bead9eba8fcc49f6825fdb4b56c0b08e5bc7ea82",
      "transactionType": "CALL",
      "contractName": null,
      "contractAddress": "0x147d7c5b0157940d11a17a069b6e77d71c58fe61",
      "function": "authorizePolicy(address,bytes)",
      "arguments": [
        "0xC21478fA891f9766843A203c7c57C6D91A8B58d0",
        "0x0000000000000000000000000000000000000000000000000de0b6b3a76400000000000000000000000000003c7deb6feaeb7a82bde580fb73d8d69c401b219e"
      ],
      "transaction": {
        "from": "0xefbbd14082cf2fbcf5badc7ee619f0f4e36d0a5b",
        "to": "0x147d7c5b0157940d11a17a069b6e77d71c58fe61",
        "gas": "0x1451a",
        "value": "0x0",
        "input": "0x2f6cc102000000000000000000000000c21478fa891f9766843a203c7c57c6d91a8b58d0000000000000000000000000000000000000000000000000000000000000004000000000000000000000000000000000000000000000000000000000000000400000000000000000000000000000000000000000000000000de0b6b3a76400000000000000000000000000003c7deb6feaeb7a82bde580fb73d8d69c401b219e",
        "nonce": "0x90c",
        "chainId": "0x13882"
      },
      "additionalContracts": [],
      "isFixedGasLimit": false
    }
  ],
  "receipts": [
    {
      "status": "0x1",
      "cumulativeGasUsed": "0xeb5f",
      "logs": [
        {
          "address": "0x147d7c5b0157940d11a17a069b6e77d71c58fe61",
          "topics": [
            "0x164745c0d5815644c1e92a17e242e89f9c0fd523fc3e94071b60f165692f3d79",
            "0x000000000000000000000000c21478fa891f9766843a203c7c57c6d91a8b58d0",
            "0x000000000000000000000000efbbd14082cf2fbcf5badc7ee619f0f4e36d0a5b"
          ],
          "data": "0x",
          "blockHash": "0xe9d9c79b5b92387919ff99d7ff802374ea3765a272c77d9e994127462227df80",
          "blockNumber": "0xf8b066",
          "transactionHash": "0x314aa2a7b9557f105fd7af29bead9eba8fcc49f6825fdb4b56c0b08e5bc7ea82",
          "transactionIndex": "0x0",
          "logIndex": "0x0",
          "removed": false
        },
        {
          "address": "0x0000000000000000000000000000000000001010",
          "topics": [
            "0x4dfe1bbbcf077ddc3e01291eea2d5c70c2b422b415d95645b9adcfd678cb1d63",
            "0x0000000000000000000000000000000000000000000000000000000000001010",
            "0x000000000000000000000000efbbd14082cf2fbcf5badc7ee619f0f4e36d0a5b",
            "0x00000000000000000000000085ebd6dc97d56f62e371382b38eae91f3bb4ecb2"
          ],
          "data": "0x000000000000000000000000000000000000000000000000000698930bdea0e80000000000000000000000000000000000000000000000015961c558f841794e00000000000000000000000000000000000000000000007e98d42c8c551d56cd000000000000000000000000000000000000000000000001595b2cc5ec62d86600000000000000000000000000000000000000000000007e98dac51f60fbf7b5",
          "blockHash": "0xe9d9c79b5b92387919ff99d7ff802374ea3765a272c77d9e994127462227df80",
          "blockNumber": "0xf8b066",
          "transactionHash": "0x314aa2a7b9557f105fd7af29bead9eba8fcc49f6825fdb4b56c0b08e5bc7ea82",
          "transactionIndex": "0x0",
          "logIndex": "0x1",
          "removed": false
        }
      ],
      "logsBloom": "0x00000000000000000000000000000000000000000000020000000800000000000000000000000000000000000000000000008000000000000000000000000000008000000000000000000000000000800000000000000000000120000000000000100000000000000000000000000000000000000000000080000000000000000800000000000000000000000200000000000000000000000010002000000000200000000000000000000000000000000000400000000000000000000000004000000000000000000001000000000001000020000000000000100000000000000000000008020100000000000000000000000000000000000000000000100000",
      "type": "0x2",
      "transactionHash": "0x314aa2a7b9557f105fd7af29bead9eba8fcc49f6825fdb4b56c0b08e5bc7ea82",
      "transactionIndex": "0x0",
      "blockHash": "0xe9d9c79b5b92387919ff99d7ff802374ea3765a272c77d9e994127462227df80",
      "blockNumber": "0xf8b066",
      "gasUsed": "0xeb5f",
      "effectiveGasPrice": "0x72c917027",
      "from": "0xefbbd14082cf2fbcf5badc7ee619f0f4e36d0a5b",
      "to": "0x147d7c5b0157940d11a17a069b6e77d71c58fe61",
      "contractAddress": null
    }
  ],
  "libraries": [],
  "pending": [],
  "returns": {},
  "timestamp": 1735679924,
  "chain": 80002,
  "commit": "8a8a711"
}