{
  "transactions": [
    {
      "hash": "0x248c209905c9c890bfd29052c2e6a2923287c83a314e4b1253ac6d53868e3a51",
      "transactionType": "CALL",
      "contractName": null,
      "contractAddress": "0x79e0ad0cdc478096f28eef7f0f96f3b65c861e9d",
      "function": "deploy(bytes32,bytes)",
      "arguments": [
        "0x6d98b81294d5314c9e1311012226611d8af9a29b1126eb0f6ec71926ed262c50",
        "0x60a0601f61051038819003918201601f19168301916001600160401b03831184841017607a57808492602094604052833981010312607657516001600160a01b0381168103607657608052604051610481908161008f823960805181818160f90152818161024301528181610326015261037e0152f35b5f80fd5b634e487b7160e01b5f52604160045260245ffdfe60806040526004361015610011575f80fd5b5f3560e01c806321f8a7211461034a5780635c60da1b146102dc578063db4c545e1461020e5763f14ddffc14610045575f80fd5b60407ffffffffffffffffffffffffffffffffffffffffffffffffffffffffffffffffc36011261020a5760043573ffffffffffffffffffffffffffffffffffffffff81169081810361020a57602435918260601c809114901517156101fd575f916040517fcc3735a920a3ca505d382bbc545af43d6000803e6038573d6000fd5b3d6000f36060527f5155f3363d3d373d3d363d7f360894a13ba1a3210667c828492db98dca3e20766040526160096020527f0000000000000000000000000000000000000000000000000000000000000000601e5268603d3d8160223d3973600a52605f60212060358201523060581b815260ff81538160158201526055812093341592853b156101df5750506001916101da575f38818034885af1156101cd575b6040525f60605215610196575b60208273ffffffffffffffffffffffffffffffffffffffff60405191168152f35b6014526fc4d66de80000000000000000000000005f525f386024601083855af1156101c1575f610175565b3d5f6040513e3d604051fd5b63b12d13eb5f526004601cfd5b610168565b9194509150605f602134f592836101685763301164255f526004601cfd5b630c4549ef5f526004601cfd5b5f80fd5b3461020a575f7ffffffffffffffffffffffffffffffffffffffffffffffffffffffffffffffffc36011261020a5760206102d47f000000000000000000000000000000000000000000000000000000000000000090604051917fcc3735a920a3ca505d382bbc545af43d6000803e6038573d6000fd5b3d6000f36060527f5155f3363d3d373d3d363d7f360894a13ba1a3210667c828492db98dca3e2076604052616009602052601e5268603d3d8160223d3973600a52605f602120916040525f606052565b604051908152f35b3461020a575f7ffffffffffffffffffffffffffffffffffffffffffffffffffffffffffffffffc36011261020a57602060405173ffffffffffffffffffffffffffffffffffffffff7f0000000000000000000000000000000000000000000000000000000000000000168152f35b3461020a5760207ffffffffffffffffffffffffffffffffffffffffffffffffffffffffffffffffc36011261020a5761040f7f000000000000000000000000000000000000000000000000000000000000000090604051917fcc3735a920a3ca505d382bbc545af43d6000803e6038573d6000fd5b3d6000f36060527f5155f3363d3d373d3d363d7f360894a13ba1a3210667c828492db98dca3e2076604052616009602052601e5268603d3d8160223d3973600a52605f602120916040525f606052565b60ff5f536035523060601b600152600435601552602060555f205f60355273ffffffffffffffffffffffffffffffffffffffff60405191168152f3fea26469706673582212200470d5622a21e55144fdbcd9836f8c07d2287524f71167da9fffdeaa87fef33264736f6c634300081a00330000000000000000000000006094c59cf1df32eb5ec6fee3ce5ae8cdf10108e3"
      ],
      "transaction": {
        "from": "0xefbbd14082cf2fbcf5badc7ee619f0f4e36d0a5b",
        "to": "0x79e0ad0cdc478096f28eef7f0f96f3b65c861e9d",
        "gas": "0x726df",
        "value": "0x0",
        "input": "0xcdcb760a6d98b81294d5314c9e1311012226611d8af9a29b1126eb0f6ec71926ed262c500000000000000000000000000000000000000000000000000000000000000040000000000000000000000000000000000000000000000000000000000000053060a0601f61051038819003918201601f19168301916001600160401b03831184841017607a57808492602094604052833981010312607657516001600160a01b0381168103607657608052604051610481908161008f823960805181818160f90152818161024301528181610326015261037e0152f35b5f80fd5b634e487b7160e01b5f52604160045260245ffdfe60806040526004361015610011575f80fd5b5f3560e01c806321f8a7211461034a5780635c60da1b146102dc578063db4c545e1461020e5763f14ddffc14610045575f80fd5b60407ffffffffffffffffffffffffffffffffffffffffffffffffffffffffffffffffc36011261020a5760043573ffffffffffffffffffffffffffffffffffffffff81169081810361020a57602435918260601c809114901517156101fd575f916040517fcc3735a920a3ca505d382bbc545af43d6000803e6038573d6000fd5b3d6000f36060527f5155f3363d3d373d3d363d7f360894a13ba1a3210667c828492db98dca3e20766040526160096020527f0000000000000000000000000000000000000000000000000000000000000000601e5268603d3d8160223d3973600a52605f60212060358201523060581b815260ff81538160158201526055812093341592853b156101df5750506001916101da575f38818034885af1156101cd575b6040525f60605215610196575b60208273ffffffffffffffffffffffffffffffffffffffff60405191168152f35b6014526fc4d66de80000000000000000000000005f525f386024601083855af1156101c1575f610175565b3d5f6040513e3d604051fd5b63b12d13eb5f526004601cfd5b610168565b9194509150605f602134f592836101685763301164255f526004601cfd5b630c4549ef5f526004601cfd5b5f80fd5b3461020a575f7ffffffffffffffffffffffffffffffffffffffffffffffffffffffffffffffffc36011261020a5760206102d47f000000000000000000000000000000000000000000000000000000000000000090604051917fcc3735a920a3ca505d382bbc545af43d6000803e6038573d6000fd5b3d6000f36060527f5155f3363d3d373d3d363d7f360894a13ba1a3210667c828492db98dca3e2076604052616009602052601e5268603d3d8160223d3973600a52605f602120916040525f606052565b604051908152f35b3461020a575f7ffffffffffffffffffffffffffffffffffffffffffffffffffffffffffffffffc36011261020a57602060405173ffffffffffffffffffffffffffffffffffffffff7f0000000000000000000000000000000000000000000000000000000000000000168152f35b3461020a5760207ffffffffffffffffffffffffffffffffffffffffffffffffffffffffffffffffc36011261020a5761040f7f000000000000000000000000000000000000000000000000000000000000000090604051917fcc3735a920a3ca505d382bbc545af43d6000803e6038573d6000fd5b3d6000f36060527f5155f3363d3d373d3d363d7f360894a13ba1a3210667c828492db98dca3e2076604052616009602052601e5268603d3d8160223d3973600a52605f602120916040525f606052565b60ff5f536035523060601b600152600435601552602060555f205f60355273ffffffffffffffffffffffffffffffffffffffff60405191168152f3fea26469706673582212200470d5622a21e55144fdbcd9836f8c07d2287524f71167da9fffdeaa87fef33264736f6c634300081a00330000000000000000000000006094c59cf1df32eb5ec6fee3ce5ae8cdf10108e300000000000000000000000000000000",
        "nonce": "0x618",
        "chainId": "0x13882"
      },
      "additionalContracts": [
        {
          "transactionType": "CREATE2",
          "address": "0xd0b4b158221564fee40b80a37023d0babfb90f95",
          "initCode": "0x67363d3d37363d34f03d5260086018f3"
        },
        {
          "transactionType": "CREATE",
          "address": "0xbefb85f29add5ad91f8646be7b1d5090e4fad89a",
          "initCode": "0x60a0601f61051038819003918201601f19168301916001600160401b03831184841017607a57808492602094604052833981010312607657516001600160a01b0381168103607657608052604051610481908161008f823960805181818160f90152818161024301528181610326015261037e0152f35b5f80fd5b634e487b7160e01b5f52604160045260245ffdfe60806040526004361015610011575f80fd5b5f3560e01c806321f8a7211461034a5780635c60da1b146102dc578063db4c545e1461020e5763f14ddffc14610045575f80fd5b60407ffffffffffffffffffffffffffffffffffffffffffffffffffffffffffffffffc36011261020a5760043573ffffffffffffffffffffffffffffffffffffffff81169081810361020a57602435918260601c809114901517156101fd575f916040517fcc3735a920a3ca505d382bbc545af43d6000803e6038573d6000fd5b3d6000f36060527f5155f3363d3d373d3d363d7f360894a13ba1a3210667c828492db98dca3e20766040526160096020527f0000000000000000000000000000000000000000000000000000000000000000601e5268603d3d8160223d3973600a52605f60212060358201523060581b815260ff81538160158201526055812093341592853b156101df5750506001916101da575f38818034885af1156101cd575b6040525f60605215610196575b60208273ffffffffffffffffffffffffffffffffffffffff60405191168152f35b6014526fc4d66de80000000000000000000000005f525f386024601083855af1156101c1575f610175565b3d5f6040513e3d604051fd5b63b12d13eb5f526004601cfd5b610168565b9194509150605f602134f592836101685763301164255f526004601cfd5b630c4549ef5f526004601cfd5b5f80fd5b3461020a575f7ffffffffffffffffffffffffffffffffffffffffffffffffffffffffffffffffc36011261020a5760206102d47f000000000000000000000000000000000000000000000000000000000000000090604051917fcc3735a920a3ca505d382bbc545af43d6000803e6038573d6000fd5b3d6000f36060527f5155f3363d3d373d3d363d7f360894a13ba1a3210667c828492db98dca3e2076604052616009602052601e5268603d3d8160223d3973600a52605f602120916040525f606052565b604051908152f35b3461020a575f7ffffffffffffffffffffffffffffffffffffffffffffffffffffffffffffffffc36011261020a57602060405173ffffffffffffffffffffffffffffffffffffffff7f0000000000000000000000000000000000000000000000000000000000000000168152f35b3461020a5760207ffffffffffffffffffffffffffffffffffffffffffffffffffffffffffffffffc36011261020a5761040f7f000000000000000000000000000000000000000000000000000000000000000090604051917fcc3735a920a3ca505d382bbc545af43d6000803e6038573d6000fd5b3d6000f36060527f5155f3363d3d373d3d363d7f360894a13ba1a3210667c828492db98dca3e2076604052616009602052601e5268603d3d8160223d3973600a52605f602120916040525f606052565b60ff5f536035523060601b600152600435601552602060555f205f60355273ffffffffffffffffffffffffffffffffffffffff60405191168152f3fea26469706673582212200470d5622a21e55144fdbcd9836f8c07d2287524f71167da9fffdeaa87fef33264736f6c634300081a00330000000000000000000000006094c59cf1df32eb5ec6fee3ce5ae8cdf10108e3"
        }
      ],
      "isFixedGasLimit": false
    }
  ],
  "receipts": [
    {
      "status": "0x1",
      "cumulativeGasUsed": "0x1d049e",
      "logs": [
        {
          "address": "0x0000000000000000000000000000000000001010",
          "topics": [
            "0x4dfe1bbbcf077ddc3e01291eea2d5c70c2b422b415d95645b9adcfd678cb1d63",
            "0x0000000000000000000000000000000000000000000000000000000000001010",
            "0x000000000000000000000000efbbd14082cf2fbcf5badc7ee619f0f4e36d0a5b",
            "0x0000000000000000000000004ca9ff871c7aa1e7b64e1eae110835f68d6a0bd4"
          ],
          "data": "0x000000000000000000000000000000000000000000000000003961a1e751c93000000000000000000000000000000000000000000000000022e24f91053739d500000000000000000000000000000000000000000000003269c79970ba5a6d2000000000000000000000000000000000000000000000000022a8edef1de570a50000000000000000000000000000000000000000000000326a00fb12a1ac3650",
          "blockHash": "0x41f78d190bbfaa01afb12e703b9c3cd04a043cc502b741ad7456d20975f5f4fc",
          "blockNumber": "0xde807e",
          "transactionHash": "0x248c209905c9c890bfd29052c2e6a2923287c83a314e4b1253ac6d53868e3a51",
          "transactionIndex": "0x2",
          "logIndex": "0x6",
          "removed": false
        }
      ],
      "logsBloom": "0x00000000000000000000000000000000000000000000000000000000000000000000000000000000000000000000000020008000000000000000000000000000008000000000000000000000000000800000000000000000000100000000000000000000000000000000000000000000000000000000000080000000000000000800000000000000000000000000000000008000000000000000000000000000200000000000040000000000000000000000400000000000000000000000004000000000000000000001000000000000000000000000000000100000000000000000000000000000000000000000000000000000000000000000000000100000",
      "type": "0x2",
      "transactionHash": "0x248c209905c9c890bfd29052c2e6a2923287c83a314e4b1253ac6d53868e3a51",
      "transactionIndex": "0x2",
      "blockHash": "0x41f78d190bbfaa01afb12e703b9c3cd04a043cc502b741ad7456d20975f5f4fc",
      "blockNumber": "0xde807e",
      "gasUsed": "0x52d85",
      "effectiveGasPrice": "0xb1509137f",
      "from": "0xefbbd14082cf2fbcf5badc7ee619f0f4e36d0a5b",
      "to": "0x79e0ad0cdc478096f28eef7f0f96f3b65c861e9d",
      "contractAddress": null
    }
  ],
  "libraries": [],
  "pending": [],
  "returns": {
    "factory": {
      "internal_type": "address",
      "value": "0xbeFb85F29Add5AD91f8646Be7b1d5090e4FaD89a"
    }
  },
  "timestamp": 1731946046,
  "chain": 80002,
  "commit": "5073067"
}