{
  "transactions": [
    {
      "hash": "0x35fc7157400c1ad58e459d78f74174ed7221aae6df3211096e761fa8ddecec38",
      "transactionType": "CALL",
      "contractName": null,
      "contractAddress": "0x0000000071727de22e5e9d8baf0edac6f37da032",
      "function": "depositTo(address)",
      "arguments": [
        "0x3e5b3EA46F1636fd72115431c89b3F7d094C9e98"
      ],
      "transaction": {
        "from": "0xefbbd14082cf2fbcf5badc7ee619f0f4e36d0a5b",
        "to": "0x0000000071727de22e5e9d8baf0edac6f37da032",
        "gas": "0xa2cf",
        "value": "0x1bc16d674ec80000",
        "input": "0xb760faf90000000000000000000000003e5b3ea46f1636fd72115431c89b3f7d094c9e98",
        "nonce": "0x61d",
        "chainId": "0x13882"
      },
      "additionalContracts": [],
      "isFixedGasLimit": false
    }
  ],
  "receipts": [
    {
      "status": "0x1",
      "cumulativeGasUsed": "0x6f53",
      "logs": [
        {
          "address": "0x0000000000000000000000000000000000001010",
          "topics": [
            "0xe6497e3ee548a3372136af2fcb0696db31fc6cf20260707645068bd3fe97f3c4",
            "0x0000000000000000000000000000000000000000000000000000000000001010",
            "0x000000000000000000000000efbbd14082cf2fbcf5badc7ee619f0f4e36d0a5b",
            "0x0000000000000000000000000000000071727de22e5e9d8baf0edac6f37da032"
          ],
          "data": "0x0000000000000000000000000000000000000000000000001bc16d674ec8000000000000000000000000000000000000000000000000000022624f53569d763300000000000000000000000000000000000000000000005833cfb739c6dfc6bb00000000000000000000000000000000000000000000000006a0e1ec07d576330000000000000000000000000000000000000000000000584f9124a115a7c6bb",
          "blockHash": "0x70f6c6467073438107960b8d8d823612403fcc5f0a8ddd1572d2a9969d774c9c",
          "blockNumber": "0xdf1e19",
          "transactionHash": "0x35fc7157400c1ad58e459d78f74174ed7221aae6df3211096e761fa8ddecec38",
          "transactionIndex": "0x0",
          "logIndex": "0x0",
          "removed": false
        },
        {
          "address": "0x0000000071727de22e5e9d8baf0edac6f37da032",
          "topics": [
            "0x2da466a7b24304f47e87fa2e1e5a81b9831ce54fec19055ce277ca2f39ba42c4",
            "0x0000000000000000000000003e5b3ea46f1636fd72115431c89b3f7d094c9e98"
          ],
          "data": "0x00000000000000000000000000000000000000000000000024594911fafba5d6",
          "blockHash": "0x70f6c6467073438107960b8d8d823612403fcc5f0a8ddd1572d2a9969d774c9c",
          "blockNumber": "0xdf1e19",
          "transactionHash": "0x35fc7157400c1ad58e459d78f74174ed7221aae6df3211096e761fa8ddecec38",
          "transactionIndex": "0x0",
          "logIndex": "0x1",
          "removed": false
        },
        {
          "address": "0x0000000000000000000000000000000000001010",
          "topics": [
            "0x4dfe1bbbcf077ddc3e01291eea2d5c70c2b422b415d95645b9adcfd678cb1d63",
            "0x0000000000000000000000000000000000000000000000000000000000001010",
            "0x000000000000000000000000efbbd14082cf2fbcf5badc7ee619f0f4e36d0a5b",
            "0x0000000000000000000000006ab3d36c46ecfb9b9c0bd51cb1c3da5a2c81cea6"
          ],
          "data": "0x00000000000000000000000000000000000000000000000000066de678f94668000000000000000000000000000000000000000000000000226bb668c2f8bedc0000000000000000000000000000000000000000000003ace75b61ec615e37eb0000000000000000000000000000000000000000000000002265488249ff78740000000000000000000000000000000000000000000003ace761cfd2da577e53",
          "blockHash": "0x70f6c6467073438107960b8d8d823612403fcc5f0a8ddd1572d2a9969d774c9c",
          "blockNumber": "0xdf1e19",
          "transactionHash": "0x35fc7157400c1ad58e459d78f74174ed7221aae6df3211096e761fa8ddecec38",
          "transactionIndex": "0x0",
          "logIndex": "0x2",
          "removed": false
        }
      ],
      "logsBloom": "0x00000000080000000000000000000000000000000000000000000000000000000000000000000000000000100000000000008000002000000000000000000000018000080000000000000000000000800040000000000000000100000000200000000000000800000000000000000000000000000000000080000000000200000800000000000000000000000000000000000000000000000000000000800000200000000000000000000000000000000000400000000000000000800000004000000000000000400001000000000000000000010000800000108000000000000040000000000000000000000000000000800000000000000100000000100000",
      "type": "0x2",
      "transactionHash": "0x35fc7157400c1ad58e459d78f74174ed7221aae6df3211096e761fa8ddecec38",
      "transactionIndex": "0x0",
      "blockHash": "0x70f6c6467073438107960b8d8d823612403fcc5f0a8ddd1572d2a9969d774c9c",
      "blockNumber": "0xdf1e19",
      "gasUsed": "0x6f53",
      "effectiveGasPrice": "0xec8e51b07",
      "from": "0xefbbd14082cf2fbcf5badc7ee619f0f4e36d0a5b",
      "to": "0x0000000071727de22e5e9d8baf0edac6f37da032",
      "contractAddress": null
    }
  ],
  "libraries": [],
  "pending": [],
  "returns": {},
  "timestamp": 1732032929,
  "chain": 80002,
  "commit": "5073067"
}