{
  "transactions": [
    {
      "hash": "0x470c2b95396189b93a6c8617a678c6620f7a2984450a4d4f1f6086af592fcf18",
      "transactionType": "CALL",
      "contractName": null,
      "contractAddress": "0x0000000071727de22e5e9d8baf0edac6f37da032",
      "function": "depositTo(address)",
      "arguments": [
        "0x246992c70a4AB28F88dB6683D3563CE8338aCC52"
      ],
      "transaction": {
        "from": "0xefbbd14082cf2fbcf5badc7ee619f0f4e36d0a5b",
        "to": "0x0000000071727de22e5e9d8baf0edac6f37da032",
        "gas": "0xa2cf",
        "value": "0xde0b6b3a7640000",
        "input": "0xb760faf9000000000000000000000000246992c70a4ab28f88db6683d3563ce8338acc52",
        "nonce": "0x621",
        "chainId": "0x13882"
      },
      "additionalContracts": [],
      "isFixedGasLimit": false
    }
  ],
  "receipts": [
    {
      "status": "0x1",
      "cumulativeGasUsed": "0x1f4ff",
      "logs": [
        {
          "address": "0x0000000000000000000000000000000000001010",
          "topics": [
            "0xe6497e3ee548a3372136af2fcb0696db31fc6cf20260707645068bd3fe97f3c4",
            "0x0000000000000000000000000000000000000000000000000000000000001010",
            "0x000000000000000000000000efbbd14082cf2fbcf5badc7ee619f0f4e36d0a5b",
            "0x0000000000000000000000000000000071727de22e5e9d8baf0edac6f37da032"
          ],
          "data": "0x0000000000000000000000000000000000000000000000000de0b6b3a7640000000000000000000000000000000000000000000000000000146ddd4c87d110fa000000000000000000000000000000000000000000000058733882ef522acd4a000000000000000000000000000000000000000000000000068d2698e06d10fa000000000000000000000000000000000000000000000058811939a2f98ecd4a",
          "blockHash": "0xf210fc85b690769b83f076b9d31fd09ac133a5f75a293376c4f5308f6672a975",
          "blockNumber": "0xdf2150",
          "transactionHash": "0x470c2b95396189b93a6c8617a678c6620f7a2984450a4d4f1f6086af592fcf18",
          "transactionIndex": "0x2",
          "logIndex": "0x3",
          "removed": false
        },
        {
          "address": "0x0000000071727de22e5e9d8baf0edac6f37da032",
          "topics": [
            "0x2da466a7b24304f47e87fa2e1e5a81b9831ce54fec19055ce277ca2f39ba42c4",
            "0x000000000000000000000000246992c70a4ab28f88db6683d3563ce8338acc52"
          ],
          "data": "0x000000000000000000000000000000000000000000000000451e8c6d88d2ff28",
          "blockHash": "0xf210fc85b690769b83f076b9d31fd09ac133a5f75a293376c4f5308f6672a975",
          "blockNumber": "0xdf2150",
          "transactionHash": "0x470c2b95396189b93a6c8617a678c6620f7a2984450a4d4f1f6086af592fcf18",
          "transactionIndex": "0x2",
          "logIndex": "0x4",
          "removed": false
        },
        {
          "address": "0x0000000000000000000000000000000000001010",
          "topics": [
            "0x4dfe1bbbcf077ddc3e01291eea2d5c70c2b422b415d95645b9adcfd678cb1d63",
            "0x0000000000000000000000000000000000000000000000000000000000001010",
            "0x000000000000000000000000efbbd14082cf2fbcf5badc7ee619f0f4e36d0a5b",
            "0x0000000000000000000000006ab3d36c46ecfb9b9c0bd51cb1c3da5a2c81cea6"
          ],
          "data": "0x000000000000000000000000000000000000000000000000000333b5ce5f2ae300000000000000000000000000000000000000000000000014728c1a393cd0ba0000000000000000000000000000000000000000000003ad549a87d9768c4594000000000000000000000000000000000000000000000000146f58646adda5d70000000000000000000000000000000000000000000003ad549dbb8f44eb7077",
          "blockHash": "0xf210fc85b690769b83f076b9d31fd09ac133a5f75a293376c4f5308f6672a975",
          "blockNumber": "0xdf2150",
          "transactionHash": "0x470c2b95396189b93a6c8617a678c6620f7a2984450a4d4f1f6086af592fcf18",
          "transactionIndex": "0x2",
          "logIndex": "0x5",
          "removed": false
        }
      ],
      "logsBloom": "0x00000000080000000000000000000000000000000800000000000000000000000000000000000000000000100000000000008000000000000000000000000000018020080000000000000000000000800040000000000000000100000000200000000000000800000000000000000000000000000000000080000000000200000800000000000000000000000000000000000000000000000000000000000000200000000000000000010000000000000000400000000000000000000000004000000000000000400001000000000000000000010000800000108000000000000040000000000000000000000000000000800000000000000100000000100000",
      "type": "0x2",
      "transactionHash": "0x470c2b95396189b93a6c8617a678c6620f7a2984450a4d4f1f6086af592fcf18",
      "transactionIndex": "0x2",
      "blockHash": "0xf210fc85b690769b83f076b9d31fd09ac133a5f75a293376c4f5308f6672a975",
      "blockNumber": "0xdf2150",
      "gasUsed": "0x6f53",
      "effectiveGasPrice": "0x75cff3440",
      "from": "0xefbbd14082cf2fbcf5badc7ee619f0f4e36d0a5b",
      "to": "0x0000000071727de22e5e9d8baf0edac6f37da032",
      "contractAddress": null
    }
  ],
  "libraries": [],
  "pending": [],
  "returns": {},
  "timestamp": 1732034679,
  "chain": 80002,
  "commit": "5073067"
}