{
  "transactions": [
    {
      "hash": "0xeb3a17c64e82d83b105ca4a4ab8052ee6cad8961c6c3f9674392b1c786f3f6d4",
      "transactionType": "CALL",
      "contractName": null,
      "contractAddress": "0x0000000071727de22e5e9d8baf0edac6f37da032",
      "function": "depositTo(address)",
      "arguments": [
        "0x246992c70a4AB28F88dB6683D3563CE8338aCC52"
      ],
      "transaction": {
        "from": "0xefbbd14082cf2fbcf5badc7ee619f0f4e36d0a5b",
        "to": "0x0000000071727de22e5e9d8baf0edac6f37da032",
        "gas": "0xf606",
        "value": "0xde0b6b3a7640000",
        "input": "0xb760faf9000000000000000000000000246992c70a4ab28f88db6683d3563ce8338acc52",
        "nonce": "0x61a",
        "chainId": "0x13882"
      },
      "additionalContracts": [],
      "isFixedGasLimit": false
    }
  ],
  "receipts": [
    {
      "status": "0x1",
      "cumulativeGasUsed": "0x10427",
      "logs": [
        {
          "address": "0x0000000000000000000000000000000000001010",
          "topics": [
            "0xe6497e3ee548a3372136af2fcb0696db31fc6cf20260707645068bd3fe97f3c4",
            "0x0000000000000000000000000000000000000000000000000000000000001010",
            "0x000000000000000000000000efbbd14082cf2fbcf5badc7ee619f0f4e36d0a5b",
            "0x0000000000000000000000000000000071727de22e5e9d8baf0edac6f37da032"
          ],
          "data": "0x0000000000000000000000000000000000000000000000000de0b6b3a76400000000000000000000000000000000000000000000000000003069f2a24fd6013f00000000000000000000000000000000000000000000005906033d188d1f8df300000000000000000000000000000000000000000000000022893beea872013f00000000000000000000000000000000000000000000005913e3f3cc34838df3",
          "blockHash": "0x4b26e24a1224d8d711674652a0c02eb8fd9a57571c16f75b5c3690f80ebba2fd",
          "blockNumber": "0xde8129",
          "transactionHash": "0xeb3a17c64e82d83b105ca4a4ab8052ee6cad8961c6c3f9674392b1c786f3f6d4",
          "transactionIndex": "0x1",
          "logIndex": "0x2",
          "removed": false
        },
        {
          "address": "0x0000000071727de22e5e9d8baf0edac6f37da032",
          "topics": [
            "0x2da466a7b24304f47e87fa2e1e5a81b9831ce54fec19055ce277ca2f39ba42c4",
            "0x000000000000000000000000246992c70a4ab28f88db6683d3563ce8338acc52"
          ],
          "data": "0x0000000000000000000000000000000000000000000000000de0b6b3a7640000",
          "blockHash": "0x4b26e24a1224d8d711674652a0c02eb8fd9a57571c16f75b5c3690f80ebba2fd",
          "blockNumber": "0xde8129",
          "transactionHash": "0xeb3a17c64e82d83b105ca4a4ab8052ee6cad8961c6c3f9674392b1c786f3f6d4",
          "transactionIndex": "0x1",
          "logIndex": "0x3",
          "removed": false
        },
        {
          "address": "0x0000000000000000000000000000000000001010",
          "topics": [
            "0x4dfe1bbbcf077ddc3e01291eea2d5c70c2b422b415d95645b9adcfd678cb1d63",
            "0x0000000000000000000000000000000000000000000000000000000000001010",
            "0x000000000000000000000000efbbd14082cf2fbcf5badc7ee619f0f4e36d0a5b",
            "0x0000000000000000000000004ca9ff871c7aa1e7b64e1eae110835f68d6a0bd4"
          ],
          "data": "0x0000000000000000000000000000000000000000000000000007b5f7db9d3a900000000000000000000000000000000000000000000000003074991b86c880390000000000000000000000000000000000000000000000326c2f7f31481b5cb2000000000000000000000000000000000000000000000000306ce323ab2b45a90000000000000000000000000000000000000000000000326c37352923b89742",
          "blockHash": "0x4b26e24a1224d8d711674652a0c02eb8fd9a57571c16f75b5c3690f80ebba2fd",
          "blockNumber": "0xde8129",
          "transactionHash": "0xeb3a17c64e82d83b105ca4a4ab8052ee6cad8961c6c3f9674392b1c786f3f6d4",
          "transactionIndex": "0x1",
          "logIndex": "0x4",
          "removed": false
        }
      ],
      "logsBloom": "0x00000000000000000000000000000000000000000800000000000000000000000000000000000000000000100000000020008000000000000000000000000000018020000000000000000000000000800040000000000000000100000000200000000000000800000000000000000000000000000000000080000000000200000800000000000000000000000000000000008000000000000000000000000000200000000000040000010000000000000000400000000000000000000000004000000000000000400001000000000000000000000000800000108000000000000040000000000000000000000000000000800000000000000100000000100000",
      "type": "0x2",
      "transactionHash": "0xeb3a17c64e82d83b105ca4a4ab8052ee6cad8961c6c3f9674392b1c786f3f6d4",
      "transactionIndex": "0x1",
      "blockHash": "0x4b26e24a1224d8d711674652a0c02eb8fd9a57571c16f75b5c3690f80ebba2fd",
      "blockNumber": "0xde8129",
      "gasUsed": "0xb21f",
      "effectiveGasPrice": "0xb1509137f",
      "from": "0xefbbd14082cf2fbcf5badc7ee619f0f4e36d0a5b",
      "to": "0x0000000071727de22e5e9d8baf0edac6f37da032",
      "contractAddress": null
    }
  ],
  "libraries": [],
  "pending": [],
  "returns": {},
  "timestamp": 1731946392,
  "chain": 80002,
  "commit": "5073067"
}