{
  "transactions": [
    {
      "hash": "0xecb92b4d7a1a7b51a3a32064d03bc9c372eb44d8a6c9a51143ef2ad8bc6617aa",
      "transactionType": "CALL",
      "contractName": null,
      "contractAddress": "0x0000000071727de22e5e9d8baf0edac6f37da032",
      "function": "depositTo(address)",
      "arguments": [
        "0xf050beEAa89D049BBC161511CAae4BF9A725eDDa"
      ],
      "transaction": {
        "from": "0xefbbd14082cf2fbcf5badc7ee619f0f4e36d0a5b",
        "to": "0x0000000071727de22e5e9d8baf0edac6f37da032",
        "gas": "0xa2cf",
        "value": "0xde0b6b3a7640000",
        "input": "0xb760faf9000000000000000000000000f050beeaa89d049bbc161511caae4bf9a725edda",
        "nonce": "0x611",
        "chainId": "0x13882"
      },
      "additionalContracts": [],
      "isFixedGasLimit": false
    }
  ],
  "receipts": [
    {
      "status": "0x1",
      "cumulativeGasUsed": "0x6f53",
      "logs": [
        {
          "address": "0x0000000000000000000000000000000000001010",
          "topics": [
            "0xe6497e3ee548a3372136af2fcb0696db31fc6cf20260707645068bd3fe97f3c4",
            "0x0000000000000000000000000000000000000000000000000000000000001010",
            "0x000000000000000000000000efbbd14082cf2fbcf5badc7ee619f0f4e36d0a5b",
            "0x0000000000000000000000000000000071727de22e5e9d8baf0edac6f37da032"
          ],
          "data": "0x0000000000000000000000000000000000000000000000000de0b6b3a764000000000000000000000000000000000000000000000000000015fb12c34c7c509c0000000000000000000000000000000000000000000000596693f48baddcdcf7000000000000000000000000000000000000000000000000081a5c0fa518509c0000000000000000000000000000000000000000000000597474ab3f5540dcf7",
          "blockHash": "0x5d391d77b5509ed7c43851b07cb2a7aec91bdc38d022d308906efad2af3e7456",
          "blockNumber": "0xdde8b6",
          "transactionHash": "0xecb92b4d7a1a7b51a3a32064d03bc9c372eb44d8a6c9a51143ef2ad8bc6617aa",
          "transactionIndex": "0x0",
          "logIndex": "0x0",
          "removed": false
        },
        {
          "address": "0x0000000071727de22e5e9d8baf0edac6f37da032",
          "topics": [
            "0x2da466a7b24304f47e87fa2e1e5a81b9831ce54fec19055ce277ca2f39ba42c4",
            "0x000000000000000000000000f050beeaa89d049bbc161511caae4bf9a725edda"
          ],
          "data": "0x0000000000000000000000000000000000000000000000000de0b6b3a7640001",
          "blockHash": "0x5d391d77b5509ed7c43851b07cb2a7aec91bdc38d022d308906efad2af3e7456",
          "blockNumber": "0xdde8b6",
          "transactionHash": "0xecb92b4d7a1a7b51a3a32064d03bc9c372eb44d8a6c9a51143ef2ad8bc6617aa",
          "transactionIndex": "0x0",
          "logIndex": "0x1",
          "removed": false
        },
        {
          "address": "0x0000000000000000000000000000000000001010",
          "topics": [
            "0x4dfe1bbbcf077ddc3e01291eea2d5c70c2b422b415d95645b9adcfd678cb1d63",
            "0x0000000000000000000000000000000000000000000000000000000000001010",
            "0x000000000000000000000000efbbd14082cf2fbcf5badc7ee619f0f4e36d0a5b",
            "0x0000000000000000000000004ad84f7014b7b44f723f284a85b1662337971439"
          ],
          "data": "0x0000000000000000000000000000000000000000000000000003a51bdbbf322300000000000000000000000000000000000000000000000016006768a41c689c000000000000000000000000000000000000000000000414aa3c68e07cbaacdd00000000000000000000000000000000000000000000000015fcc24cc85d3679000000000000000000000000000000000000000000000414aa400dfc5879df00",
          "blockHash": "0x5d391d77b5509ed7c43851b07cb2a7aec91bdc38d022d308906efad2af3e7456",
          "blockNumber": "0xdde8b6",
          "transactionHash": "0xecb92b4d7a1a7b51a3a32064d03bc9c372eb44d8a6c9a51143ef2ad8bc6617aa",
          "transactionIndex": "0x0",
          "logIndex": "0x2",
          "removed": false
        }
      ],
      "logsBloom": "0x00000000000000000000000000000000000000000000000000000000000000000000000000000000000000100000000000008000000000000000000000400000018000000000000000000000000000800040000000000000000100801000200000000000000800000000000000000000000000000000000080000000000200000800000000000000000000000000000000000000000000000000000000000000200000000000000000000000000000000000400000000000000000000000004000000000000000400001000000000000002000000000800000108000000000000040000000000000000000000000008000800000000000000100000080100000",
      "type": "0x2",
      "transactionHash": "0xecb92b4d7a1a7b51a3a32064d03bc9c372eb44d8a6c9a51143ef2ad8bc6617aa",
      "transactionIndex": "0x0",
      "blockHash": "0x5d391d77b5509ed7c43851b07cb2a7aec91bdc38d022d308906efad2af3e7456",
      "blockNumber": "0xdde8b6",
      "gasUsed": "0x6f53",
      "effectiveGasPrice": "0x861c46800",
      "from": "0xefbbd14082cf2fbcf5badc7ee619f0f4e36d0a5b",
      "to": "0x0000000071727de22e5e9d8baf0edac6f37da032",
      "contractAddress": null
    }
  ],
  "libraries": [],
  "pending": [],
  "returns": {},
  "timestamp": 1731862316,
  "chain": 80002,
  "commit": "5073067"
}