{
  "transactions": [
    {
      "hash": "0x6d13916cadae5c9ea65bcde32ceb8225b0da8ce7b31a2fdb006f3e37a8541728",
      "transactionType": "CALL",
      "contractName": null,
      "contractAddress": "0x0000000071727de22e5e9d8baf0edac6f37da032",
      "function": "depositTo(address)",
      "arguments": [
        "0x246992c70a4AB28F88dB6683D3563CE8338aCC52"
      ],
      "transaction": {
        "from": "0xefbbd14082cf2fbcf5badc7ee619f0f4e36d0a5b",
        "to": "0x0000000071727de22e5e9d8baf0edac6f37da032",
        "gas": "0xa2cf",
        "value": "0xde0b6b3a7640000",
        "input": "0xb760faf9000000000000000000000000246992c70a4ab28f88db6683d3563ce8338acc52",
        "nonce": "0x620",
        "chainId": "0x13882"
      },
      "additionalContracts": [],
      "isFixedGasLimit": false
    }
  ],
  "receipts": [
    {
      "status": "0x1",
      "cumulativeGasUsed": "0x2178d",
      "logs": [
        {
          "address": "0x0000000000000000000000000000000000001010",
          "topics": [
            "0xe6497e3ee548a3372136af2fcb0696db31fc6cf20260707645068bd3fe97f3c4",
            "0x0000000000000000000000000000000000000000000000000000000000001010",
            "0x000000000000000000000000efbbd14082cf2fbcf5badc7ee619f0f4e36d0a5b",
            "0x0000000000000000000000000000000071727de22e5e9d8baf0edac6f37da032"
          ],
          "data": "0x0000000000000000000000000000000000000000000000000de0b6b3a7640000000000000000000000000000000000000000000000000000146f150dd71860ba00000000000000000000000000000000000000000000005865bee045f2ed2ef4000000000000000000000000000000000000000000000000068e5e5a2fb460ba000000000000000000000000000000000000000000000058739f96f99a512ef4",
          "blockHash": "0x9beaefe2101dea894298f22fdf9c47a2fd88dd4db7d53ffc038622167911d072",
          "blockNumber": "0xdf2107",
          "transactionHash": "0x6d13916cadae5c9ea65bcde32ceb8225b0da8ce7b31a2fdb006f3e37a8541728",
          "transactionIndex": "0x1",
          "logIndex": "0x3",
          "removed": false
        },
        {
          "address": "0x0000000071727de22e5e9d8baf0edac6f37da032",
          "topics": [
            "0x2da466a7b24304f47e87fa2e1e5a81b9831ce54fec19055ce277ca2f39ba42c4",
            "0x000000000000000000000000246992c70a4ab28f88db6683d3563ce8338acc52"
          ],
          "data": "0x000000000000000000000000000000000000000000000000373dd5b9e16eff28",
          "blockHash": "0x9beaefe2101dea894298f22fdf9c47a2fd88dd4db7d53ffc038622167911d072",
          "blockNumber": "0xdf2107",
          "transactionHash": "0x6d13916cadae5c9ea65bcde32ceb8225b0da8ce7b31a2fdb006f3e37a8541728",
          "transactionIndex": "0x1",
          "logIndex": "0x4",
          "removed": false
        },
        {
          "address": "0x0000000000000000000000000000000000001010",
          "topics": [
            "0x4dfe1bbbcf077ddc3e01291eea2d5c70c2b422b415d95645b9adcfd678cb1d63",
            "0x0000000000000000000000000000000000000000000000000000000000001010",
            "0x000000000000000000000000efbbd14082cf2fbcf5badc7ee619f0f4e36d0a5b",
            "0x00000000000000000000000009207a6efee346cb3e4a54ac18523e3715d38b3f"
          ],
          "data": "0x00000000000000000000000000000000000000000000000000077e0e990fe623000000000000000000000000000000000000000000000000147a0a28d2533cba0000000000000000000000000000000000000000000003cf00b48ed19a4da16e00000000000000000000000000000000000000000000000014728c1a394356970000000000000000000000000000000000000000000003cf00bc0ce0335d8791",
          "blockHash": "0x9beaefe2101dea894298f22fdf9c47a2fd88dd4db7d53ffc038622167911d072",
          "blockNumber": "0xdf2107",
          "transactionHash": "0x6d13916cadae5c9ea65bcde32ceb8225b0da8ce7b31a2fdb006f3e37a8541728",
          "transactionIndex": "0x1",
          "logIndex": "0x5",
          "removed": false
        }
      ],
      "logsBloom": "0x00000000000000000000000000000000000000000800000000000000000000000000000000000000000000100000000000008000000000000000010000000000018020000000000000000000000000800040000000000000000100000000200000000000000800000000000000000000000000000000000080000000000200000800000000000000000000000000000000004000000000000000000000000000200000000000000000010000000000000000400000000000000000000000004000000000000000400001000000000000000000000000800000108000000000000040000000000000000000010000000000800000000000000100000000100000",
      "type": "0x2",
      "transactionHash": "0x6d13916cadae5c9ea65bcde32ceb8225b0da8ce7b31a2fdb006f3e37a8541728",
      "transactionIndex": "0x1",
      "blockHash": "0x9beaefe2101dea894298f22fdf9c47a2fd88dd4db7d53ffc038622167911d072",
      "blockNumber": "0xdf2107",
      "gasUsed": "0x6f53",
      "effectiveGasPrice": "0x113abe6400",
      "from": "0xefbbd14082cf2fbcf5badc7ee619f0f4e36d0a5b",
      "to": "0x0000000071727de22e5e9d8baf0edac6f37da032",
      "contractAddress": null
    }
  ],
  "libraries": [],
  "pending": [],
  "returns": {},
  "timestamp": 1732034523,
  "chain": 80002,
  "commit": "5073067"
}