{
  "transactions": [
    {
      "hash": "0x71a70b26108929aa1b2c64a8289ee5b02571259fb70c634e3744e961128df385",
      "transactionType": "CALL",
      "contractName": null,
      "contractAddress": "0x0000000071727de22e5e9d8baf0edac6f37da032",
      "function": "depositTo(address)",
      "arguments": [
        "0x246992c70a4AB28F88dB6683D3563CE8338aCC52"
      ],
      "transaction": {
        "from": "0xefbbd14082cf2fbcf5badc7ee619f0f4e36d0a5b",
        "to": "0x0000000071727de22e5e9d8baf0edac6f37da032",
        "gas": "0xa2cf",
        "value": "0xde0b6b3a7640000",
        "input": "0xb760faf9000000000000000000000000246992c70a4ab28f88db6683d3563ce8338acc52",
        "nonce": "0x61e",
        "chainId": "0x13882"
      },
      "additionalContracts": [],
      "isFixedGasLimit": false
    }
  ],
  "receipts": [
    {
      "status": "0x1",
      "cumulativeGasUsed": "0x6f53",
      "logs": [
        {
          "address": "0x0000000000000000000000000000000000001010",
          "topics": [
            "0xe6497e3ee548a3372136af2fcb0696db31fc6cf20260707645068bd3fe97f3c4",
            "0x0000000000000000000000000000000000000000000000000000000000001010",
            "0x000000000000000000000000efbbd14082cf2fbcf5badc7ee619f0f4e36d0a5b",
            "0x0000000000000000000000000000000071727de22e5e9d8baf0edac6f37da032"
          ],
          "data": "0x0000000000000000000000000000000000000000000000000de0b6b3a764000000000000000000000000000000000000000000000000000014799cb3a75a16970000000000000000000000000000000000000000000000584ae124c980a349760000000000000000000000000000000000000000000000000698e5fffff6169700000000000000000000000000000000000000000000005858c1db7d28074976",
          "blockHash": "0xabeda8b158a7b7928b1a5d619a29f4ff6f4e92f5c1be58e206c7c7252f260064",
          "blockNumber": "0xdf209b",
          "transactionHash": "0x71a70b26108929aa1b2c64a8289ee5b02571259fb70c634e3744e961128df385",
          "transactionIndex": "0x0",
          "logIndex": "0x0",
          "removed": false
        },
        {
          "address": "0x0000000071727de22e5e9d8baf0edac6f37da032",
          "topics": [
            "0x2da466a7b24304f47e87fa2e1e5a81b9831ce54fec19055ce277ca2f39ba42c4",
            "0x000000000000000000000000246992c70a4ab28f88db6683d3563ce8338acc52"
          ],
          "data": "0x0000000000000000000000000000000000000000000000001b7c685292a6ff28",
          "blockHash": "0xabeda8b158a7b7928b1a5d619a29f4ff6f4e92f5c1be58e206c7c7252f260064",
          "blockNumber": "0xdf209b",
          "transactionHash": "0x71a70b26108929aa1b2c64a8289ee5b02571259fb70c634e3744e961128df385",
          "transactionIndex": "0x0",
          "logIndex": "0x1",
          "removed": false
        },
        {
          "address": "0x0000000000000000000000000000000000001010",
          "topics": [
            "0x4dfe1bbbcf077ddc3e01291eea2d5c70c2b422b415d95645b9adcfd678cb1d63",
            "0x0000000000000000000000000000000000000000000000000000000000001010",
            "0x000000000000000000000000efbbd14082cf2fbcf5badc7ee619f0f4e36d0a5b",
            "0x000000000000000000000000bb583a9dde59ca64aaa14807f37a4c665c0d72c7"
          ],
          "data": "0x00000000000000000000000000000000000000000000000000077e0e990fe623000000000000000000000000000000000000000000000000148491cea294f2970000000000000000000000000000000000000000000000fecf2d9bd5ac0d2d52000000000000000000000000000000000000000000000000147d13c009850c740000000000000000000000000000000000000000000000fecf3519e4451d1375",
          "blockHash": "0xabeda8b158a7b7928b1a5d619a29f4ff6f4e92f5c1be58e206c7c7252f260064",
          "blockNumber": "0xdf209b",
          "transactionHash": "0x71a70b26108929aa1b2c64a8289ee5b02571259fb70c634e3744e961128df385",
          "transactionIndex": "0x0",
          "logIndex": "0x2",
          "removed": false
        }
      ],
      "logsBloom": "0x00000000000000000000000000000000000000000800000000000000000000000000000000000000002000100000000000008000000000000000000000000000018020000000000000000000000000800040000000000000000100000000200000000000000800000000000000000000000000000000000080000000000200000800000000000000000000000000000000000000000000000008000000000000208000000000000000010000000000000000400000000000000000000000004000000000000000400001000000000000000000000000800000108000000000000040000000000000000000000000000000800000000000000100000000100000",
      "type": "0x2",
      "transactionHash": "0x71a70b26108929aa1b2c64a8289ee5b02571259fb70c634e3744e961128df385",
      "transactionIndex": "0x0",
      "blockHash": "0xabeda8b158a7b7928b1a5d619a29f4ff6f4e92f5c1be58e206c7c7252f260064",
      "blockNumber": "0xdf209b",
      "gasUsed": "0x6f53",
      "effectiveGasPrice": "0x113abe6400",
      "from": "0xefbbd14082cf2fbcf5badc7ee619f0f4e36d0a5b",
      "to": "0x0000000071727de22e5e9d8baf0edac6f37da032",
      "contractAddress": null
    }
  ],
  "libraries": [],
  "pending": [],
  "returns": {},
  "timestamp": 1732034293,
  "chain": 80002,
  "commit": "5073067"
}