{
  "transactions": [
    {
      "hash": "0x35f29094070a1d2e6756e14c0ba172cf4a7011ef7df4629be7adf3d8a2ac1bbe",
      "transactionType": "CALL",
      "contractName": null,
      "contractAddress": "0x0000000071727de22e5e9d8baf0edac6f37da032",
      "function": "depositTo(address)",
      "arguments": [
        "0xf050beEAa89D049BBC161511CAae4BF9A725eDDa"
      ],
      "transaction": {
        "from": "0xefbbd14082cf2fbcf5badc7ee619f0f4e36d0a5b",
        "to": "0x0000000071727de22e5e9d8baf0edac6f37da032",
        "gas": "0xf606",
        "value": "0x1",
        "input": "0xb760faf9000000000000000000000000f050beeaa89d049bbc161511caae4bf9a725edda",
        "nonce": "0x610",
        "chainId": "0x13882"
      },
      "additionalContracts": [],
      "isFixedGasLimit": false
    }
  ],
  "receipts": [
    {
      "status": "0x1",
      "cumulativeGasUsed": "0xb21f",
      "logs": [
        {
          "address": "0x0000000000000000000000000000000000001010",
          "topics": [
            "0xe6497e3ee548a3372136af2fcb0696db31fc6cf20260707645068bd3fe97f3c4",
            "0x0000000000000000000000000000000000000000000000000000000000001010",
            "0x000000000000000000000000efbbd14082cf2fbcf5badc7ee619f0f4e36d0a5b",
            "0x0000000000000000000000000000000071727de22e5e9d8baf0edac6f37da032"
          ],
          "data": "0x000000000000000000000000000000000000000000000000000000000000000100000000000000000000000000000000000000000000000015fe2e4204aa909d00000000000000000000000000000000000000000000005966c90c31cb6b34e600000000000000000000000000000000000000000000000015fe2e4204aa909c00000000000000000000000000000000000000000000005966c90c31cb6b34e7",
          "blockHash": "0x548fcf02f1e0b24274af7ab7dcb71d696bcacc57f3e2c08f41ff40648fcb9c4a",
          "blockNumber": "0xdde888",
          "transactionHash": "0x35f29094070a1d2e6756e14c0ba172cf4a7011ef7df4629be7adf3d8a2ac1bbe",
          "transactionIndex": "0x0",
          "logIndex": "0x0",
          "removed": false
        },
        {
          "address": "0x0000000071727de22e5e9d8baf0edac6f37da032",
          "topics": [
            "0x2da466a7b24304f47e87fa2e1e5a81b9831ce54fec19055ce277ca2f39ba42c4",
            "0x000000000000000000000000f050beeaa89d049bbc161511caae4bf9a725edda"
          ],
          "data": "0x0000000000000000000000000000000000000000000000000000000000000001",
          "blockHash": "0x548fcf02f1e0b24274af7ab7dcb71d696bcacc57f3e2c08f41ff40648fcb9c4a",
          "blockNumber": "0xdde888",
          "transactionHash": "0x35f29094070a1d2e6756e14c0ba172cf4a7011ef7df4629be7adf3d8a2ac1bbe",
          "transactionIndex": "0x0",
          "logIndex": "0x1",
          "removed": false
        },
        {
          "address": "0x0000000000000000000000000000000000001010",
          "topics": [
            "0x4dfe1bbbcf077ddc3e01291eea2d5c70c2b422b415d95645b9adcfd678cb1d63",
            "0x0000000000000000000000000000000000000000000000000000000000001010",
            "0x000000000000000000000000efbbd14082cf2fbcf5badc7ee619f0f4e36d0a5b",
            "0x000000000000000000000000915a2284d28bd93de7d6f31173b981204bb666e6"
          ],
          "data": "0x0000000000000000000000000000000000000000000000000005d4fe670e282f00000000000000000000000000000000000000000000000016063c670b35009d0000000000000000000000000000000000000000000004f82b04504b1f6a164d00000000000000000000000000000000000000000000000016006768a426d86e0000000000000000000000000000000000000000000004f82b0a254986783e7c",
          "blockHash": "0x548fcf02f1e0b24274af7ab7dcb71d696bcacc57f3e2c08f41ff40648fcb9c4a",
          "blockNumber": "0xdde888",
          "transactionHash": "0x35f29094070a1d2e6756e14c0ba172cf4a7011ef7df4629be7adf3d8a2ac1bbe",
          "transactionIndex": "0x0",
          "logIndex": "0x2",
          "removed": false
        }
      ],
      "logsBloom": "0x00000000000000000010000000000000000000000000000000000000000000000000000000000000000000100000000000008000000000000000000000000000018000000000000000000000000000800040000000000000000100800000200000000000000800000000000000000000000000000000000080000000000200000800000000000000000000000000000000000000000000000000000000000000200000000000000000000000000000000000400000000000000000000000004000000000000000400001000000000000002002000000800000108000000000000040000000000000000000000000000000800000400000000100000080100000",
      "type": "0x2",
      "transactionHash": "0x35f29094070a1d2e6756e14c0ba172cf4a7011ef7df4629be7adf3d8a2ac1bbe",
      "transactionIndex": "0x0",
      "blockHash": "0x548fcf02f1e0b24274af7ab7dcb71d696bcacc57f3e2c08f41ff40648fcb9c4a",
      "blockNumber": "0xdde888",
      "gasUsed": "0xb21f",
      "effectiveGasPrice": "0x861c46800",
      "from": "0xefbbd14082cf2fbcf5badc7ee619f0f4e36d0a5b",
      "to": "0x0000000071727de22e5e9d8baf0edac6f37da032",
      "contractAddress": null
    }
  ],
  "libraries": [],
  "pending": [],
  "returns": {},
  "timestamp": 1731862218,
  "chain": 80002,
  "commit": "5073067"
}