{
  "transactions": [
    {
      "hash": "0xc914f97a43e283da9afbc6d152a6fce08de3c62a4444cb77747ba911d8b77d3a",
      "transactionType": "CALL",
      "contractName": null,
      "contractAddress": "0x0000000071727de22e5e9d8baf0edac6f37da032",
      "function": "depositTo(address)",
      "arguments": [
        "0x3e5b3EA46F1636fd72115431c89b3F7d094C9e98"
      ],
      "transaction": {
        "from": "0xefbbd14082cf2fbcf5badc7ee619f0f4e36d0a5b",
        "to": "0x0000000071727de22e5e9d8baf0edac6f37da032",
        "gas": "0xf606",
        "value": "0xde0b6b3a7640000",
        "input": "0xb760faf90000000000000000000000003e5b3ea46f1636fd72115431c89b3f7d094c9e98",
        "nonce": "0x61c",
        "chainId": "0x13882"
      },
      "additionalContracts": [],
      "isFixedGasLimit": false
    }
  ],
  "receipts": [
    {
      "status": "0x1",
      "cumulativeGasUsed": "0xb21f",
      "logs": [
        {
          "address": "0x0000000000000000000000000000000000001010",
          "topics": [
            "0xe6497e3ee548a3372136af2fcb0696db31fc6cf20260707645068bd3fe97f3c4",
            "0x0000000000000000000000000000000000000000000000000000000000001010",
            "0x000000000000000000000000efbbd14082cf2fbcf5badc7ee619f0f4e36d0a5b",
            "0x0000000000000000000000000000000071727de22e5e9d8baf0edac6f37da032"
          ],
          "data": "0x0000000000000000000000000000000000000000000000000de0b6b3a764000000000000000000000000000000000000000000000000000022675d0e25c6c4c0000000000000000000000000000000000000000000000058eaf4fb82e44071e70000000000000000000000000000000000000000000000001486a65a7e62c4c0000000000000000000000000000000000000000000000058f8d5b2368ba471e7",
          "blockHash": "0xea2471718eed354a214b2f0f24fcea767ac543cfd519bbe973c7fe0b98329ce5",
          "blockNumber": "0xdea037",
          "transactionHash": "0xc914f97a43e283da9afbc6d152a6fce08de3c62a4444cb77747ba911d8b77d3a",
          "transactionIndex": "0x0",
          "logIndex": "0x0",
          "removed": false
        },
        {
          "address": "0x0000000071727de22e5e9d8baf0edac6f37da032",
          "topics": [
            "0x2da466a7b24304f47e87fa2e1e5a81b9831ce54fec19055ce277ca2f39ba42c4",
            "0x0000000000000000000000003e5b3ea46f1636fd72115431c89b3f7d094c9e98"
          ],
          "data": "0x0000000000000000000000000000000000000000000000000de0b6b3a7640000",
          "blockHash": "0xea2471718eed354a214b2f0f24fcea767ac543cfd519bbe973c7fe0b98329ce5",
          "blockNumber": "0xdea037",
          "transactionHash": "0xc914f97a43e283da9afbc6d152a6fce08de3c62a4444cb77747ba911d8b77d3a",
          "transactionIndex": "0x0",
          "logIndex": "0x1",
          "removed": false
        },
        {
          "address": "0x0000000000000000000000000000000000001010",
          "topics": [
            "0x4dfe1bbbcf077ddc3e01291eea2d5c70c2b422b415d95645b9adcfd678cb1d63",
            "0x0000000000000000000000000000000000000000000000000000000000001010",
            "0x000000000000000000000000efbbd14082cf2fbcf5badc7ee619f0f4e36d0a5b",
            "0x0000000000000000000000006dc2dd54f24979ec26212794c71afefed722280c"
          ],
          "data": "0x000000000000000000000000000000000000000000000000000b688b6cb7172b00000000000000000000000000000000000000000000000022771ef42fba45d8000000000000000000000000000000000000000000000412978f662690365d62000000000000000000000000000000000000000000000000226bb668c3032ead000000000000000000000000000000000000000000000412979aceb1fced748d",
          "blockHash": "0xea2471718eed354a214b2f0f24fcea767ac543cfd519bbe973c7fe0b98329ce5",
          "blockNumber": "0xdea037",
          "transactionHash": "0xc914f97a43e283da9afbc6d152a6fce08de3c62a4444cb77747ba911d8b77d3a",
          "transactionIndex": "0x0",
          "logIndex": "0x2",
          "removed": false
        }
      ],
      "logsBloom": "0x00000000000000000000000000000000000000000000000000000000000000000000000000000000000000100000000000008000002000000000000000000000018000000000000000000000000000800040000000000000000100080000200000000000000800000000000000000000000000000000000080000000000200020800000000000000000000000040000000000000000000000000000000800000200000000000000000000000000000000000400000000000000000800000004000000000000000400001000000000000000000000000800000108000000000000040000000000000000000000000000000800000000000000100000000100000",
      "type": "0x2",
      "transactionHash": "0xc914f97a43e283da9afbc6d152a6fce08de3c62a4444cb77747ba911d8b77d3a",
      "transactionIndex": "0x0",
      "blockHash": "0xea2471718eed354a214b2f0f24fcea767ac543cfd519bbe973c7fe0b98329ce5",
      "blockNumber": "0xdea037",
      "gasUsed": "0xb21f",
      "effectiveGasPrice": "0x10657a7184",
      "from": "0xefbbd14082cf2fbcf5badc7ee619f0f4e36d0a5b",
      "to": "0x0000000071727de22e5e9d8baf0edac6f37da032",
      "contractAddress": null
    }
  ],
  "libraries": [],
  "pending": [],
  "returns": {},
  "timestamp": 1731963291,
  "chain": 80002,
  "commit": "5073067"
}