{
  "transactions": [
    {
      "hash": "0x0cb84af21ced1a7a0ecc50e39c1ec3924891e5e2d70fa214d65f5ece71dc4732",
      "transactionType": "CALL",
      "contractName": null,
      "contractAddress": "0x0000000071727de22e5e9d8baf0edac6f37da032",
      "function": "depositTo(address)",
      "arguments": [
        "0x246992c70a4AB28F88dB6683D3563CE8338aCC52"
      ],
      "transaction": {
        "from": "0xefbbd14082cf2fbcf5badc7ee619f0f4e36d0a5b",
        "to": "0x0000000071727de22e5e9d8baf0edac6f37da032",
        "gas": "0xa2cf",
        "value": "0xde0b6b3a7640000",
        "input": "0xb760faf9000000000000000000000000246992c70a4ab28f88db6683d3563ce8338acc52",
        "nonce": "0x61f",
        "chainId": "0x13882"
      },
      "additionalContracts": [],
      "isFixedGasLimit": false
    }
  ],
  "receipts": [
    {
      "status": "0x1",
      "cumulativeGasUsed": "0x6f53",
      "logs": [
        {
          "address": "0x0000000000000000000000000000000000001010",
          "topics": [
            "0xe6497e3ee548a3372136af2fcb0696db31fc6cf20260707645068bd3fe97f3c4",
            "0x0000000000000000000000000000000000000000000000000000000000001010",
            "0x000000000000000000000000efbbd14082cf2fbcf5badc7ee619f0f4e36d0a5b",
            "0x0000000000000000000000000000000071727de22e5e9d8baf0edac6f37da032"
          ],
          "data": "0x0000000000000000000000000000000000000000000000000de0b6b3a76400000000000000000000000000000000000000000000000000001478a28b95c4e8760000000000000000000000000000000000000000000000585840d3eff678e88a0000000000000000000000000000000000000000000000000697ebd7ee60e87600000000000000000000000000000000000000000000005866218aa39ddce88a",
          "blockHash": "0x64323015ec9f5da04038e34d3af3c7620e2d79b09ffb78b0ed6554a9bfb4a28f",
          "blockNumber": "0xdf20ca",
          "transactionHash": "0x0cb84af21ced1a7a0ecc50e39c1ec3924891e5e2d70fa214d65f5ece71dc4732",
          "transactionIndex": "0x0",
          "logIndex": "0x0",
          "removed": false
        },
        {
          "address": "0x0000000071727de22e5e9d8baf0edac6f37da032",
          "topics": [
            "0x2da466a7b24304f47e87fa2e1e5a81b9831ce54fec19055ce277ca2f39ba42c4",
            "0x000000000000000000000000246992c70a4ab28f88db6683d3563ce8338acc52"
          ],
          "data": "0x000000000000000000000000000000000000000000000000295d1f063a0aff28",
          "blockHash": "0x64323015ec9f5da04038e34d3af3c7620e2d79b09ffb78b0ed6554a9bfb4a28f",
          "blockNumber": "0xdf20ca",
          "transactionHash": "0x0cb84af21ced1a7a0ecc50e39c1ec3924891e5e2d70fa214d65f5ece71dc4732",
          "transactionIndex": "0x0",
          "logIndex": "0x1",
          "removed": false
        },
        {
          "address": "0x0000000000000000000000000000000000001010",
          "topics": [
            "0x4dfe1bbbcf077ddc3e01291eea2d5c70c2b422b415d95645b9adcfd678cb1d63",
            "0x0000000000000000000000000000000000000000000000000000000000001010",
            "0x000000000000000000000000efbbd14082cf2fbcf5badc7ee619f0f4e36d0a5b",
            "0x0000000000000000000000006ab3d36c46ecfb9b9c0bd51cb1c3da5a2c81cea6"
          ],
          "data": "0x000000000000000000000000000000000000000000000000000309973724c400000000000000000000000000000000000000000000000000147d13c0097e86970000000000000000000000000000000000000000000003ad4452cbbbc1955b61000000000000000000000000000000000000000000000000147a0a28d259c2970000000000000000000000000000000000000000000003ad4455d552f8ba1f61",
          "blockHash": "0x64323015ec9f5da04038e34d3af3c7620e2d79b09ffb78b0ed6554a9bfb4a28f",
          "blockNumber": "0xdf20ca",
          "transactionHash": "0x0cb84af21ced1a7a0ecc50e39c1ec3924891e5e2d70fa214d65f5ece71dc4732",
          "transactionIndex": "0x0",
          "logIndex": "0x2",
          "removed": false
        }
      ],
      "logsBloom": "0x00000000080000000000000000000000000000000800000000000000000000000000000000000000000000100000000000008000000000000000000000000000018020080000000000000000000000800040000000000000000100000000200000000000000800000000000000000000000000000000000080000000000200000800000000000000000000000000000000000000000000000000000000000000200000000000000000010000000000000000400000000000000000000000004000000000000000400001000000000000000000010000800000108000000000000040000000000000000000000000000000800000000000000100000000100000",
      "type": "0x2",
      "transactionHash": "0x0cb84af21ced1a7a0ecc50e39c1ec3924891e5e2d70fa214d65f5ece71dc4732",
      "transactionIndex": "0x0",
      "blockHash": "0x64323015ec9f5da04038e34d3af3c7620e2d79b09ffb78b0ed6554a9bfb4a28f",
      "blockNumber": "0xdf20ca",
      "gasUsed": "0x6f53",
      "effectiveGasPrice": "0x6fc23ac0f",
      "from": "0xefbbd14082cf2fbcf5badc7ee619f0f4e36d0a5b",
      "to": "0x0000000071727de22e5e9d8baf0edac6f37da032",
      "contractAddress": null
    }
  ],
  "libraries": [],
  "pending": [],
  "returns": {},
  "timestamp": 1732034394,
  "chain": 80002,
  "commit": "5073067"
}