{
  "transactions": [
    {
      "hash": "0xf0a3fae849b68f600259fe58979fe280aa8c4075f6ee8b0028d127b1aed59f79",
      "transactionType": "CREATE",
      "contractName": "CampaignRegistry",
      "contractAddress": "0xabc9cbd23a6e9bec3ffa2f1f01559d9729fe3bc3",
      "function": null,
      "arguments": null,
      "transaction": {
        "from": "0xefbbd14082cf2fbcf5badc7ee619f0f4e36d0a5b",
        "gas": "0x1877e3",
        "value": "0x0",
        "input": "0x60a080604052346029573060805261158a908161002e823960805181818161026701526108f30152f35b5f80fdfe60806040526004361015610011575f80fd5b5f3560e01c80634f1ef2861461009457806352d1902d1461008f5780637a9e5e4b1461008a5780638fb3603714610085578063ad3cb1cc14610080578063b87e1a0c1461007b578063bf7e214f146100765763c4d66de814610071575f80fd5b610663565b6105f3565b610544565b6104cb565b6103d2565b6102df565b610222565b60407ffffffffffffffffffffffffffffffffffffffffffffffffffffffffffffffffc36011261012b576100c661012f565b6024359067ffffffffffffffff821161012b573660238301121561012b578160040135906100f3826101e8565b9161010160405193846101a2565b808352366024828601011161012b576020815f926024610129970183870137840101526108db565b005b5f80fd5b6004359073ffffffffffffffffffffffffffffffffffffffff8216820361012b57565b6024359073ffffffffffffffffffffffffffffffffffffffff8216820361012b57565b7f4e487b71000000000000000000000000000000000000000000000000000000005f52604160045260245ffd5b90601f7fffffffffffffffffffffffffffffffffffffffffffffffffffffffffffffffe0910116810190811067ffffffffffffffff8211176101e357604052565b610175565b67ffffffffffffffff81116101e357601f017fffffffffffffffffffffffffffffffffffffffffffffffffffffffffffffffe01660200190565b3461012b575f7ffffffffffffffffffffffffffffffffffffffffffffffffffffffffffffffffc36011261012b5773ffffffffffffffffffffffffffffffffffffffff7f00000000000000000000000000000000000000000000000000000000000000001630036102b75760206040517f360894a13ba1a3210667c828492db98dca3e2076cc3735a920a3ca505d382bbc8152f35b7fe07c8dba000000000000000000000000000000000000000000000000000000005f5260045ffd5b3461012b5760207ffffffffffffffffffffffffffffffffffffffffffffffffffffffffffffffffc36011261012b5761031661012f565b73ffffffffffffffffffffffffffffffffffffffff7ff3177357ab46d8af007ab3fdb9af81da189e1068fefdc0073dca88a2cab40a00541633036103a657803b156103645761012990610f12565b73ffffffffffffffffffffffffffffffffffffffff907fc2f31e5e000000000000000000000000000000000000000000000000000000005f521660045260245ffd5b7f068ca9d8000000000000000000000000000000000000000000000000000000005f523360045260245ffd5b3461012b575f7ffffffffffffffffffffffffffffffffffffffffffffffffffffffffffffffffc36011261012b577ff3177357ab46d8af007ab3fdb9af81da189e1068fefdc0073dca88a2cab40a005460a01c60ff161561047b5760207f8fb36037000000000000000000000000000000000000000000000000000000005b7fffffffff0000000000000000000000000000000000000000000000000000000060405191168152f35b60205f610451565b7fffffffffffffffffffffffffffffffffffffffffffffffffffffffffffffffe0601f602060409481855280519182918282880152018686015e5f8582860101520116010190565b3461012b575f7ffffffffffffffffffffffffffffffffffffffffffffffffffffffffffffffffc36011261012b5761054060405161050a6040826101a2565b600581527f352e302e30000000000000000000000000000000000000000000000000000000602082015260405191829182610483565b0390f35b3461012b5760607ffffffffffffffffffffffffffffffffffffffffffffffffffffffffffffffffc36011261012b5761057b610152565b60443567ffffffffffffffff811161012b573660238201121561012b57806004013567ffffffffffffffff811161012b57366024828401011161012b576105409260246105cc930190600435610ad2565b60405173ffffffffffffffffffffffffffffffffffffffff90911681529081906020820190565b3461012b575f7ffffffffffffffffffffffffffffffffffffffffffffffffffffffffffffffffc36011261012b57602073ffffffffffffffffffffffffffffffffffffffff7ff3177357ab46d8af007ab3fdb9af81da189e1068fefdc0073dca88a2cab40a005416604051908152f35b3461012b5760207ffffffffffffffffffffffffffffffffffffffffffffffffffffffffffffffffc36011261012b5761069a61012f565b7ff0c57e16840df040f15088dc2f81fe391c3923bec73e23a9662efc9c229c6a00549067ffffffffffffffff6106e060ff604085901c16159367ffffffffffffffff1690565b16801590816108d3575b60011490816108c9575b1590816108c0575b506108985761077d908261077460017fffffffffffffffffffffffffffffffffffffffffffffffff00000000000000007ff0c57e16840df040f15088dc2f81fe391c3923bec73e23a9662efc9c229c6a005416177ff0c57e16840df040f15088dc2f81fe391c3923bec73e23a9662efc9c229c6a0055565b61081d57610cc6565b61078357005b6107ee7fffffffffffffffffffffffffffffffffffffffffffffff00ffffffffffffffff7ff0c57e16840df040f15088dc2f81fe391c3923bec73e23a9662efc9c229c6a0054167ff0c57e16840df040f15088dc2f81fe391c3923bec73e23a9662efc9c229c6a0055565b604051600181527fc7f505b2f371ae2175ee4913f4499e1f2633a7b5936321eed1cdaeb6115181d290602090a1005b610893680100000000000000007fffffffffffffffffffffffffffffffffffffffffffffff00ffffffffffffffff7ff0c57e16840df040f15088dc2f81fe391c3923bec73e23a9662efc9c229c6a005416177ff0c57e16840df040f15088dc2f81fe391c3923bec73e23a9662efc9c229c6a0055565b610cc6565b7ff92ee8a9000000000000000000000000000000000000000000000000000000005f5260045ffd5b9050155f6106fc565b303b1591506106f4565b8391506106ea565b9073ffffffffffffffffffffffffffffffffffffffff7f000000000000000000000000000000000000000000000000000000000000000016803014908115610a90575b506102b7576044604073ffffffffffffffffffffffffffffffffffffffff7fb8e950798a2a06a6f5727a94041b193569f4f67d69a0de3cf866d93822e7fa0054168151928380927fd1f856ee0000000000000000000000000000000000000000000000000000000082525f60048301523360248301525afa908115610a8b576109b5915f915f91610a5a575b5081610a4d57501590565b6109c4576109c291610de6565b565b6040517f6317e35f00000000000000000000000000000000000000000000000000000000815260206004820152602360248201527f4f6e6c792061646d696e2063616e20706572666f726d2074686973206163746960448201527f6f6e2e00000000000000000000000000000000000000000000000000000000006064820152608490fd5b0390fd5b63ffffffff915016151590565b9050610a7e915060403d604011610a84575b610a7681836101a2565b81019061108b565b5f6109aa565b503d610a6c565b610ddb565b905073ffffffffffffffffffffffffffffffffffffffff7f360894a13ba1a3210667c828492db98dca3e2076cc3735a920a3ca505d382bbc541614155f61091e565b90929192610adf816111e9565b80610c71575b80610c62575b15610c20576e5af43d82803e903d91602b57fd5bf360405160208101903360601b82527fffffffffffffffffffffffffffffffffffffffff0000000000000000000000008460601b16603482015284604882015260488152610b4e6068826101a2565b51902091763d602d80600a3d3981f3363d3d373d3d3d363d7300000062ffffff8260881c16175f5260781b17602052603760095ff59073ffffffffffffffffffffffffffffffffffffffff821615610bf857610ba991610fec565b917f090309df4081387828cc4bf6aea90aadeace7c2d158bdcd4d37ddeae4a3ad81160405180610bf273ffffffffffffffffffffffffffffffffffffffff871695339583610c81565b0390a390565b7fb06ebf3d000000000000000000000000000000000000000000000000000000005f5260045ffd5b73ffffffffffffffffffffffffffffffffffffffff907f31cfaed1000000000000000000000000000000000000000000000000000000005f521660045260245ffd5b50610c6c816112db565b610aeb565b50610c7b81611278565b15610ae5565b90601f836040947fffffffffffffffffffffffffffffffffffffffffffffffffffffffffffffffe09360208652816020870152868601375f8582860101520116010190565b73ffffffffffffffffffffffffffffffffffffffff90610ce4611444565b610cec611444565b610cf4611444565b610cfc611444565b610d0581610f12565b610d0d611444565b168015610d7d577fffffffffffffffffffffffff00000000000000000000000000000000000000007fb8e950798a2a06a6f5727a94041b193569f4f67d69a0de3cf866d93822e7fa005416177fb8e950798a2a06a6f5727a94041b193569f4f67d69a0de3cf866d93822e7fa0055565b60646040517f6317e35f00000000000000000000000000000000000000000000000000000000815260206004820152601a60248201527f496e76616c696420617574686f7269747920616464726573732e0000000000006044820152fd5b6040513d5f823e3d90fd5b9091604051927f52d1902d00000000000000000000000000000000000000000000000000000000845260208460048173ffffffffffffffffffffffffffffffffffffffff87165afa5f9481610ede575b50610e7d577f4c9c8ce3000000000000000000000000000000000000000000000000000000005f5273ffffffffffffffffffffffffffffffffffffffff831660045260245ffd5b90917f360894a13ba1a3210667c828492db98dca3e2076cc3735a920a3ca505d382bbc8403610eb1576109c29293506110b8565b7faa1d49a4000000000000000000000000000000000000000000000000000000005f52600484905260245ffd5b9094506020813d602011610f0a575b81610efa602093836101a2565b8101031261012b5751935f610e36565b3d9150610eed565b602073ffffffffffffffffffffffffffffffffffffffff7f2f658b440c35314f52658ea8a740e05b284cdc84dc9ae01e891f21b8933e7cad9216807fffffffffffffffffffffffff00000000000000000000000000000000000000007ff3177357ab46d8af007ab3fdb9af81da189e1068fefdc0073dca88a2cab40a005416177ff3177357ab46d8af007ab3fdb9af81da189e1068fefdc0073dca88a2cab40a0055604051908152a1565b3d15610fe7573d90610fce826101e8565b91610fdc60405193846101a2565b82523d5f602084013e565b606090565b905f809160405160208101917fcd6dc6870000000000000000000000000000000000000000000000000000000083523360248301526044820152604481526110356064826101a2565b519082855af161104b611046610fbd565b61133e565b9015611055575090565b610a49906040519182917f08c379a000000000000000000000000000000000000000000000000000000000835260048301610483565b919082604091031261012b578151801515810361012b5760209092015163ffffffff8116810361012b5790565b90813b156111a75773ffffffffffffffffffffffffffffffffffffffff8216807fffffffffffffffffffffffff00000000000000000000000000000000000000007f360894a13ba1a3210667c828492db98dca3e2076cc3735a920a3ca505d382bbc5416177f360894a13ba1a3210667c828492db98dca3e2076cc3735a920a3ca505d382bbc557fbc7cd75a20ee27fd9adebab32041f755214dbc6bffa90cc0225b39da2e5c2d3b5f80a2805115611176576111739161149b565b50565b50503461117f57565b7fb398979f000000000000000000000000000000000000000000000000000000005f5260045ffd5b73ffffffffffffffffffffffffffffffffffffffff827f4c9c8ce3000000000000000000000000000000000000000000000000000000005f521660045260245ffd5b5f602091604051838101907f01ffc9a70000000000000000000000000000000000000000000000000000000082527f01ffc9a70000000000000000000000000000000000000000000000000000000060248201526024815261124c6044826101a2565b5191617530fa5f513d8261126c575b5081611265575090565b9050151590565b6020111591505f61125b565b5f602091604051838101907f01ffc9a70000000000000000000000000000000000000000000000000000000082527fffffffff0000000000000000000000000000000000000000000000000000000060248201526024815261124c6044826101a2565b5f602091604051838101907f01ffc9a70000000000000000000000000000000000000000000000000000000082527f314f951f0000000000000000000000000000000000000000000000000000000060248201526024815261124c6044826101a2565b60448151106113e257600481015181019060207ffffffffffffffffffffffffffffffffffffffffffffffffffffffffffffffffc60048360248601950301011261012b5760248101519067ffffffffffffffff821161012b57018160438201121561012b576024810151906113b2826101e8565b926113c060405194856101a2565b8284526044828401011161012b57815f926044602093018386015e8301015290565b506040516113f16060826101a2565b602681527f5472616e73616374696f6e20726576657274656420776974686f75742061206d60208201527f6573736167650000000000000000000000000000000000000000000000000000604082015290565b60ff7ff0c57e16840df040f15088dc2f81fe391c3923bec73e23a9662efc9c229c6a005460401c161561147357565b7fd7e6bcf8000000000000000000000000000000000000000000000000000000005f5260045ffd5b5f806114b893602081519101845af46114b2610fbd565b916114bb565b90565b906114f857508051156114d057805190602001fd5b7fd6bda275000000000000000000000000000000000000000000000000000000005f5260045ffd5b8151158061154b575b611509575090565b73ffffffffffffffffffffffffffffffffffffffff907f9996b315000000000000000000000000000000000000000000000000000000005f521660045260245ffd5b50803b1561150156fea264697066735822122016c3c4981ec41d2a058b26aa76ccb86ff0d237f85d69431d70074026f184ba2464736f6c634300081a0033",
        "nonce": "0xb19",
        "chainId": "0x13882"
      },
      "additionalContracts": [],
      "isFixedGasLimit": false
    },
    {
      "hash": "0x839448f12628af1145a4d7106f3ace017943f66d877b0dc589ab5a7a88e23f55",
      "transactionType": "CALL",
      "contractName": null,
      "contractAddress": "0x5662b328bb0403e3eacd702e352972ba93dad026",
      "function": "deploy(bytes32,bytes)",
      "arguments": [
        "0x33f51d182ad7fbe68ffef286665370d8097d93dacd47a0d2e50f51d41662aca1",
        "0x60806040526102a88038038061001481610168565b92833981016040828203126101645781516001600160a01b03811692909190838303610164576020810151906001600160401b03821161016457019281601f8501121561016457835161006e610069826101a1565b610168565b9481865260208601936020838301011161016457815f926020809301865e86010152823b15610152577f360894a13ba1a3210667c828492db98dca3e2076cc3735a920a3ca505d382bbc80546001600160a01b031916821790557fbc7cd75a20ee27fd9adebab32041f755214dbc6bffa90cc0225b39da2e5c2d3b5f80a282511561013a575f8091610122945190845af43d15610132573d91610113610069846101a1565b9283523d5f602085013e6101bc565b505b604051608d908161021b8239f35b6060916101bc565b50505034156101245763b398979f60e01b5f5260045ffd5b634c9c8ce360e01b5f5260045260245ffd5b5f80fd5b6040519190601f01601f191682016001600160401b0381118382101761018d57604052565b634e487b7160e01b5f52604160045260245ffd5b6001600160401b03811161018d57601f01601f191660200190565b906101e057508051156101d157805190602001fd5b63d6bda27560e01b5f5260045ffd5b81511580610211575b6101f1575090565b639996b31560e01b5f9081526001600160a01b0391909116600452602490fd5b50803b156101e956fe60806040525f8073ffffffffffffffffffffffffffffffffffffffff7f360894a13ba1a3210667c828492db98dca3e2076cc3735a920a3ca505d382bbc5416368280378136915af43d5f803e156053573d5ff35b3d5ffdfea2646970667358221220844be913eb69a48c87a2ecb5cff17505b625c25705cd5dfc8ef3a58b54bc9cb464736f6c634300081a0033000000000000000000000000abc9cbd23a6e9bec3ffa2f1f01559d9729fe3bc300000000000000000000000000000000000000000000000000000000000000400000000000000000000000000000000000000000000000000000000000000024c4d66de80000000000000000000000008120a8e0688be6b2c0bb469f871e5e7023ca85eb00000000000000000000000000000000000000000000000000000000"
      ],
      "transaction": {
        "from": "0xefbbd14082cf2fbcf5badc7ee619f0f4e36d0a5b",
        "to": "0x5662b328bb0403e3eacd702e352972ba93dad026",
        "gas": "0x4c548",
        "value": "0x0",
        "input": "0xcdcb760a33f51d182ad7fbe68ffef286665370d8097d93dacd47a0d2e50f51d41662aca10000000000000000000000000000000000000000000000000000000000000040000000000000000000000000000000000000000000000000000000000000034860806040526102a88038038061001481610168565b92833981016040828203126101645781516001600160a01b03811692909190838303610164576020810151906001600160401b03821161016457019281601f8501121561016457835161006e610069826101a1565b610168565b9481865260208601936020838301011161016457815f926020809301865e86010152823b15610152577f360894a13ba1a3210667c828492db98dca3e2076cc3735a920a3ca505d382bbc80546001600160a01b031916821790557fbc7cd75a20ee27fd9adebab32041f755214dbc6bffa90cc0225b39da2e5c2d3b5f80a282511561013a575f8091610122945190845af43d15610132573d91610113610069846101a1565b9283523d5f602085013e6101bc565b505b604051608d908161021b8239f35b6060916101bc565b50505034156101245763b398979f60e01b5f5260045ffd5b634c9c8ce360e01b5f5260045260245ffd5b5f80fd5b6040519190601f01601f191682016001600160401b0381118382101761018d57604052565b634e487b7160e01b5f52604160045260245ffd5b6001600160401b03811161018d57601f01601f191660200190565b906101e057508051156101d157805190602001fd5b63d6bda27560e01b5f5260045ffd5b81511580610211575b6101f1575090565b639996b31560e01b5f9081526001600160a01b0391909116600452602490fd5b50803b156101e956fe60806040525f8073ffffffffffffffffffffffffffffffffffffffff7f360894a13ba1a3210667c828492db98dca3e2076cc3735a920a3ca505d382bbc5416368280378136915af43d5f803e156053573d5ff35b3d5ffdfea2646970667358221220844be913eb69a48c87a2ecb5cff17505b625c25705cd5dfc8ef3a58b54bc9cb464736f6c634300081a0033000000000000000000000000abc9cbd23a6e9bec3ffa2f1f01559d9729fe3bc300000000000000000000000000000000000000000000000000000000000000400000000000000000000000000000000000000000000000000000000000000024c4d66de80000000000000000000000008120a8e0688be6b2c0bb469f871e5e7023ca85eb00000000000000000000000000000000000000000000000000000000000000000000000000000000000000000000000000000000",
        "nonce": "0xb1a",
        "chainId": "0x13882"
      },
      "additionalContracts": [
        {
          "transactionType": "CREATE2",
          "address": "0xa501bea901012bdb10e2429c182f1f34ae0cdf60",
          "initCode": "0x67363d3d37363d34f03d5260086018f3"
        },
        {
          "transactionType": "CREATE",
          "address": "0x138ba0d2582baa1d65f41b8e8be5db7cdd342e05",
          "initCode": "0x60806040526102a88038038061001481610168565b92833981016040828203126101645781516001600160a01b03811692909190838303610164576020810151906001600160401b03821161016457019281601f8501121561016457835161006e610069826101a1565b610168565b9481865260208601936020838301011161016457815f926020809301865e86010152823b15610152577f360894a13ba1a3210667c828492db98dca3e2076cc3735a920a3ca505d382bbc80546001600160a01b031916821790557fbc7cd75a20ee27fd9adebab32041f755214dbc6bffa90cc0225b39da2e5c2d3b5f80a282511561013a575f8091610122945190845af43d15610132573d91610113610069846101a1565b9283523d5f602085013e6101bc565b505b604051608d908161021b8239f35b6060916101bc565b50505034156101245763b398979f60e01b5f5260045ffd5b634c9c8ce360e01b5f5260045260245ffd5b5f80fd5b6040519190601f01601f191682016001600160401b0381118382101761018d57604052565b634e487b7160e01b5f52604160045260245ffd5b6001600160401b03811161018d57601f01601f191660200190565b906101e057508051156101d157805190602001fd5b63d6bda27560e01b5f5260045ffd5b81511580610211575b6101f1575090565b639996b31560e01b5f9081526001600160a01b0391909116600452602490fd5b50803b156101e956fe60806040525f8073ffffffffffffffffffffffffffffffffffffffff7f360894a13ba1a3210667c828492db98dca3e2076cc3735a920a3ca505d382bbc5416368280378136915af43d5f803e156053573d5ff35b3d5ffdfea2646970667358221220844be913eb69a48c87a2ecb5cff17505b625c25705cd5dfc8ef3a58b54bc9cb464736f6c634300081a0033000000000000000000000000abc9cbd23a6e9bec3ffa2f1f01559d9729fe3bc300000000000000000000000000000000000000000000000000000000000000400000000000000000000000000000000000000000000000000000000000000024c4d66de80000000000000000000000008120a8e0688be6b2c0bb469f871e5e7023ca85eb00000000000000000000000000000000000000000000000000000000"
        }
      ],
      "isFixedGasLimit": false
    },
    {
      "hash": "0x2289fc5f9a766837bfb83872820b22696049b47fdc1ca8043f103d56a695230c",
      "transactionType": "CALL",
      "contractName": "ERC1967Proxy",
      "contractAddress": "0x138ba0d2582baa1d65f41b8e8be5db7cdd342e05",
      "function": null,
      "arguments": null,
      "transaction": {
        "from": "0xefbbd14082cf2fbcf5badc7ee619f0f4e36d0a5b",
        "to": "0x138ba0d2582baa1d65f41b8e8be5db7cdd342e05",
        "gas": "0x34e34",
        "value": "0x0",
        "input": "0xb87e1a0c0000000000000000000000000000000000000000000000000000000000000e10000000000000000000000000d39a612b9de73600039ec57e383582b36071fab90000000000000000000000000000000000000000000000000000000000000060000000000000000000000000000000000000000000000000000000000000000a486f6c61206d756e646f00000000000000000000000000000000000000000000",
        "nonce": "0xb1b",
        "chainId": "0x13882"
      },
      "additionalContracts": [
        {
          "transactionType": "CREATE2",
          "address": "0xa33c3dc6100d28e0578e035e60dd5c3c72a607c9",
          "initCode": "0x3d602d80600a3d3981f3363d3d373d3d3d363d73d39a612b9de73600039ec57e383582b36071fab95af43d82803e903d91602b57fd5bf3"
        }
      ],
      "isFixedGasLimit": false
    }
  ],
  "receipts": [
    {
      "status": "0x1",
      "cumulativeGasUsed": "0x12d260",
      "logs": [
        {
          "address": "0x0000000000000000000000000000000000001010",
          "topics": [
            "0x4dfe1bbbcf077ddc3e01291eea2d5c70c2b422b415d95645b9adcfd678cb1d63",
            "0x0000000000000000000000000000000000000000000000000000000000001010",
            "0x000000000000000000000000efbbd14082cf2fbcf5badc7ee619f0f4e36d0a5b",
            "0x00000000000000000000000093feed2cc3d58c2b1bb62ce63125fa7fcaae7177"
          ],
          "data": "0x00000000000000000000000000000000000000000000000000965ad4c303df000000000000000000000000000000000000000000000000009e91717511e7e0af000000000000000000000000000000000000000000000080d03fe107a02f76a90000000000000000000000000000000000000000000000009dfb16a04ee401af000000000000000000000000000000000000000000000080d0d63bdc633355a9",
          "blockHash": "0xa8bba144068fdb08c96b684d2aa9f1d19e518f093c6f4ac68b73511b17c87de9",
          "blockNumber": "0x112c714",
          "transactionHash": "0xf0a3fae849b68f600259fe58979fe280aa8c4075f6ee8b0028d127b1aed59f79",
          "transactionIndex": "0x0",
          "logIndex": "0x0",
          "removed": false
        }
      ],
      "logsBloom": "0x00000000000000000000000000000000000000000000000000000000000000000000000000000000000000000000000000008000000000000000000000000000008000000000000004000000000000800000000000000000000100000000000000000000000000000000000000000000000000000000000080000000000000000800000000000000000000000000000000000000000000000000040000000000200000000400000000000000000000000000400000000000000000000000004000000000000000000001000000000000000000000000000000100000000000000000000000000000000000000000000000000000000000000000000000100000",
      "type": "0x2",
      "transactionHash": "0xf0a3fae849b68f600259fe58979fe280aa8c4075f6ee8b0028d127b1aed59f79",
      "transactionIndex": "0x0",
      "blockHash": "0xa8bba144068fdb08c96b684d2aa9f1d19e518f093c6f4ac68b73511b17c87de9",
      "blockNumber": "0x112c714",
      "gasUsed": "0x12d260",
      "effectiveGasPrice": "0x7fd040837",
      "from": "0xefbbd14082cf2fbcf5badc7ee619f0f4e36d0a5b",
      "to": null,
      "contractAddress": "0xabc9cbd23a6e9bec3ffa2f1f01559d9729fe3bc3"
    },
    {
      "status": "0x1",
      "cumulativeGasUsed": "0x164690",
      "logs": [
        {
          "address": "0x138ba0d2582baa1d65f41b8e8be5db7cdd342e05",
          "topics": [
            "0xbc7cd75a20ee27fd9adebab32041f755214dbc6bffa90cc0225b39da2e5c2d3b",
            "0x000000000000000000000000abc9cbd23a6e9bec3ffa2f1f01559d9729fe3bc3"
          ],
          "data": "0x",
          "blockHash": "0xa8bba144068fdb08c96b684d2aa9f1d19e518f093c6f4ac68b73511b17c87de9",
          "blockNumber": "0x112c714",
          "transactionHash": "0x839448f12628af1145a4d7106f3ace017943f66d877b0dc589ab5a7a88e23f55",
          "transactionIndex": "0x1",
          "logIndex": "0x1",
          "removed": false
        },
        {
          "address": "0x138ba0d2582baa1d65f41b8e8be5db7cdd342e05",
          "topics": [
            "0x2f658b440c35314f52658ea8a740e05b284cdc84dc9ae01e891f21b8933e7cad"
          ],
          "data": "0x0000000000000000000000008120a8e0688be6b2c0bb469f871e5e7023ca85eb",
          "blockHash": "0xa8bba144068fdb08c96b684d2aa9f1d19e518f093c6f4ac68b73511b17c87de9",
          "blockNumber": "0x112c714",
          "transactionHash": "0x839448f12628af1145a4d7106f3ace017943f66d877b0dc589ab5a7a88e23f55",
          "transactionIndex": "0x1",
          "logIndex": "0x2",
          "removed": false
        },
        {
          "address": "0x138ba0d2582baa1d65f41b8e8be5db7cdd342e05",
          "topics": [
            "0xc7f505b2f371ae2175ee4913f4499e1f2633a7b5936321eed1cdaeb6115181d2"
          ],
          "data": "0x0000000000000000000000000000000000000000000000000000000000000001",
          "blockHash": "0xa8bba144068fdb08c96b684d2aa9f1d19e518f093c6f4ac68b73511b17c87de9",
          "blockNumber": "0x112c714",
          "transactionHash": "0x839448f12628af1145a4d7106f3ace017943f66d877b0dc589ab5a7a88e23f55",
          "transactionIndex": "0x1",
          "logIndex": "0x3",
          "removed": false
        },
        {
          "address": "0x0000000000000000000000000000000000001010",
          "topics": [
            "0x4dfe1bbbcf077ddc3e01291eea2d5c70c2b422b415d95645b9adcfd678cb1d63",
            "0x0000000000000000000000000000000000000000000000000000000000001010",
            "0x000000000000000000000000efbbd14082cf2fbcf5badc7ee619f0f4e36d0a5b",
            "0x00000000000000000000000093feed2cc3d58c2b1bb62ce63125fa7fcaae7177"
          ],
          "data": "0x000000000000000000000000000000000000000000000000001b97315ceba7800000000000000000000000000000000000000000000000009dfb16a04dc9ae0f000000000000000000000000000000000000000000000080d0d63bdc633355a90000000000000000000000000000000000000000000000009ddf7f6ef0de068f000000000000000000000000000000000000000000000080d0f1d30dc01efd29",
          "blockHash": "0xa8bba144068fdb08c96b684d2aa9f1d19e518f093c6f4ac68b73511b17c87de9",
          "blockNumber": "0x112c714",
          "transactionHash": "0x839448f12628af1145a4d7106f3ace017943f66d877b0dc589ab5a7a88e23f55",
          "transactionIndex": "0x1",
          "logIndex": "0x4",
          "removed": false
        }
      ],
      "logsBloom": "0x00000000000000000000000000000000400000010000000000000000000000000000000000000000000000000000000000008000000000000000000000000000008000000000000004000000000002800000000000000000000100000000000000000000000000008000000000000000000000000000000080000000000000000800000000000000000800000000000008000000000080000000040000000000200000000400000000000000000000000000400000000800000000000000006000000020000000000001100000000000000000000004000000100000000000000000008000000000000008000000000000000000000000000000000000100000",
      "type": "0x2",
      "transactionHash": "0x839448f12628af1145a4d7106f3ace017943f66d877b0dc589ab5a7a88e23f55",
      "transactionIndex": "0x1",
      "blockHash": "0xa8bba144068fdb08c96b684d2aa9f1d19e518f093c6f4ac68b73511b17c87de9",
      "blockNumber": "0x112c714",
      "gasUsed": "0x37430",
      "effectiveGasPrice": "0x7fd040837",
      "from": "0xefbbd14082cf2fbcf5badc7ee619f0f4e36d0a5b",
      "to": "0x5662b328bb0403e3eacd702e352972ba93dad026",
      "contractAddress": null
    },
    {
      "status": "0x1",
      "cumulativeGasUsed": "0x18892a",
      "logs": [
        {
          "address": "0xa33c3dc6100d28e0578e035e60dd5c3c72a607c9",
          "topics": [
            "0x8be0079c531659141344cd1fd0a4f28419497f9722a3daafe3b4186f6b6457e0",
            "0x0000000000000000000000000000000000000000000000000000000000000000",
            "0x000000000000000000000000efbbd14082cf2fbcf5badc7ee619f0f4e36d0a5b"
          ],
          "data": "0x",
          "blockHash": "0xa8bba144068fdb08c96b684d2aa9f1d19e518f093c6f4ac68b73511b17c87de9",
          "blockNumber": "0x112c714",
          "transactionHash": "0x2289fc5f9a766837bfb83872820b22696049b47fdc1ca8043f103d56a695230c",
          "transactionIndex": "0x2",
          "logIndex": "0x5",
          "removed": false
        },
        {
          "address": "0xa33c3dc6100d28e0578e035e60dd5c3c72a607c9",
          "topics": [
            "0x645593ca25d75b795c1ee548367f7aef4ed419bce4ccd5e2a6d19fd296010b6c"
          ],
          "data": "0x0000000000000000000000000000000000000000000000000000000067ad677d",
          "blockHash": "0xa8bba144068fdb08c96b684d2aa9f1d19e518f093c6f4ac68b73511b17c87de9",
          "blockNumber": "0x112c714",
          "transactionHash": "0x2289fc5f9a766837bfb83872820b22696049b47fdc1ca8043f103d56a695230c",
          "transactionIndex": "0x2",
          "logIndex": "0x6",
          "removed": false
        },
        {
          "address": "0xa33c3dc6100d28e0578e035e60dd5c3c72a607c9",
          "topics": [
            "0xc7f505b2f371ae2175ee4913f4499e1f2633a7b5936321eed1cdaeb6115181d2"
          ],
          "data": "0x0000000000000000000000000000000000000000000000000000000000000001",
          "blockHash": "0xa8bba144068fdb08c96b684d2aa9f1d19e518f093c6f4ac68b73511b17c87de9",
          "blockNumber": "0x112c714",
          "transactionHash": "0x2289fc5f9a766837bfb83872820b22696049b47fdc1ca8043f103d56a695230c",
          "transactionIndex": "0x2",
          "logIndex": "0x7",
          "removed": false
        },
        {
          "address": "0x138ba0d2582baa1d65f41b8e8be5db7cdd342e05",
          "topics": [
            "0x090309df4081387828cc4bf6aea90aadeace7c2d158bdcd4d37ddeae4a3ad811",
            "0x000000000000000000000000efbbd14082cf2fbcf5badc7ee619f0f4e36d0a5b",
            "0x000000000000000000000000a33c3dc6100d28e0578e035e60dd5c3c72a607c9"
          ],
          "data": "0x0000000000000000000000000000000000000000000000000000000000000020000000000000000000000000000000000000000000000000000000000000000a486f6c61206d756e646f00000000000000000000000000000000000000000000",
          "blockHash": "0xa8bba144068fdb08c96b684d2aa9f1d19e518f093c6f4ac68b73511b17c87de9",
          "blockNumber": "0x112c714",
          "transactionHash": "0x2289fc5f9a766837bfb83872820b22696049b47fdc1ca8043f103d56a695230c",
          "transactionIndex": "0x2",
          "logIndex": "0x8",
          "removed": false
        },
        {
          "address": "0x0000000000000000000000000000000000001010",
          "topics": [
            "0x4dfe1bbbcf077ddc3e01291eea2d5c70c2b422b415d95645b9adcfd678cb1d63",
            "0x0000000000000000000000000000000000000000000000000000000000001010",
            "0x000000000000000000000000efbbd14082cf2fbcf5badc7ee619f0f4e36d0a5b",
            "0x00000000000000000000000093feed2cc3d58c2b1bb62ce63125fa7fcaae7177"
          ],
          "data": "0x00000000000000000000000000000000000000000000000000120e114ed738100000000000000000000000000000000000000000000000009ddf7f6ef0aa37bf000000000000000000000000000000000000000000000080d0f1d30dc01efd290000000000000000000000000000000000000000000000009dcd715da1d2ffaf000000000000000000000000000000000000000000000080d103e11f0ef63539",
          "blockHash": "0xa8bba144068fdb08c96b684d2aa9f1d19e518f093c6f4ac68b73511b17c87de9",
          "blockNumber": "0x112c714",
          "transactionHash": "0x2289fc5f9a766837bfb83872820b22696049b47fdc1ca8043f103d56a695230c",
          "transactionIndex": "0x2",
          "logIndex": "0x9",
          "removed": false
        }
      ],
      "logsBloom": "0x00000000000000000000000000000000000000000000000000800000080000000000000000000000000000000010000000808000000000000000000000000000008000000000000004000800000000800001000000000000000100000000000000008000020000008000000000000800000000000000000080000000000000400800000000000000000800000000000000000000000080000000040000000000200000000400000000000000004000000000400000000880000000000000006000200000000400000001000000000000000000000004000000100000000020000000000800000000004000000000000000000000000000000000000000102000",
      "type": "0x2",
      "transactionHash": "0x2289fc5f9a766837bfb83872820b22696049b47fdc1ca8043f103d56a695230c",
      "transactionIndex": "0x2",
      "blockHash": "0xa8bba144068fdb08c96b684d2aa9f1d19e518f093c6f4ac68b73511b17c87de9",
      "blockNumber": "0x112c714",
      "gasUsed": "0x2429a",
      "effectiveGasPrice": "0x7fd040837",
      "from": "0xefbbd14082cf2fbcf5badc7ee619f0f4e36d0a5b",
      "to": "0x138ba0d2582baa1d65f41b8e8be5db7cdd342e05",
      "contractAddress": null
    }
  ],
  "libraries": [],
  "pending": [],
  "returns": {
    "0": {
      "internal_type": "address",
      "value": "0x138ba0d2582Baa1D65F41b8e8be5DB7CDd342E05"
    }
  },
  "timestamp": 1739413906,
  "chain": 80002,
  "commit": "c5ea3b3"
}