{
  "transactions": [
    {
      "hash": "0xf55f68b76738c96caec1448ae90c26f5e15732b78b17fd79cf2d962abff87e0e",
      "transactionType": "CALL",
      "contractName": null,
      "contractAddress": "0x62b311794f287913df45de640bd37fca43ed00b0",
      "function": "submit(address)",
      "arguments": [
        "0xC21478fA891f9766843A203c7c57C6D91A8B58d0"
      ],
      "transaction": {
        "from": "0xefbbd14082cf2fbcf5badc7ee619f0f4e36d0a5b",
        "to": "0x62b311794f287913df45de640bd37fca43ed00b0",
        "gas": "0x12772",
        "value": "0x0",
        "input": "0xa1903eab000000000000000000000000c21478fa891f9766843a203c7c57c6d91a8b58d0",
        "nonce": "0x909",
        "chainId": "0x13882"
      },
      "additionalContracts": [],
      "isFixedGasLimit": false
    },
    {
      "hash": "0x2cc76ac360c01d655c519f960529bc00603f333b2d3c7fab28c386cd13cb6d93",
      "transactionType": "CALL",
      "contractName": null,
      "contractAddress": "0x62b311794f287913df45de640bd37fca43ed00b0",
      "function": "approve(address)",
      "arguments": [
        "0xC21478fA891f9766843A203c7c57C6D91A8B58d0"
      ],
      "transaction": {
        "from": "0xefbbd14082cf2fbcf5badc7ee619f0f4e36d0a5b",
        "to": "0x62b311794f287913df45de640bd37fca43ed00b0",
        "gas": "0x12fd3",
        "value": "0x0",
        "input": "0xdaea85c5000000000000000000000000c21478fa891f9766843a203c7c57c6d91a8b58d0",
        "nonce": "0x90a",
        "chainId": "0x13882"
      },
      "additionalContracts": [],
      "isFixedGasLimit": false
    }
  ],
  "receipts": [
    {
      "status": "0x1",
      "cumulativeGasUsed": "0xd5e6",
      "logs": [
        {
          "address": "0x62b311794f287913df45de640bd37fca43ed00b0",
          "topics": [
            "0xd7c8ffb69ce4fbe7f0929df8c08a9cf027e3daf5703f862dd527537519fd5b80",
            "0x000000000000000000000000c21478fa891f9766843a203c7c57c6d91a8b58d0"
          ],
          "data": "0x000000000000000000000000efbbd14082cf2fbcf5badc7ee619f0f4e36d0a5b",
          "blockHash": "0x859076fe2f93df194efe827cf4e8f32736a12b5bd72189b168842aab391447e7",
          "blockNumber": "0xf8b034",
          "transactionHash": "0xf55f68b76738c96caec1448ae90c26f5e15732b78b17fd79cf2d962abff87e0e",
          "transactionIndex": "0x0",
          "logIndex": "0x0",
          "removed": false
        },
        {
          "address": "0x0000000000000000000000000000000000001010",
          "topics": [
            "0x4dfe1bbbcf077ddc3e01291eea2d5c70c2b422b415d95645b9adcfd678cb1d63",
            "0x0000000000000000000000000000000000000000000000000000000000001010",
            "0x000000000000000000000000efbbd14082cf2fbcf5badc7ee619f0f4e36d0a5b",
            "0x0000000000000000000000004631753190f2f5a15a7ba172bbac102b7d95fa22"
          ],
          "data": "0x000000000000000000000000000000000000000000000000000781374dd663660000000000000000000000000000000000000000000000015981649bd627c9690000000000000000000000000000000000000000000003e47b6037c2100fa36b0000000000000000000000000000000000000000000000015979e364885166030000000000000000000000000000000000000000000003e47b67b8f95de606d1",
          "blockHash": "0x859076fe2f93df194efe827cf4e8f32736a12b5bd72189b168842aab391447e7",
          "blockNumber": "0xf8b034",
          "transactionHash": "0xf55f68b76738c96caec1448ae90c26f5e15732b78b17fd79cf2d962abff87e0e",
          "transactionIndex": "0x0",
          "logIndex": "0x1",
          "removed": false
        }
      ],
      "logsBloom": "0x00000000000000000000000000000000000000002000000000000880000000000000000800000000000000000000000000008000000000000000000040000000008000004000000000000000000000800000000000000000000120000000000000000000000000100000000000000000000000000000000080000000000000000800000000000000004000000000000000000080000000000000002000000000200000000000000000000000000000000000400000000000000000000000004000000100000000000001000000000000000000000000000000100000000000000000000000000000000000000000000000000000000000000000000000100000",
      "type": "0x2",
      "transactionHash": "0xf55f68b76738c96caec1448ae90c26f5e15732b78b17fd79cf2d962abff87e0e",
      "transactionIndex": "0x0",
      "blockHash": "0x859076fe2f93df194efe827cf4e8f32736a12b5bd72189b168842aab391447e7",
      "blockNumber": "0xf8b034",
      "gasUsed": "0xd5e6",
      "effectiveGasPrice": "0x8fb5e4e50",
      "from": "0xefbbd14082cf2fbcf5badc7ee619f0f4e36d0a5b",
      "to": "0x62b311794f287913df45de640bd37fca43ed00b0",
      "contractAddress": null
    },
    {
      "status": "0x1",
      "cumulativeGasUsed": "0x1b1dd",
      "logs": [
        {
          "address": "0x62b311794f287913df45de640bd37fca43ed00b0",
          "topics": [
            "0x65b8e9ac9ab64091da36d1b07196f246dbab404b8fc03911717d626789b9567a",
            "0x000000000000000000000000c21478fa891f9766843a203c7c57c6d91a8b58d0"
          ],
          "data": "0x000000000000000000000000efbbd14082cf2fbcf5badc7ee619f0f4e36d0a5b",
          "blockHash": "0x859076fe2f93df194efe827cf4e8f32736a12b5bd72189b168842aab391447e7",
          "blockNumber": "0xf8b034",
          "transactionHash": "0x2cc76ac360c01d655c519f960529bc00603f333b2d3c7fab28c386cd13cb6d93",
          "transactionIndex": "0x1",
          "logIndex": "0x2",
          "removed": false
        },
        {
          "address": "0x0000000000000000000000000000000000001010",
          "topics": [
            "0x4dfe1bbbcf077ddc3e01291eea2d5c70c2b422b415d95645b9adcfd678cb1d63",
            "0x0000000000000000000000000000000000000000000000000000000000001010",
            "0x000000000000000000000000efbbd14082cf2fbcf5badc7ee619f0f4e36d0a5b",
            "0x0000000000000000000000004631753190f2f5a15a7ba172bbac102b7d95fa22"
          ],
          "data": "0x0000000000000000000000000000000000000000000000000007b7b434ef1bb70000000000000000000000000000000000000000000000015979e3648844dd890000000000000000000000000000000000000000000003e47b67b8f95de606d100000000000000000000000000000000000000000000000159722bb05355c1d20000000000000000000000000000000000000000000003e47b6f70ad92d52288",
          "blockHash": "0x859076fe2f93df194efe827cf4e8f32736a12b5bd72189b168842aab391447e7",
          "blockNumber": "0xf8b034",
          "transactionHash": "0x2cc76ac360c01d655c519f960529bc00603f333b2d3c7fab28c386cd13cb6d93",
          "transactionIndex": "0x1",
          "logIndex": "0x3",
          "removed": false
        }
      ],
      "logsBloom": "0x00000000000080000000000000000000000000002000000000000880000000000000000000000000000000000000000000008000000000000000000040000000008000000000000000000000000000800000000000000000000120000000000000000000000000100000000000000008000000000000000080000000000000000800000000000000004000000000000000000080000000000000002000000000200000000000000000000000000000000000400000000000000000000000004000000000000000000001000000000000000000000000000000100000000000000000000000000000000000000008000000000000000000000000000000100000",
      "type": "0x2",
      "transactionHash": "0x2cc76ac360c01d655c519f960529bc00603f333b2d3c7fab28c386cd13cb6d93",
      "transactionIndex": "0x1",
      "blockHash": "0x859076fe2f93df194efe827cf4e8f32736a12b5bd72189b168842aab391447e7",
      "blockNumber": "0xf8b034",
      "gasUsed": "0xdbf7",
      "effectiveGasPrice": "0x8fb5e4e50",
      "from": "0xefbbd14082cf2fbcf5badc7ee619f0f4e36d0a5b",
      "to": "0x62b311794f287913df45de640bd37fca43ed00b0",
      "contractAddress": null
    }
  ],
  "libraries": [],
  "pending": [],
  "returns": {},
  "timestamp": 1735679817,
  "chain": 80002,
  "commit": "8a8a711"
}