{
  "transactions": [
    {
      "hash": "0x31b7a079e4d69f593f2012ed56181fa947dfc3a50c730e1af86ba9ddcbcaf736",
      "transactionType": "CALL",
      "contractName": null,
      "contractAddress": "0x008210b7fa136ca9d450f2fc0f5173e651aec337",
      "function": "submit(address)",
      "arguments": [
        "0xc0286e60B9f57F8DeF10612E477A565900eE4c65"
      ],
      "transaction": {
        "from": "0xefbbd14082cf2fbcf5badc7ee619f0f4e36d0a5b",
        "to": "0x008210b7fa136ca9d450f2fc0f5173e651aec337",
        "gas": "0x138c1",
        "value": "0x0",
        "input": "0xa1903eab000000000000000000000000c0286e60b9f57f8def10612e477a565900ee4c65",
        "nonce": "0x886",
        "chainId": "0x13882"
      },
      "additionalContracts": [],
      "isFixedGasLimit": false
    },
    {
      "hash": "0x052ceb8cf8a290aa3a51f59ac6eddbc8da93d2dcccc59f4eedfa41af1dbd438c",
      "transactionType": "CALL",
      "contractName": null,
      "contractAddress": "0x008210b7fa136ca9d450f2fc0f5173e651aec337",
      "function": "approve(address)",
      "arguments": [
        "0xc0286e60B9f57F8DeF10612E477A565900eE4c65"
      ],
      "transaction": {
        "from": "0xefbbd14082cf2fbcf5badc7ee619f0f4e36d0a5b",
        "to": "0x008210b7fa136ca9d450f2fc0f5173e651aec337",
        "gas": "0x141a0",
        "value": "0x0",
        "input": "0xdaea85c5000000000000000000000000c0286e60b9f57f8def10612e477a565900ee4c65",
        "nonce": "0x887",
        "chainId": "0x13882"
      },
      "additionalContracts": [],
      "isFixedGasLimit": false
    }
  ],
  "receipts": [
    {
      "status": "0x1",
      "cumulativeGasUsed": "0x12eee",
      "logs": [
        {
          "address": "0x008210b7fa136ca9d450f2fc0f5173e651aec337",
          "topics": [
            "0xd7c8ffb69ce4fbe7f0929df8c08a9cf027e3daf5703f862dd527537519fd5b80",
            "0x000000000000000000000000c0286e60b9f57f8def10612e477a565900ee4c65"
          ],
          "data": "0x000000000000000000000000efbbd14082cf2fbcf5badc7ee619f0f4e36d0a5b",
          "blockHash": "0x733440661a85458f18ccf7f43bac514143e06e1aa99469e97a28cc48a1b3f706",
          "blockNumber": "0xf6260d",
          "transactionHash": "0x31b7a079e4d69f593f2012ed56181fa947dfc3a50c730e1af86ba9ddcbcaf736",
          "transactionIndex": "0x1",
          "logIndex": "0x1",
          "removed": false
        },
        {
          "address": "0x0000000000000000000000000000000000001010",
          "topics": [
            "0x4dfe1bbbcf077ddc3e01291eea2d5c70c2b422b415d95645b9adcfd678cb1d63",
            "0x0000000000000000000000000000000000000000000000000000000000001010",
            "0x000000000000000000000000efbbd14082cf2fbcf5badc7ee619f0f4e36d0a5b",
            "0x0000000000000000000000004ad84f7014b7b44f723f284a85b1662337971439"
          ],
          "data": "0x000000000000000000000000000000000000000000000000000626a587bf36ba0000000000000000000000000000000000000000000000013b69f49f57184d280000000000000000000000000000000000000000000004a4ba12a6725d62675c0000000000000000000000000000000000000000000000013b63cdf9cf59166e0000000000000000000000000000000000000000000004a4ba18cd17e5219e16",
          "blockHash": "0x733440661a85458f18ccf7f43bac514143e06e1aa99469e97a28cc48a1b3f706",
          "blockNumber": "0xf6260d",
          "transactionHash": "0x31b7a079e4d69f593f2012ed56181fa947dfc3a50c730e1af86ba9ddcbcaf736",
          "transactionIndex": "0x1",
          "logIndex": "0x2",
          "removed": false
        }
      ],
      "logsBloom": "0x00000000000000000000000000000000000000000000000000000000100000000000000800000000000000000000000000008000000000000080000000400000008000004000000000000000000000800000000000000000000100001000000000000000000000000000000000000200000000000000000080000000000000000800000000000000000000000000000000000000000000000000000200000000200000000000000000000000000000000000400000000000000000000000004000000100000000000001000000000000000000000000000000100000000000000000000000000000000100000000008000000000000000000000000000100000",
      "type": "0x2",
      "transactionHash": "0x31b7a079e4d69f593f2012ed56181fa947dfc3a50c730e1af86ba9ddcbcaf736",
      "transactionIndex": "0x1",
      "blockHash": "0x733440661a85458f18ccf7f43bac514143e06e1aa99469e97a28cc48a1b3f706",
      "blockNumber": "0xf6260d",
      "gasUsed": "0xd5da",
      "effectiveGasPrice": "0x75cff3440",
      "from": "0xefbbd14082cf2fbcf5badc7ee619f0f4e36d0a5b",
      "to": "0x008210b7fa136ca9d450f2fc0f5173e651aec337",
      "contractAddress": null
    },
    {
      "status": "0x1",
      "cumulativeGasUsed": "0x20ad9",
      "logs": [
        {
          "address": "0x008210b7fa136ca9d450f2fc0f5173e651aec337",
          "topics": [
            "0x65b8e9ac9ab64091da36d1b07196f246dbab404b8fc03911717d626789b9567a",
            "0x000000000000000000000000c0286e60b9f57f8def10612e477a565900ee4c65"
          ],
          "data": "0x000000000000000000000000efbbd14082cf2fbcf5badc7ee619f0f4e36d0a5b",
          "blockHash": "0x733440661a85458f18ccf7f43bac514143e06e1aa99469e97a28cc48a1b3f706",
          "blockNumber": "0xf6260d",
          "transactionHash": "0x052ceb8cf8a290aa3a51f59ac6eddbc8da93d2dcccc59f4eedfa41af1dbd438c",
          "transactionIndex": "0x2",
          "logIndex": "0x3",
          "removed": false
        },
        {
          "address": "0x0000000000000000000000000000000000001010",
          "topics": [
            "0x4dfe1bbbcf077ddc3e01291eea2d5c70c2b422b415d95645b9adcfd678cb1d63",
            "0x0000000000000000000000000000000000000000000000000000000000001010",
            "0x000000000000000000000000efbbd14082cf2fbcf5badc7ee619f0f4e36d0a5b",
            "0x0000000000000000000000004ad84f7014b7b44f723f284a85b1662337971439"
          ],
          "data": "0x00000000000000000000000000000000000000000000000000065350afead3fb0000000000000000000000000000000000000000000000013b63cdf9cf4c8ea80000000000000000000000000000000000000000000004a4ba18cd17e5219e160000000000000000000000000000000000000000000000013b5d7aa91f61baad0000000000000000000000000000000000000000000004a4ba1f2068950c7211",
          "blockHash": "0x733440661a85458f18ccf7f43bac514143e06e1aa99469e97a28cc48a1b3f706",
          "blockNumber": "0xf6260d",
          "transactionHash": "0x052ceb8cf8a290aa3a51f59ac6eddbc8da93d2dcccc59f4eedfa41af1dbd438c",
          "transactionIndex": "0x2",
          "logIndex": "0x4",
          "removed": false
        }
      ],
      "logsBloom": "0x00000000000080000000000000000000000000000000000000000000100000000000000000000000000000000000000000008000000000000080000000400000008000000000000000000000000000800000000000000000000100001000000000000000000000000000000000000208000000000000000080000000000000000800000000000000000000000000000000000000000000000000000200000000200000000000000000000000000000000000400000000000000000000000004000000000000000000001000000000000000000000000000000100000000000000000000000000000000100000008008000000000000000000000000000100000",
      "type": "0x2",
      "transactionHash": "0x052ceb8cf8a290aa3a51f59ac6eddbc8da93d2dcccc59f4eedfa41af1dbd438c",
      "transactionIndex": "0x2",
      "blockHash": "0x733440661a85458f18ccf7f43bac514143e06e1aa99469e97a28cc48a1b3f706",
      "blockNumber": "0xf6260d",
      "gasUsed": "0xdbeb",
      "effectiveGasPrice": "0x75cff3440",
      "from": "0xefbbd14082cf2fbcf5badc7ee619f0f4e36d0a5b",
      "to": "0x008210b7fa136ca9d450f2fc0f5173e651aec337",
      "contractAddress": null
    }
  ],
  "libraries": [],
  "pending": [],
  "returns": {},
  "timestamp": 1735326087,
  "chain": 80002,
  "commit": "4cb734c"
}