{
  "transactions": [
    {
      "hash": "0x3faf08a80fffd0a13d643a15f49a7225eaa754cc72814994e89f3bfec108ed8e",
      "transactionType": "CALL",
      "contractName": null,
      "contractAddress": "0xe9ff2342903c5c3975cdae572a937626cbf3d9ed",
      "function": "submit(address)",
      "arguments": [
        "0x7e5dF10ac18784255fCA481e6956367004Cb2205"
      ],
      "transaction": {
        "from": "0xefbbd14082cf2fbcf5badc7ee619f0f4e36d0a5b",
        "to": "0xe9ff2342903c5c3975cdae572a937626cbf3d9ed",
        "gas": "0x144ce",
        "value": "0x0",
        "input": "0xa1903eab0000000000000000000000007e5df10ac18784255fca481e6956367004cb2205",
        "nonce": "0xadf",
        "chainId": "0x13882"
      },
      "additionalContracts": [],
      "isFixedGasLimit": false
    },
    {
      "hash": "0xf5cf532d19c76ad05a823256a38a734286993861d513a9bccdaecf602f0d70d6",
      "transactionType": "CALL",
      "contractName": null,
      "contractAddress": "0xe9ff2342903c5c3975cdae572a937626cbf3d9ed",
      "function": "approve(address)",
      "arguments": [
        "0x7e5dF10ac18784255fCA481e6956367004Cb2205"
      ],
      "transaction": {
        "from": "0xefbbd14082cf2fbcf5badc7ee619f0f4e36d0a5b",
        "to": "0xe9ff2342903c5c3975cdae572a937626cbf3d9ed",
        "gas": "0x160c9",
        "value": "0x0",
        "input": "0xdaea85c50000000000000000000000007e5df10ac18784255fca481e6956367004cb2205",
        "nonce": "0xae0",
        "chainId": "0x13882"
      },
      "additionalContracts": [],
      "isFixedGasLimit": false
    }
  ],
  "receipts": [
    {
      "status": "0x1",
      "cumulativeGasUsed": "0xeb28",
      "logs": [
        {
          "address": "0xe9ff2342903c5c3975cdae572a937626cbf3d9ed",
          "topics": [
            "0xd7c8ffb69ce4fbe7f0929df8c08a9cf027e3daf5703f862dd527537519fd5b80",
            "0x0000000000000000000000007e5df10ac18784255fca481e6956367004cb2205"
          ],
          "data": "0x000000000000000000000000efbbd14082cf2fbcf5badc7ee619f0f4e36d0a5b",
          "blockHash": "0x272f742a7daeaa42bfc6ede6511331944f963c66bb0f451d85b6df726a4c4bb1",
          "blockNumber": "0x10c8842",
          "transactionHash": "0x3faf08a80fffd0a13d643a15f49a7225eaa754cc72814994e89f3bfec108ed8e",
          "transactionIndex": "0x0",
          "logIndex": "0x0",
          "removed": false
        },
        {
          "address": "0x0000000000000000000000000000000000001010",
          "topics": [
            "0x4dfe1bbbcf077ddc3e01291eea2d5c70c2b422b415d95645b9adcfd678cb1d63",
            "0x0000000000000000000000000000000000000000000000000000000000001010",
            "0x000000000000000000000000efbbd14082cf2fbcf5badc7ee619f0f4e36d0a5b",
            "0x0000000000000000000000004631753190f2f5a15a7ba172bbac102b7d95fa22"
          ],
          "data": "0x000000000000000000000000000000000000000000000000008b0487160fa000000000000000000000000000000000000000000000000000ec1df41b483782670000000000000000000000000000000000000000000004fa9164393b47871650000000000000000000000000000000000000000000000000eb92ef943227e2670000000000000000000000000000000000000000000004fa91ef3dc25d96b650",
          "blockHash": "0x272f742a7daeaa42bfc6ede6511331944f963c66bb0f451d85b6df726a4c4bb1",
          "blockNumber": "0x10c8842",
          "transactionHash": "0x3faf08a80fffd0a13d643a15f49a7225eaa754cc72814994e89f3bfec108ed8e",
          "transactionIndex": "0x0",
          "logIndex": "0x1",
          "removed": false
        }
      ],
      "logsBloom": "0x00000000000000000000000000000000000000002000000000000000000000000000000800000000000000100000000000008000000000000000000040000000008000004000000000000000000000800000010000000000000100000000000000000000000000100000000000000000000000000000000080000000000000000800000000000000000000200000000000000000000000000000000000000000200000000000000080000000000000000000400000000000000000000000004000000100000000000005800000000000000000000000000000100000000000000000000000000000000000000000000000000000000000000000000000100000",
      "type": "0x2",
      "transactionHash": "0x3faf08a80fffd0a13d643a15f49a7225eaa754cc72814994e89f3bfec108ed8e",
      "transactionIndex": "0x0",
      "blockHash": "0x272f742a7daeaa42bfc6ede6511331944f963c66bb0f451d85b6df726a4c4bb1",
      "blockNumber": "0x10c8842",
      "gasUsed": "0xeb28",
      "effectiveGasPrice": "0x975704e40f",
      "from": "0xefbbd14082cf2fbcf5badc7ee619f0f4e36d0a5b",
      "to": "0xe9ff2342903c5c3975cdae572a937626cbf3d9ed",
      "contractAddress": null
    },
    {
      "status": "0x1",
      "cumulativeGasUsed": "0x1dc61",
      "logs": [
        {
          "address": "0xe9ff2342903c5c3975cdae572a937626cbf3d9ed",
          "topics": [
            "0x65b8e9ac9ab64091da36d1b07196f246dbab404b8fc03911717d626789b9567a",
            "0x0000000000000000000000007e5df10ac18784255fca481e6956367004cb2205"
          ],
          "data": "0x000000000000000000000000efbbd14082cf2fbcf5badc7ee619f0f4e36d0a5b",
          "blockHash": "0x272f742a7daeaa42bfc6ede6511331944f963c66bb0f451d85b6df726a4c4bb1",
          "blockNumber": "0x10c8842",
          "transactionHash": "0xf5cf532d19c76ad05a823256a38a734286993861d513a9bccdaecf602f0d70d6",
          "transactionIndex": "0x1",
          "logIndex": "0x2",
          "removed": false
        },
        {
          "address": "0x0000000000000000000000000000000000001010",
          "topics": [
            "0x4dfe1bbbcf077ddc3e01291eea2d5c70c2b422b415d95645b9adcfd678cb1d63",
            "0x0000000000000000000000000000000000000000000000000000000000001010",
            "0x000000000000000000000000efbbd14082cf2fbcf5badc7ee619f0f4e36d0a5b",
            "0x0000000000000000000000004631753190f2f5a15a7ba172bbac102b7d95fa22"
          ],
          "data": "0x000000000000000000000000000000000000000000000000008e9a9dfabac400000000000000000000000000000000000000000000000000eb92ef94321a1b0f0000000000000000000000000000000000000000000004fa91ef3dc25d96b650000000000000000000000000000000000000000000000000eb0454f6375f570f0000000000000000000000000000000000000000000004fa927dd86058517a50",
          "blockHash": "0x272f742a7daeaa42bfc6ede6511331944f963c66bb0f451d85b6df726a4c4bb1",
          "blockNumber": "0x10c8842",
          "transactionHash": "0xf5cf532d19c76ad05a823256a38a734286993861d513a9bccdaecf602f0d70d6",
          "transactionIndex": "0x1",
          "logIndex": "0x3",
          "removed": false
        }
      ],
      "logsBloom": "0x00000000000080000000000000000000000000002000000000000000000000000000000000000000000000100000000000008000000000000000000040000000008000000000000000000000000000800000010000000000000100000000000000000000000000100000000000000008000000000000000080000000000000000800000000000000000000200000000000000000000000000000000000000000200000000000000080000000000000000000400000000000000000000000004000000000000000000005800000000000000000000000000000100000000000000000000000000000000000000008000000000000000000000000000000100000",
      "type": "0x2",
      "transactionHash": "0xf5cf532d19c76ad05a823256a38a734286993861d513a9bccdaecf602f0d70d6",
      "transactionIndex": "0x1",
      "blockHash": "0x272f742a7daeaa42bfc6ede6511331944f963c66bb0f451d85b6df726a4c4bb1",
      "blockNumber": "0x10c8842",
      "gasUsed": "0xf139",
      "effectiveGasPrice": "0x975704e40f",
      "from": "0xefbbd14082cf2fbcf5badc7ee619f0f4e36d0a5b",
      "to": "0xe9ff2342903c5c3975cdae572a937626cbf3d9ed",
      "contractAddress": null
    }
  ],
  "libraries": [],
  "pending": [],
  "returns": {},
  "timestamp": 1738517109,
  "chain": 80002,
  "commit": "c5ea3b3"
}