{
  "transactions": [
    {
      "hash": "0x775ba42380c4fb66612abc8ac328c4eccf2b5073abcdb824335ee995f26d1ed8",
      "transactionType": "CALL",
      "contractName": null,
      "contractAddress": "0xe9ff2342903c5c3975cdae572a937626cbf3d9ed",
      "function": "submit(address)",
      "arguments": [
        "0x3393520C79E540c963aFAe6619c2b51e6fb04F61"
      ],
      "transaction": {
        "from": "0xefbbd14082cf2fbcf5badc7ee619f0f4e36d0a5b",
        "to": "0xe9ff2342903c5c3975cdae572a937626cbf3d9ed",
        "gas": "0x144ce",
        "value": "0x0",
        "input": "0xa1903eab0000000000000000000000003393520c79e540c963afae6619c2b51e6fb04f61",
        "nonce": "0xb3a",
        "chainId": "0x13882"
      },
      "additionalContracts": [],
      "isFixedGasLimit": false
    },
    {
      "hash": "0x65d55100b7cb54abfd2356c6093b9d2c5686a64911eccca73ff69c5f6bac2952",
      "transactionType": "CALL",
      "contractName": null,
      "contractAddress": "0xe9ff2342903c5c3975cdae572a937626cbf3d9ed",
      "function": "approve(address)",
      "arguments": [
        "0x3393520C79E540c963aFAe6619c2b51e6fb04F61"
      ],
      "transaction": {
        "from": "0xefbbd14082cf2fbcf5badc7ee619f0f4e36d0a5b",
        "to": "0xe9ff2342903c5c3975cdae572a937626cbf3d9ed",
        "gas": "0x160c9",
        "value": "0x0",
        "input": "0xdaea85c50000000000000000000000003393520c79e540c963afae6619c2b51e6fb04f61",
        "nonce": "0xb3b",
        "chainId": "0x13882"
      },
      "additionalContracts": [],
      "isFixedGasLimit": false
    }
  ],
  "receipts": [
    {
      "status": "0x1",
      "cumulativeGasUsed": "0xeb28",
      "logs": [
        {
          "address": "0xe9ff2342903c5c3975cdae572a937626cbf3d9ed",
          "topics": [
            "0xd7c8ffb69ce4fbe7f0929df8c08a9cf027e3daf5703f862dd527537519fd5b80",
            "0x0000000000000000000000003393520c79e540c963afae6619c2b51e6fb04f61"
          ],
          "data": "0x000000000000000000000000efbbd14082cf2fbcf5badc7ee619f0f4e36d0a5b",
          "blockHash": "0xc107fe11e19788883aba5bce00502e6cbfee856a012882343367e30ba6a53d21",
          "blockNumber": "0x118209e",
          "transactionHash": "0x775ba42380c4fb66612abc8ac328c4eccf2b5073abcdb824335ee995f26d1ed8",
          "transactionIndex": "0x0",
          "logIndex": "0x0",
          "removed": false
        },
        {
          "address": "0x0000000000000000000000000000000000001010",
          "topics": [
            "0x4dfe1bbbcf077ddc3e01291eea2d5c70c2b422b415d95645b9adcfd678cb1d63",
            "0x0000000000000000000000000000000000000000000000000000000000001010",
            "0x000000000000000000000000efbbd14082cf2fbcf5badc7ee619f0f4e36d0a5b",
            "0x00000000000000000000000009207a6efee346cb3e4a54ac18523e3715d38b3f"
          ],
          "data": "0x0000000000000000000000000000000000000000000000000008052f2d949800000000000000000000000000000000000000000000000000d5ea5dbb49da7650000000000000000000000000000000000000000000000617d85b4e2a1621e690000000000000000000000000000000000000000000000000d5e2588c1c45de50000000000000000000000000000000000000000000000617d863535943b67e90",
          "blockHash": "0xc107fe11e19788883aba5bce00502e6cbfee856a012882343367e30ba6a53d21",
          "blockNumber": "0x118209e",
          "transactionHash": "0x775ba42380c4fb66612abc8ac328c4eccf2b5073abcdb824335ee995f26d1ed8",
          "transactionIndex": "0x0",
          "logIndex": "0x1",
          "removed": false
        }
      ],
      "logsBloom": "0x00000000000000000000000000000000000000000040000000000000000000000000000800000000000000000000000000008000000000000000010000000000008000004000000000000000000000800000010000000000000100000000000000000000000000000000000000000000000000000000000080000000000000000800000000000000000000200004000000004000000000000000000000000000200000000000000080000000000000000000400000000000000000100000004000000100000000000001000000000000000000000000000000100000000000000000000000000000000000010000000000000000000000000000000000100000",
      "type": "0x2",
      "transactionHash": "0x775ba42380c4fb66612abc8ac328c4eccf2b5073abcdb824335ee995f26d1ed8",
      "transactionIndex": "0x0",
      "blockHash": "0xc107fe11e19788883aba5bce00502e6cbfee856a012882343367e30ba6a53d21",
      "blockNumber": "0x118209e",
      "gasUsed": "0xeb28",
      "effectiveGasPrice": "0x8bb2c970f",
      "from": "0xefbbd14082cf2fbcf5badc7ee619f0f4e36d0a5b",
      "to": "0xe9ff2342903c5c3975cdae572a937626cbf3d9ed",
      "contractAddress": null
    },
    {
      "status": "0x1",
      "cumulativeGasUsed": "0x1dc61",
      "logs": [
        {
          "address": "0xe9ff2342903c5c3975cdae572a937626cbf3d9ed",
          "topics": [
            "0x65b8e9ac9ab64091da36d1b07196f246dbab404b8fc03911717d626789b9567a",
            "0x0000000000000000000000003393520c79e540c963afae6619c2b51e6fb04f61"
          ],
          "data": "0x000000000000000000000000efbbd14082cf2fbcf5badc7ee619f0f4e36d0a5b",
          "blockHash": "0xc107fe11e19788883aba5bce00502e6cbfee856a012882343367e30ba6a53d21",
          "blockNumber": "0x118209e",
          "transactionHash": "0x65d55100b7cb54abfd2356c6093b9d2c5686a64911eccca73ff69c5f6bac2952",
          "transactionIndex": "0x1",
          "logIndex": "0x2",
          "removed": false
        },
        {
          "address": "0x0000000000000000000000000000000000001010",
          "topics": [
            "0x4dfe1bbbcf077ddc3e01291eea2d5c70c2b422b415d95645b9adcfd678cb1d63",
            "0x0000000000000000000000000000000000000000000000000000000000001010",
            "0x000000000000000000000000efbbd14082cf2fbcf5badc7ee619f0f4e36d0a5b",
            "0x00000000000000000000000009207a6efee346cb3e4a54ac18523e3715d38b3f"
          ],
          "data": "0x00000000000000000000000000000000000000000000000000083a26a7149f00000000000000000000000000000000000000000000000000d5e2588c1c3816f8000000000000000000000000000000000000000000000617d863535943b67e90000000000000000000000000000000000000000000000000d5da1e65752377f8000000000000000000000000000000000000000000000617d86b8d7feacb1d90",
          "blockHash": "0xc107fe11e19788883aba5bce00502e6cbfee856a012882343367e30ba6a53d21",
          "blockNumber": "0x118209e",
          "transactionHash": "0x65d55100b7cb54abfd2356c6093b9d2c5686a64911eccca73ff69c5f6bac2952",
          "transactionIndex": "0x1",
          "logIndex": "0x3",
          "removed": false
        }
      ],
      "logsBloom": "0x00000000000080000000000000000000000000000040000000000000000000000000000000000000000000000000000000008000000000000000010000000000008000000000000000000000000000800000010000000000000100000000000000000000000000000000000000000008000000000000000080000000000000000800000000000000000000200004000000004000000000000000000000000000200000000000000080000000000000000000400000000000000000100000004000000000000000000001000000000000000000000000000000100000000000000000000000000000000000010008000000000000000000000000000000100000",
      "type": "0x2",
      "transactionHash": "0x65d55100b7cb54abfd2356c6093b9d2c5686a64911eccca73ff69c5f6bac2952",
      "transactionIndex": "0x1",
      "blockHash": "0xc107fe11e19788883aba5bce00502e6cbfee856a012882343367e30ba6a53d21",
      "blockNumber": "0x118209e",
      "gasUsed": "0xf139",
      "effectiveGasPrice": "0x8bb2c970f",
      "from": "0xefbbd14082cf2fbcf5badc7ee619f0f4e36d0a5b",
      "to": "0xe9ff2342903c5c3975cdae572a937626cbf3d9ed",
      "contractAddress": null
    }
  ],
  "libraries": [],
  "pending": [],
  "returns": {},
  "timestamp": 1740169138,
  "chain": 80002,
  "commit": "2339679"
}