{
  "transactions": [
    {
      "hash": "0xe114ce1b632bc62dcd991e608d5a6d8703bf283e3a2ddeda834ca2eb3068c54f",
      "transactionType": "CALL",
      "contractName": null,
      "contractAddress": "0xb67b2ba159fdb4a13d2c28992df3c103a1541b64",
      "function": "submit(address)",
      "arguments": [
        "0x29d359fEAa71b2e33Aed7543B3B8A05E0a3Cf494"
      ],
      "transaction": {
        "from": "0xefbbd14082cf2fbcf5badc7ee619f0f4e36d0a5b",
        "to": "0xb67b2ba159fdb4a13d2c28992df3c103a1541b64",
        "gas": "0x127cd",
        "value": "0x0",
        "input": "0xa1903eab00000000000000000000000029d359feaa71b2e33aed7543b3b8a05e0a3cf494",
        "nonce": "0x9e6",
        "chainId": "0x13882"
      },
      "additionalContracts": [],
      "isFixedGasLimit": false
    },
    {
      "hash": "0x31ce9aaceccd19159347d27fbe5cbb415a29a5a7fde0eaf0b14e51fd598ca11c",
      "transactionType": "CALL",
      "contractName": null,
      "contractAddress": "0xb67b2ba159fdb4a13d2c28992df3c103a1541b64",
      "function": "approve(address)",
      "arguments": [
        "0x29d359fEAa71b2e33Aed7543B3B8A05E0a3Cf494"
      ],
      "transaction": {
        "from": "0xefbbd14082cf2fbcf5badc7ee619f0f4e36d0a5b",
        "to": "0xb67b2ba159fdb4a13d2c28992df3c103a1541b64",
        "gas": "0x14213",
        "value": "0x0",
        "input": "0xdaea85c500000000000000000000000029d359feaa71b2e33aed7543b3b8a05e0a3cf494",
        "nonce": "0x9e7",
        "chainId": "0x13882"
      },
      "additionalContracts": [],
      "isFixedGasLimit": false
    }
  ],
  "receipts": [
    {
      "status": "0x1",
      "cumulativeGasUsed": "0xd628",
      "logs": [
        {
          "address": "0xb67b2ba159fdb4a13d2c28992df3c103a1541b64",
          "topics": [
            "0xd7c8ffb69ce4fbe7f0929df8c08a9cf027e3daf5703f862dd527537519fd5b80",
            "0x00000000000000000000000029d359feaa71b2e33aed7543b3b8a05e0a3cf494"
          ],
          "data": "0x000000000000000000000000efbbd14082cf2fbcf5badc7ee619f0f4e36d0a5b",
          "blockHash": "0x531d5b7795cc1680808382d916dec1b90445e26383083bf23a837a8d92d5ecd9",
          "blockNumber": "0xfcebcc",
          "transactionHash": "0xe114ce1b632bc62dcd991e608d5a6d8703bf283e3a2ddeda834ca2eb3068c54f",
          "transactionIndex": "0x0",
          "logIndex": "0x0",
          "removed": false
        },
        {
          "address": "0x0000000000000000000000000000000000001010",
          "topics": [
            "0x4dfe1bbbcf077ddc3e01291eea2d5c70c2b422b415d95645b9adcfd678cb1d63",
            "0x0000000000000000000000000000000000000000000000000000000000001010",
            "0x000000000000000000000000efbbd14082cf2fbcf5badc7ee619f0f4e36d0a5b",
            "0x0000000000000000000000006dc2dd54f24979ec26212794c71afefed722280c"
          ],
          "data": "0x0000000000000000000000000000000000000000000000000007ca7c49ce80000000000000000000000000000000000000000000000000012ff61a4456bb60780000000000000000000000000000000000000000000004b6c1dbc22be7451bea0000000000000000000000000000000000000000000000012fee4fc80cece0780000000000000000000000000000000000000000000004b6c1e38ca831139bea",
          "blockHash": "0x531d5b7795cc1680808382d916dec1b90445e26383083bf23a837a8d92d5ecd9",
          "blockNumber": "0xfcebcc",
          "transactionHash": "0xe114ce1b632bc62dcd991e608d5a6d8703bf283e3a2ddeda834ca2eb3068c54f",
          "transactionIndex": "0x0",
          "logIndex": "0x1",
          "removed": false
        }
      ],
      "logsBloom": "0x00000000000000000000000000000000000000000000000000000000000000000000000800000000000000000000000000008000000000000000000000000008008000004000000000000000000000800000000000000000000100080000000000000000000000000400000000000000000000000000000080000000000000020800008000000000000000200040000000000000000000000000000000000000200000000000000000000000000800000000400000000000000000000000004000000100000000000001000000000000000000000000000000100000000001000000000000000000000000000000000000000000000000000000000000100000",
      "type": "0x2",
      "transactionHash": "0xe114ce1b632bc62dcd991e608d5a6d8703bf283e3a2ddeda834ca2eb3068c54f",
      "transactionIndex": "0x0",
      "blockHash": "0x531d5b7795cc1680808382d916dec1b90445e26383083bf23a837a8d92d5ecd9",
      "blockNumber": "0xfcebcc",
      "gasUsed": "0xd628",
      "effectiveGasPrice": "0x9502f900f",
      "from": "0xefbbd14082cf2fbcf5badc7ee619f0f4e36d0a5b",
      "to": "0xb67b2ba159fdb4a13d2c28992df3c103a1541b64",
      "contractAddress": null
    },
    {
      "status": "0x1",
      "cumulativeGasUsed": "0x1b261",
      "logs": [
        {
          "address": "0xb67b2ba159fdb4a13d2c28992df3c103a1541b64",
          "topics": [
            "0x65b8e9ac9ab64091da36d1b07196f246dbab404b8fc03911717d626789b9567a",
            "0x00000000000000000000000029d359feaa71b2e33aed7543b3b8a05e0a3cf494"
          ],
          "data": "0x000000000000000000000000efbbd14082cf2fbcf5badc7ee619f0f4e36d0a5b",
          "blockHash": "0x531d5b7795cc1680808382d916dec1b90445e26383083bf23a837a8d92d5ecd9",
          "blockNumber": "0xfcebcc",
          "transactionHash": "0x31ce9aaceccd19159347d27fbe5cbb415a29a5a7fde0eaf0b14e51fd598ca11c",
          "transactionIndex": "0x1",
          "logIndex": "0x2",
          "removed": false
        },
        {
          "address": "0x0000000000000000000000000000000000001010",
          "topics": [
            "0x4dfe1bbbcf077ddc3e01291eea2d5c70c2b422b415d95645b9adcfd678cb1d63",
            "0x0000000000000000000000000000000000000000000000000000000000001010",
            "0x000000000000000000000000efbbd14082cf2fbcf5badc7ee619f0f4e36d0a5b",
            "0x0000000000000000000000006dc2dd54f24979ec26212794c71afefed722280c"
          ],
          "data": "0x000000000000000000000000000000000000000000000000000802fbba5710000000000000000000000000000000000000000000000000012fee4fc80ce054200000000000000000000000000000000000000000000004b6c1e38ca831139bea0000000000000000000000000000000000000000000000012fe64ccc528944200000000000000000000000000000000000000000000004b6c1eb8fa3eb6aabea",
          "blockHash": "0x531d5b7795cc1680808382d916dec1b90445e26383083bf23a837a8d92d5ecd9",
          "blockNumber": "0xfcebcc",
          "transactionHash": "0x31ce9aaceccd19159347d27fbe5cbb415a29a5a7fde0eaf0b14e51fd598ca11c",
          "transactionIndex": "0x1",
          "logIndex": "0x3",
          "removed": false
        }
      ],
      "logsBloom": "0x00000000000080000000000000000000000000000000000000000000000000000000000000000000000000000000000000008000000000000000000000000008008000000000000000000000000000800000000000000000000100080000000000000000000000000400000000000008000000000000000080000000000000020800008000000000000000200040000000000000000000000000000000000000200000000000000000000000000800000000400000000000000000000000004000000000000000000001000000000000000000000000000000100000000001000000000000000000000000000008000000000000000000000000000000100000",
      "type": "0x2",
      "transactionHash": "0x31ce9aaceccd19159347d27fbe5cbb415a29a5a7fde0eaf0b14e51fd598ca11c",
      "transactionIndex": "0x1",
      "blockHash": "0x531d5b7795cc1680808382d916dec1b90445e26383083bf23a837a8d92d5ecd9",
      "blockNumber": "0xfcebcc",
      "gasUsed": "0xdc39",
      "effectiveGasPrice": "0x9502f900f",
      "from": "0xefbbd14082cf2fbcf5badc7ee619f0f4e36d0a5b",
      "to": "0xb67b2ba159fdb4a13d2c28992df3c103a1541b64",
      "contractAddress": null
    }
  ],
  "libraries": [],
  "pending": [],
  "returns": {},
  "timestamp": 1736269383,
  "chain": 80002,
  "commit": "323af23"
}