{
  "transactions": [
    {
      "hash": "0x1f27aa30bd4439fc85269b47445a92dc38d564a6edf676113df65815fac821c8",
      "transactionType": "CALL",
      "contractName": null,
      "contractAddress": "0x3d45c4027611bf8fa09d0f86c55f17e9d54ecdf5",
      "function": "submit(address)",
      "arguments": [
        "0x2C55821f047b5b74C86F228CaBe6A00891df8506"
      ],
      "transaction": {
        "from": "0xefbbd14082cf2fbcf5badc7ee619f0f4e36d0a5b",
        "to": "0x3d45c4027611bf8fa09d0f86c55f17e9d54ecdf5",
        "gas": "0x12772",
        "value": "0x0",
        "input": "0xa1903eab0000000000000000000000002c55821f047b5b74c86f228cabe6a00891df8506",
        "nonce": "0x8c1",
        "chainId": "0x13882"
      },
      "additionalContracts": [],
      "isFixedGasLimit": false
    },
    {
      "hash": "0xf7ea0e2d0e604ea1774822a78e63946d654d7d4b04329cc1ac1ce52ae37943eb",
      "transactionType": "CALL",
      "contractName": null,
      "contractAddress": "0x3d45c4027611bf8fa09d0f86c55f17e9d54ecdf5",
      "function": "approve(address)",
      "arguments": [
        "0x2C55821f047b5b74C86F228CaBe6A00891df8506"
      ],
      "transaction": {
        "from": "0xefbbd14082cf2fbcf5badc7ee619f0f4e36d0a5b",
        "to": "0x3d45c4027611bf8fa09d0f86c55f17e9d54ecdf5",
        "gas": "0x12fd3",
        "value": "0x0",
        "input": "0xdaea85c50000000000000000000000002c55821f047b5b74c86f228cabe6a00891df8506",
        "nonce": "0x8c2",
        "chainId": "0x13882"
      },
      "additionalContracts": [],
      "isFixedGasLimit": false
    }
  ],
  "receipts": [
    {
      "status": "0x1",
      "cumulativeGasUsed": "0x47729",
      "logs": [
        {
          "address": "0x3d45c4027611bf8fa09d0f86c55f17e9d54ecdf5",
          "topics": [
            "0xd7c8ffb69ce4fbe7f0929df8c08a9cf027e3daf5703f862dd527537519fd5b80",
            "0x0000000000000000000000002c55821f047b5b74c86f228cabe6a00891df8506"
          ],
          "data": "0x000000000000000000000000efbbd14082cf2fbcf5badc7ee619f0f4e36d0a5b",
          "blockHash": "0x36c9a708e35b6f21911498e8bb8452097a112bd6777d1ee922abb071ece59266",
          "blockNumber": "0xf62891",
          "transactionHash": "0x1f27aa30bd4439fc85269b47445a92dc38d564a6edf676113df65815fac821c8",
          "transactionIndex": "0x2",
          "logIndex": "0x8",
          "removed": false
        },
        {
          "address": "0x0000000000000000000000000000000000001010",
          "topics": [
            "0x4dfe1bbbcf077ddc3e01291eea2d5c70c2b422b415d95645b9adcfd678cb1d63",
            "0x0000000000000000000000000000000000000000000000000000000000001010",
            "0x000000000000000000000000efbbd14082cf2fbcf5badc7ee619f0f4e36d0a5b",
            "0x0000000000000000000000006ab3d36c46ecfb9b9c0bd51cb1c3da5a2c81cea6"
          ],
          "data": "0x00000000000000000000000000000000000000000000000000053578950ee63a0000000000000000000000000000000000000000000000012c32f0865809c95d0000000000000000000000000000000000000000000004459369d447ec010bc10000000000000000000000000000000000000000000000012c2dbb0dc2fae323000000000000000000000000000000000000000000000445936f09c0810ff1fb",
          "blockHash": "0x36c9a708e35b6f21911498e8bb8452097a112bd6777d1ee922abb071ece59266",
          "blockNumber": "0xf62891",
          "transactionHash": "0x1f27aa30bd4439fc85269b47445a92dc38d564a6edf676113df65815fac821c8",
          "transactionIndex": "0x2",
          "logIndex": "0x9",
          "removed": false
        }
      ],
      "logsBloom": "0x00000000080000000000000000000000000000000000000000000000000000000000000800000000000000000000000000008000000000000000000000000000008000084000000000000000000000800000000000000000000100000000000000000000000000000000000000000000000000000000000080000000002000000800000000000000000000000040000000000000000000000000000000000000200000000000000000000000000000000000400000000000000000000000004000000100000000000001200000000800000000010000000000100000000000000000000000000000000008000000000000000000000000000000000000100080",
      "type": "0x2",
      "transactionHash": "0x1f27aa30bd4439fc85269b47445a92dc38d564a6edf676113df65815fac821c8",
      "transactionIndex": "0x2",
      "blockHash": "0x36c9a708e35b6f21911498e8bb8452097a112bd6777d1ee922abb071ece59266",
      "blockNumber": "0xf62891",
      "gasUsed": "0xd5e6",
      "effectiveGasPrice": "0x63bf00dbe",
      "from": "0xefbbd14082cf2fbcf5badc7ee619f0f4e36d0a5b",
      "to": "0x3d45c4027611bf8fa09d0f86c55f17e9d54ecdf5",
      "contractAddress": null
    },
    {
      "status": "0x1",
      "cumulativeGasUsed": "0x55320",
      "logs": [
        {
          "address": "0x3d45c4027611bf8fa09d0f86c55f17e9d54ecdf5",
          "topics": [
            "0x65b8e9ac9ab64091da36d1b07196f246dbab404b8fc03911717d626789b9567a",
            "0x0000000000000000000000002c55821f047b5b74c86f228cabe6a00891df8506"
          ],
          "data": "0x000000000000000000000000efbbd14082cf2fbcf5badc7ee619f0f4e36d0a5b",
          "blockHash": "0x36c9a708e35b6f21911498e8bb8452097a112bd6777d1ee922abb071ece59266",
          "blockNumber": "0xf62891",
          "transactionHash": "0xf7ea0e2d0e604ea1774822a78e63946d654d7d4b04329cc1ac1ce52ae37943eb",
          "transactionIndex": "0x3",
          "logIndex": "0xa",
          "removed": false
        },
        {
          "address": "0x0000000000000000000000000000000000001010",
          "topics": [
            "0x4dfe1bbbcf077ddc3e01291eea2d5c70c2b422b415d95645b9adcfd678cb1d63",
            "0x0000000000000000000000000000000000000000000000000000000000001010",
            "0x000000000000000000000000efbbd14082cf2fbcf5badc7ee619f0f4e36d0a5b",
            "0x0000000000000000000000006ab3d36c46ecfb9b9c0bd51cb1c3da5a2c81cea6"
          ],
          "data": "0x00000000000000000000000000000000000000000000000000055b4a3051e8d90000000000000000000000000000000000000000000000012c2dbb0dc2ee5aa9000000000000000000000000000000000000000000000445936f09c0810ff1fb0000000000000000000000000000000000000000000000012c285fc3929c71d00000000000000000000000000000000000000000000004459374650ab161dad4",
          "blockHash": "0x36c9a708e35b6f21911498e8bb8452097a112bd6777d1ee922abb071ece59266",
          "blockNumber": "0xf62891",
          "transactionHash": "0xf7ea0e2d0e604ea1774822a78e63946d654d7d4b04329cc1ac1ce52ae37943eb",
          "transactionIndex": "0x3",
          "logIndex": "0xb",
          "removed": false
        }
      ],
      "logsBloom": "0x00000000080080000000000000000000000000000000000000000000000000000000000000000000000000000000000000008000000000000000000000000000008000080000000000000000000000800000000000000000000100000000000000000000000000000000000000000008000000000000000080000000002000000800000000000000000000000040000000000000000000000000000000000000200000000000000000000000000000000000400000000000000000000000004000000000000000000001200000000800000000010000000000100000000000000000000000000000000008000008000000000000000000000000000000100080",
      "type": "0x2",
      "transactionHash": "0xf7ea0e2d0e604ea1774822a78e63946d654d7d4b04329cc1ac1ce52ae37943eb",
      "transactionIndex": "0x3",
      "blockHash": "0x36c9a708e35b6f21911498e8bb8452097a112bd6777d1ee922abb071ece59266",
      "blockNumber": "0xf62891",
      "gasUsed": "0xdbf7",
      "effectiveGasPrice": "0x63bf00dbe",
      "from": "0xefbbd14082cf2fbcf5badc7ee619f0f4e36d0a5b",
      "to": "0x3d45c4027611bf8fa09d0f86c55f17e9d54ecdf5",
      "contractAddress": null
    }
  ],
  "libraries": [],
  "pending": [],
  "returns": {},
  "timestamp": 1735327457,
  "chain": 80002,
  "commit": "4cb734c"
}