{
  "transactions": [
    {
      "hash": "0x70e03f2e990e603a827e148bc593161b98282b183ca1827e2e32cfbb9670af33",
      "transactionType": "CALL",
      "contractName": null,
      "contractAddress": "0xe9ff2342903c5c3975cdae572a937626cbf3d9ed",
      "function": "submit(address)",
      "arguments": [
        "0x7488aaF40FC234C91407B219CFC47aB22300505c"
      ],
      "transaction": {
        "from": "0xefbbd14082cf2fbcf5badc7ee619f0f4e36d0a5b",
        "to": "0xe9ff2342903c5c3975cdae572a937626cbf3d9ed",
        "gas": "0x127bc",
        "value": "0x0",
        "input": "0xa1903eab0000000000000000000000007488aaf40fc234c91407b219cfc47ab22300505c",
        "nonce": "0xa45",
        "chainId": "0x13882"
      },
      "additionalContracts": [],
      "isFixedGasLimit": false
    },
    {
      "hash": "0x43c1cfd3f4e059cb6c5a91f79e19bc14669187d1544b0444489ef44687abe06d",
      "transactionType": "CALL",
      "contractName": null,
      "contractAddress": "0xe9ff2342903c5c3975cdae572a937626cbf3d9ed",
      "function": "approve(address)",
      "arguments": [
        "0x7488aaF40FC234C91407B219CFC47aB22300505c"
      ],
      "transaction": {
        "from": "0xefbbd14082cf2fbcf5badc7ee619f0f4e36d0a5b",
        "to": "0xe9ff2342903c5c3975cdae572a937626cbf3d9ed",
        "gas": "0x1301d",
        "value": "0x0",
        "input": "0xdaea85c50000000000000000000000007488aaf40fc234c91407b219cfc47ab22300505c",
        "nonce": "0xa46",
        "chainId": "0x13882"
      },
      "additionalContracts": [],
      "isFixedGasLimit": false
    }
  ],
  "receipts": [
    {
      "status": "0x1",
      "cumulativeGasUsed": "0x1c3ed",
      "logs": [
        {
          "address": "0xe9ff2342903c5c3975cdae572a937626cbf3d9ed",
          "topics": [
            "0xd7c8ffb69ce4fbe7f0929df8c08a9cf027e3daf5703f862dd527537519fd5b80",
            "0x0000000000000000000000007488aaf40fc234c91407b219cfc47ab22300505c"
          ],
          "data": "0x000000000000000000000000efbbd14082cf2fbcf5badc7ee619f0f4e36d0a5b",
          "blockHash": "0x36e893ce59c2096c62b05f42a71ce15073e44aae76c791c55e6a3d2c533713f9",
          "blockNumber": "0xfe1687",
          "transactionHash": "0x70e03f2e990e603a827e148bc593161b98282b183ca1827e2e32cfbb9670af33",
          "transactionIndex": "0x2",
          "logIndex": "0x3",
          "removed": false
        },
        {
          "address": "0x0000000000000000000000000000000000001010",
          "topics": [
            "0x4dfe1bbbcf077ddc3e01291eea2d5c70c2b422b415d95645b9adcfd678cb1d63",
            "0x0000000000000000000000000000000000000000000000000000000000001010",
            "0x000000000000000000000000efbbd14082cf2fbcf5badc7ee619f0f4e36d0a5b",
            "0x00000000000000000000000009207a6efee346cb3e4a54ac18523e3715d38b3f"
          ],
          "data": "0x000000000000000000000000000000000000000000000000000ab5d13a5e9c5c000000000000000000000000000000000000000000000001114401a92dfacc2c000000000000000000000000000000000000000000000467e56e165ba4812e5c00000000000000000000000000000000000000000000000111394bd7f39c2fd0000000000000000000000000000000000000000000000467e578cc2cdedfcab8",
          "blockHash": "0x36e893ce59c2096c62b05f42a71ce15073e44aae76c791c55e6a3d2c533713f9",
          "blockNumber": "0xfe1687",
          "transactionHash": "0x70e03f2e990e603a827e148bc593161b98282b183ca1827e2e32cfbb9670af33",
          "transactionIndex": "0x2",
          "logIndex": "0x4",
          "removed": false
        }
      ],
      "logsBloom": "0x00000000000000000000000000000000000000000000000000000000000000000000000800000000000000000000000000008000000000000000010000000000008000004000000001000000000000800000010000000000000100000000000000000000000000000000000000000000000000000000000080000000000000000800000000000000000000200000000000004000000000000000000000000000200000000000000080000002000000000000400000000000000000000000004000000100000000000001000000000400000000000000000000100000000000000000000000000000000000010000000000000000000000000000000000100000",
      "type": "0x2",
      "transactionHash": "0x70e03f2e990e603a827e148bc593161b98282b183ca1827e2e32cfbb9670af33",
      "transactionIndex": "0x2",
      "blockHash": "0x36e893ce59c2096c62b05f42a71ce15073e44aae76c791c55e6a3d2c533713f9",
      "blockNumber": "0xfe1687",
      "gasUsed": "0xd61c",
      "effectiveGasPrice": "0xcce416600",
      "from": "0xefbbd14082cf2fbcf5badc7ee619f0f4e36d0a5b",
      "to": "0xe9ff2342903c5c3975cdae572a937626cbf3d9ed",
      "contractAddress": null
    },
    {
      "status": "0x1",
      "cumulativeGasUsed": "0x2a01a",
      "logs": [
        {
          "address": "0xe9ff2342903c5c3975cdae572a937626cbf3d9ed",
          "topics": [
            "0x65b8e9ac9ab64091da36d1b07196f246dbab404b8fc03911717d626789b9567a",
            "0x0000000000000000000000007488aaf40fc234c91407b219cfc47ab22300505c"
          ],
          "data": "0x000000000000000000000000efbbd14082cf2fbcf5badc7ee619f0f4e36d0a5b",
          "blockHash": "0x36e893ce59c2096c62b05f42a71ce15073e44aae76c791c55e6a3d2c533713f9",
          "blockNumber": "0xfe1687",
          "transactionHash": "0x43c1cfd3f4e059cb6c5a91f79e19bc14669187d1544b0444489ef44687abe06d",
          "transactionIndex": "0x3",
          "logIndex": "0x5",
          "removed": false
        },
        {
          "address": "0x0000000000000000000000000000000000001010",
          "topics": [
            "0x4dfe1bbbcf077ddc3e01291eea2d5c70c2b422b415d95645b9adcfd678cb1d63",
            "0x0000000000000000000000000000000000000000000000000000000000001010",
            "0x000000000000000000000000efbbd14082cf2fbcf5badc7ee619f0f4e36d0a5b",
            "0x00000000000000000000000009207a6efee346cb3e4a54ac18523e3715d38b3f"
          ],
          "data": "0x000000000000000000000000000000000000000000000000000b0380751a075d00000000000000000000000000000000000000000000000111394bd7f38fa42c000000000000000000000000000000000000000000000467e578cc2cdedfcab8000000000000000000000000000000000000000000000001112e48577e759ccf000000000000000000000000000000000000000000000467e583cfad53f9d215",
          "blockHash": "0x36e893ce59c2096c62b05f42a71ce15073e44aae76c791c55e6a3d2c533713f9",
          "blockNumber": "0xfe1687",
          "transactionHash": "0x43c1cfd3f4e059cb6c5a91f79e19bc14669187d1544b0444489ef44687abe06d",
          "transactionIndex": "0x3",
          "logIndex": "0x6",
          "removed": false
        }
      ],
      "logsBloom": "0x00000000000080000000000000000000000000000000000000000000000000000000000000000000000000000000000000008000000000000000010000000000008000000000000001000000000000800000010000000000000100000000000000000000000000000000000000000008000000000000000080000000000000000800000000000000000000200000000000004000000000000000000000000000200000000000000080000002000000000000400000000000000000000000004000000000000000000001000000000400000000000000000000100000000000000000000000000000000000010008000000000000000000000000000000100000",
      "type": "0x2",
      "transactionHash": "0x43c1cfd3f4e059cb6c5a91f79e19bc14669187d1544b0444489ef44687abe06d",
      "transactionIndex": "0x3",
      "blockHash": "0x36e893ce59c2096c62b05f42a71ce15073e44aae76c791c55e6a3d2c533713f9",
      "blockNumber": "0xfe1687",
      "gasUsed": "0xdc2d",
      "effectiveGasPrice": "0xcce416600",
      "from": "0xefbbd14082cf2fbcf5badc7ee619f0f4e36d0a5b",
      "to": "0xe9ff2342903c5c3975cdae572a937626cbf3d9ed",
      "contractAddress": null
    }
  ],
  "libraries": [],
  "pending": [],
  "returns": {},
  "timestamp": 1736435158,
  "chain": 80002,
  "commit": "aec1c85"
}