{
  "transactions": [
    {
      "hash": "0x22b5e0f18e149fc38217b8cd2e6954a882deaa85e02d2c00cdf4e7a8ae922e2d",
      "transactionType": "CALL",
      "contractName": null,
      "contractAddress": "0xb67b2ba159fdb4a13d2c28992df3c103a1541b64",
      "function": "submit(address)",
      "arguments": [
        "0x11fF69aaB5b9e7457Ebb5293558Ead5b876Fc7A5"
      ],
      "transaction": {
        "from": "0xefbbd14082cf2fbcf5badc7ee619f0f4e36d0a5b",
        "to": "0xb67b2ba159fdb4a13d2c28992df3c103a1541b64",
        "gas": "0x127cd",
        "value": "0x0",
        "input": "0xa1903eab00000000000000000000000011ff69aab5b9e7457ebb5293558ead5b876fc7a5",
        "nonce": "0xa07",
        "chainId": "0x13882"
      },
      "additionalContracts": [],
      "isFixedGasLimit": false
    },
    {
      "hash": "0xe25715a9fdbfeaf95a46e20369542d3e39fe783bea6e1a09d57775ab12f4a4b7",
      "transactionType": "CALL",
      "contractName": null,
      "contractAddress": "0xb67b2ba159fdb4a13d2c28992df3c103a1541b64",
      "function": "approve(address)",
      "arguments": [
        "0x11fF69aaB5b9e7457Ebb5293558Ead5b876Fc7A5"
      ],
      "transaction": {
        "from": "0xefbbd14082cf2fbcf5badc7ee619f0f4e36d0a5b",
        "to": "0xb67b2ba159fdb4a13d2c28992df3c103a1541b64",
        "gas": "0x14213",
        "value": "0x0",
        "input": "0xdaea85c500000000000000000000000011ff69aab5b9e7457ebb5293558ead5b876fc7a5",
        "nonce": "0xa08",
        "chainId": "0x13882"
      },
      "additionalContracts": [],
      "isFixedGasLimit": false
    }
  ],
  "receipts": [
    {
      "status": "0x1",
      "cumulativeGasUsed": "0xd628",
      "logs": [
        {
          "address": "0xb67b2ba159fdb4a13d2c28992df3c103a1541b64",
          "topics": [
            "0xd7c8ffb69ce4fbe7f0929df8c08a9cf027e3daf5703f862dd527537519fd5b80",
            "0x00000000000000000000000011ff69aab5b9e7457ebb5293558ead5b876fc7a5"
          ],
          "data": "0x000000000000000000000000efbbd14082cf2fbcf5badc7ee619f0f4e36d0a5b",
          "blockHash": "0xb012419768d74a1bce58ab3f18bc1146b58ce43ba90be6e2d29eff0997cdd67c",
          "blockNumber": "0xfdab77",
          "transactionHash": "0x22b5e0f18e149fc38217b8cd2e6954a882deaa85e02d2c00cdf4e7a8ae922e2d",
          "transactionIndex": "0x0",
          "logIndex": "0x0",
          "removed": false
        },
        {
          "address": "0x0000000000000000000000000000000000001010",
          "topics": [
            "0x4dfe1bbbcf077ddc3e01291eea2d5c70c2b422b415d95645b9adcfd678cb1d63",
            "0x0000000000000000000000000000000000000000000000000000000000001010",
            "0x000000000000000000000000efbbd14082cf2fbcf5badc7ee619f0f4e36d0a5b",
            "0x0000000000000000000000004631753190f2f5a15a7ba172bbac102b7d95fa22"
          ],
          "data": "0x0000000000000000000000000000000000000000000000000006d12cc08823a800000000000000000000000000000000000000000000000127d95c96916cc59f0000000000000000000000000000000000000000000003fcebfa3090ebeb000f00000000000000000000000000000000000000000000000127d28b69d0e4a1f70000000000000000000000000000000000000000000003fcec0101bdac7323b7",
          "blockHash": "0xb012419768d74a1bce58ab3f18bc1146b58ce43ba90be6e2d29eff0997cdd67c",
          "blockNumber": "0xfdab77",
          "transactionHash": "0x22b5e0f18e149fc38217b8cd2e6954a882deaa85e02d2c00cdf4e7a8ae922e2d",
          "transactionIndex": "0x0",
          "logIndex": "0x1",
          "removed": false
        }
      ],
      "logsBloom": "0x00000000000000000000000000000000000000002000000000080000000000000000000800000000040000000000000000008000000000000000000040000008008000004000000000000000000000800000000000000000000100000000000000000000000000100000000000000000000000000000000080000000000000000800000000000000000000200000000000000000000000000000000000000000200000000000000000000000000000000000400000000000000000000000004000000100000000000001000000000000000000000000000000100000000001000000000000000000000000000000000000000000040000000000000000100000",
      "type": "0x2",
      "transactionHash": "0x22b5e0f18e149fc38217b8cd2e6954a882deaa85e02d2c00cdf4e7a8ae922e2d",
      "transactionIndex": "0x0",
      "blockHash": "0xb012419768d74a1bce58ab3f18bc1146b58ce43ba90be6e2d29eff0997cdd67c",
      "blockNumber": "0xfdab77",
      "gasUsed": "0xd628",
      "effectiveGasPrice": "0x826299e00",
      "from": "0xefbbd14082cf2fbcf5badc7ee619f0f4e36d0a5b",
      "to": "0xb67b2ba159fdb4a13d2c28992df3c103a1541b64",
      "contractAddress": null
    },
    {
      "status": "0x1",
      "cumulativeGasUsed": "0x1b261",
      "logs": [
        {
          "address": "0xb67b2ba159fdb4a13d2c28992df3c103a1541b64",
          "topics": [
            "0x65b8e9ac9ab64091da36d1b07196f246dbab404b8fc03911717d626789b9567a",
            "0x00000000000000000000000011ff69aab5b9e7457ebb5293558ead5b876fc7a5"
          ],
          "data": "0x000000000000000000000000efbbd14082cf2fbcf5badc7ee619f0f4e36d0a5b",
          "blockHash": "0xb012419768d74a1bce58ab3f18bc1146b58ce43ba90be6e2d29eff0997cdd67c",
          "blockNumber": "0xfdab77",
          "transactionHash": "0xe25715a9fdbfeaf95a46e20369542d3e39fe783bea6e1a09d57775ab12f4a4b7",
          "transactionIndex": "0x1",
          "logIndex": "0x2",
          "removed": false
        },
        {
          "address": "0x0000000000000000000000000000000000001010",
          "topics": [
            "0x4dfe1bbbcf077ddc3e01291eea2d5c70c2b422b415d95645b9adcfd678cb1d63",
            "0x0000000000000000000000000000000000000000000000000000000000001010",
            "0x000000000000000000000000efbbd14082cf2fbcf5badc7ee619f0f4e36d0a5b",
            "0x0000000000000000000000004631753190f2f5a15a7ba172bbac102b7d95fa22"
          ],
          "data": "0x0000000000000000000000000000000000000000000000000007029c42ff46a900000000000000000000000000000000000000000000000127d28b69d0d8159f0000000000000000000000000000000000000000000003fcec0101bdac7323b700000000000000000000000000000000000000000000000127cb88cd8dd8cef60000000000000000000000000000000000000000000003fcec080459ef726a60",
          "blockHash": "0xb012419768d74a1bce58ab3f18bc1146b58ce43ba90be6e2d29eff0997cdd67c",
          "blockNumber": "0xfdab77",
          "transactionHash": "0xe25715a9fdbfeaf95a46e20369542d3e39fe783bea6e1a09d57775ab12f4a4b7",
          "transactionIndex": "0x1",
          "logIndex": "0x3",
          "removed": false
        }
      ],
      "logsBloom": "0x00000000000080000000000000000000000000002000000000080000000000000000000000000000040000000000000000008000000000000000000040000008008000000000000000000000000000800000000000000000000100000000000000000000000000100000000000000008000000000000000080000000000000000800000000000000000000200000000000000000000000000000000000000000200000000000000000000000000000000000400000000000000000000000004000000000000000000001000000000000000000000000000000100000000001000000000000000000000000000008000000000000040000000000000000100000",
      "type": "0x2",
      "transactionHash": "0xe25715a9fdbfeaf95a46e20369542d3e39fe783bea6e1a09d57775ab12f4a4b7",
      "transactionIndex": "0x1",
      "blockHash": "0xb012419768d74a1bce58ab3f18bc1146b58ce43ba90be6e2d29eff0997cdd67c",
      "blockNumber": "0xfdab77",
      "gasUsed": "0xdc39",
      "effectiveGasPrice": "0x826299e00",
      "from": "0xefbbd14082cf2fbcf5badc7ee619f0f4e36d0a5b",
      "to": "0xb67b2ba159fdb4a13d2c28992df3c103a1541b64",
      "contractAddress": null
    }
  ],
  "libraries": [],
  "pending": [],
  "returns": {},
  "timestamp": 1736373665,
  "chain": 80002,
  "commit": "aec1c85"
}