{
  "transactions": [
    {
      "hash": "0xa2a4c53bb5edde0d2a14933683a11c8b07084351001a46b24e84a9a099b0acc5",
      "transactionType": "CALL",
      "contractName": null,
      "contractAddress": "0xb67b2ba159fdb4a13d2c28992df3c103a1541b64",
      "function": "submit(address)",
      "arguments": [
        "0x8a2861520500B557Dbf14A9C4DaEcB4322736B65"
      ],
      "transaction": {
        "from": "0xefbbd14082cf2fbcf5badc7ee619f0f4e36d0a5b",
        "to": "0xb67b2ba159fdb4a13d2c28992df3c103a1541b64",
        "gas": "0x127bc",
        "value": "0x0",
        "input": "0xa1903eab0000000000000000000000008a2861520500b557dbf14a9c4daecb4322736b65",
        "nonce": "0x9f8",
        "chainId": "0x13882"
      },
      "additionalContracts": [],
      "isFixedGasLimit": false
    },
    {
      "hash": "0xbf7837cf5b48a00c615efe08f49da31335d534bd1328f0eb5b0920773c54ec5c",
      "transactionType": "CALL",
      "contractName": null,
      "contractAddress": "0xb67b2ba159fdb4a13d2c28992df3c103a1541b64",
      "function": "approve(address)",
      "arguments": [
        "0x8a2861520500B557Dbf14A9C4DaEcB4322736B65"
      ],
      "transaction": {
        "from": "0xefbbd14082cf2fbcf5badc7ee619f0f4e36d0a5b",
        "to": "0xb67b2ba159fdb4a13d2c28992df3c103a1541b64",
        "gas": "0x1301d",
        "value": "0x0",
        "input": "0xdaea85c50000000000000000000000008a2861520500b557dbf14a9c4daecb4322736b65",
        "nonce": "0x9f9",
        "chainId": "0x13882"
      },
      "additionalContracts": [],
      "isFixedGasLimit": false
    }
  ],
  "receipts": [
    {
      "status": "0x1",
      "cumulativeGasUsed": "0xd61c",
      "logs": [
        {
          "address": "0xb67b2ba159fdb4a13d2c28992df3c103a1541b64",
          "topics": [
            "0xd7c8ffb69ce4fbe7f0929df8c08a9cf027e3daf5703f862dd527537519fd5b80",
            "0x0000000000000000000000008a2861520500b557dbf14a9c4daecb4322736b65"
          ],
          "data": "0x000000000000000000000000efbbd14082cf2fbcf5badc7ee619f0f4e36d0a5b",
          "blockHash": "0x0d8b7c0252dcb2dd4d27219c6cd5d270a405ed715ef1fa342917cd4dfcb4695d",
          "blockNumber": "0xfd96d0",
          "transactionHash": "0xa2a4c53bb5edde0d2a14933683a11c8b07084351001a46b24e84a9a099b0acc5",
          "transactionIndex": "0x0",
          "logIndex": "0x0",
          "removed": false
        },
        {
          "address": "0x0000000000000000000000000000000000001010",
          "topics": [
            "0x4dfe1bbbcf077ddc3e01291eea2d5c70c2b422b415d95645b9adcfd678cb1d63",
            "0x0000000000000000000000000000000000000000000000000000000000001010",
            "0x000000000000000000000000efbbd14082cf2fbcf5badc7ee619f0f4e36d0a5b",
            "0x0000000000000000000000004ad84f7014b7b44f723f284a85b1662337971439"
          ],
          "data": "0x0000000000000000000000000000000000000000000000000005e67df89ea4000000000000000000000000000000000000000000000000012b914379e74faebc0000000000000000000000000000000000000000000004bf1ad29c26eb0a410a0000000000000000000000000000000000000000000000012b8b5cfbeeb10abc0000000000000000000000000000000000000000000004bf1ad882a4e3a8e50a",
          "blockHash": "0x0d8b7c0252dcb2dd4d27219c6cd5d270a405ed715ef1fa342917cd4dfcb4695d",
          "blockNumber": "0xfd96d0",
          "transactionHash": "0xa2a4c53bb5edde0d2a14933683a11c8b07084351001a46b24e84a9a099b0acc5",
          "transactionIndex": "0x0",
          "logIndex": "0x1",
          "removed": false
        }
      ],
      "logsBloom": "0x00000000000000000000000000000000000000000000000000000000000000000000000800000000000000000000000000008000000000000000000000400008008000004000000000000000000000800000000000000000000100001000000000000000000000000000000000000000000000000000000080000000000000000800000000000000000000200000000000000000000000000000000000008000200000000000000000000000000000000000400000000000000000000000044000000100000000000001000000000000000000000000000000100000000001000000000020000000000000000000008000000000000000000000000000100000",
      "type": "0x2",
      "transactionHash": "0xa2a4c53bb5edde0d2a14933683a11c8b07084351001a46b24e84a9a099b0acc5",
      "transactionIndex": "0x0",
      "blockHash": "0x0d8b7c0252dcb2dd4d27219c6cd5d270a405ed715ef1fa342917cd4dfcb4695d",
      "blockNumber": "0xfd96d0",
      "gasUsed": "0xd61c",
      "effectiveGasPrice": "0x70e054f0f",
      "from": "0xefbbd14082cf2fbcf5badc7ee619f0f4e36d0a5b",
      "to": "0xb67b2ba159fdb4a13d2c28992df3c103a1541b64",
      "contractAddress": null
    },
    {
      "status": "0x1",
      "cumulativeGasUsed": "0x1b249",
      "logs": [
        {
          "address": "0xb67b2ba159fdb4a13d2c28992df3c103a1541b64",
          "topics": [
            "0x65b8e9ac9ab64091da36d1b07196f246dbab404b8fc03911717d626789b9567a",
            "0x0000000000000000000000008a2861520500b557dbf14a9c4daecb4322736b65"
          ],
          "data": "0x000000000000000000000000efbbd14082cf2fbcf5badc7ee619f0f4e36d0a5b",
          "blockHash": "0x0d8b7c0252dcb2dd4d27219c6cd5d270a405ed715ef1fa342917cd4dfcb4695d",
          "blockNumber": "0xfd96d0",
          "transactionHash": "0xbf7837cf5b48a00c615efe08f49da31335d534bd1328f0eb5b0920773c54ec5c",
          "transactionIndex": "0x1",
          "logIndex": "0x2",
          "removed": false
        },
        {
          "address": "0x0000000000000000000000000000000000001010",
          "topics": [
            "0x4dfe1bbbcf077ddc3e01291eea2d5c70c2b422b415d95645b9adcfd678cb1d63",
            "0x0000000000000000000000000000000000000000000000000000000000001010",
            "0x000000000000000000000000efbbd14082cf2fbcf5badc7ee619f0f4e36d0a5b",
            "0x0000000000000000000000004ad84f7014b7b44f723f284a85b1662337971439"
          ],
          "data": "0x0000000000000000000000000000000000000000000000000006114a06d2e3000000000000000000000000000000000000000000000000012b8b5cfbeea47f180000000000000000000000000000000000000000000004bf1ad882a4e3a8e50a0000000000000000000000000000000000000000000000012b854bb1e7d19c180000000000000000000000000000000000000000000004bf1ade93eeea7bc80a",
          "blockHash": "0x0d8b7c0252dcb2dd4d27219c6cd5d270a405ed715ef1fa342917cd4dfcb4695d",
          "blockNumber": "0xfd96d0",
          "transactionHash": "0xbf7837cf5b48a00c615efe08f49da31335d534bd1328f0eb5b0920773c54ec5c",
          "transactionIndex": "0x1",
          "logIndex": "0x3",
          "removed": false
        }
      ],
      "logsBloom": "0x00000000000080000000000000000000000000000000000000000000000000000000000000000000000000000000000000008000000000000000000000400008008000000000000000000000000000800000000000000000000100001000000000000000000000000000000000000008000000000000000080000000000000000800000000000000000000200000000000000000000000000000000000008000200000000000000000000000000000000000400000000000000000000000044000000000000000000001000000000000000000000000000000100000000001000000000020000000000000000008008000000000000000000000000000100000",
      "type": "0x2",
      "transactionHash": "0xbf7837cf5b48a00c615efe08f49da31335d534bd1328f0eb5b0920773c54ec5c",
      "transactionIndex": "0x1",
      "blockHash": "0x0d8b7c0252dcb2dd4d27219c6cd5d270a405ed715ef1fa342917cd4dfcb4695d",
      "blockNumber": "0xfd96d0",
      "gasUsed": "0xdc2d",
      "effectiveGasPrice": "0x70e054f0f",
      "from": "0xefbbd14082cf2fbcf5badc7ee619f0f4e36d0a5b",
      "to": "0xb67b2ba159fdb4a13d2c28992df3c103a1541b64",
      "contractAddress": null
    }
  ],
  "libraries": [],
  "pending": [],
  "returns": {},
  "timestamp": 1736362426,
  "chain": 80002,
  "commit": "aec1c85"
}