{
  "transactions": [
    {
      "hash": "0x7816ba52085ccaca2488515b3e464d066c35c0cab2a54599a2433dde96f99e9f",
      "transactionType": "CALL",
      "contractName": null,
      "contractAddress": "0xe9ff2342903c5c3975cdae572a937626cbf3d9ed",
      "function": "submit(address)",
      "arguments": [
        "0xf5625A6F85D8bE37bEcd7C3928c6e31E18a2f7bb"
      ],
      "transaction": {
        "from": "0xefbbd14082cf2fbcf5badc7ee619f0f4e36d0a5b",
        "to": "0xe9ff2342903c5c3975cdae572a937626cbf3d9ed",
        "gas": "0x127cd",
        "value": "0x0",
        "input": "0xa1903eab000000000000000000000000f5625a6f85d8be37becd7c3928c6e31e18a2f7bb",
        "nonce": "0xab9",
        "chainId": "0x13882"
      },
      "additionalContracts": [],
      "isFixedGasLimit": false
    },
    {
      "hash": "0x7a7b164fa3033ab9f95006906fc99c7a7057792e32563fa542144af475331773",
      "transactionType": "CALL",
      "contractName": null,
      "contractAddress": "0xe9ff2342903c5c3975cdae572a937626cbf3d9ed",
      "function": "approve(address)",
      "arguments": [
        "0xf5625A6F85D8bE37bEcd7C3928c6e31E18a2f7bb"
      ],
      "transaction": {
        "from": "0xefbbd14082cf2fbcf5badc7ee619f0f4e36d0a5b",
        "to": "0xe9ff2342903c5c3975cdae572a937626cbf3d9ed",
        "gas": "0x14213",
        "value": "0x0",
        "input": "0xdaea85c5000000000000000000000000f5625a6f85d8be37becd7c3928c6e31e18a2f7bb",
        "nonce": "0xaba",
        "chainId": "0x13882"
      },
      "additionalContracts": [],
      "isFixedGasLimit": false
    }
  ],
  "receipts": [
    {
      "status": "0x1",
      "cumulativeGasUsed": "0xd628",
      "logs": [
        {
          "address": "0xe9ff2342903c5c3975cdae572a937626cbf3d9ed",
          "topics": [
            "0xd7c8ffb69ce4fbe7f0929df8c08a9cf027e3daf5703f862dd527537519fd5b80",
            "0x000000000000000000000000f5625a6f85d8be37becd7c3928c6e31e18a2f7bb"
          ],
          "data": "0x000000000000000000000000efbbd14082cf2fbcf5badc7ee619f0f4e36d0a5b",
          "blockHash": "0x63a4bbbda4f140714b28d52b2e65b4164bbcc4a1921551f35051eb231b8884fc",
          "blockNumber": "0x10c78c6",
          "transactionHash": "0x7816ba52085ccaca2488515b3e464d066c35c0cab2a54599a2433dde96f99e9f",
          "transactionIndex": "0x0",
          "logIndex": "0x0",
          "removed": false
        },
        {
          "address": "0x0000000000000000000000000000000000001010",
          "topics": [
            "0x4dfe1bbbcf077ddc3e01291eea2d5c70c2b422b415d95645b9adcfd678cb1d63",
            "0x0000000000000000000000000000000000000000000000000000000000001010",
            "0x000000000000000000000000efbbd14082cf2fbcf5badc7ee619f0f4e36d0a5b",
            "0x0000000000000000000000006ab3d36c46ecfb9b9c0bd51cb1c3da5a2c81cea6"
          ],
          "data": "0x000000000000000000000000000000000000000000000000007e9a63af5ba00000000000000000000000000000000000000000000000000038651f9337a463c70000000000000000000000000000000000000000000005052135b0a2fdbc383c00000000000000000000000000000000000000000000000037e6852f8848c3c700000000000000000000000000000000000000000000050521b44b06ad17d83c",
          "blockHash": "0x63a4bbbda4f140714b28d52b2e65b4164bbcc4a1921551f35051eb231b8884fc",
          "blockNumber": "0x10c78c6",
          "transactionHash": "0x7816ba52085ccaca2488515b3e464d066c35c0cab2a54599a2433dde96f99e9f",
          "transactionIndex": "0x0",
          "logIndex": "0x1",
          "removed": false
        }
      ],
      "logsBloom": "0x00000000080000001000000000000000000000000000000000000000000000000000000800000000000000000000000000008000000000000000000000000000008000084000000000000000000000800000010000000000000100000000000000000000000000000000000000000000000000000000000080000000000000000800000000000000000000200000000000000000000000000000000000000000200000000000000080000000000000000000400000000000000000000000004100000100000000000001000000000000000000010000000000100000000000000000000000000000000000000000000000000000000000000000200000100000",
      "type": "0x2",
      "transactionHash": "0x7816ba52085ccaca2488515b3e464d066c35c0cab2a54599a2433dde96f99e9f",
      "transactionIndex": "0x0",
      "blockHash": "0x63a4bbbda4f140714b28d52b2e65b4164bbcc4a1921551f35051eb231b8884fc",
      "blockNumber": "0x10c78c6",
      "gasUsed": "0xd628",
      "effectiveGasPrice": "0x975704e40f",
      "from": "0xefbbd14082cf2fbcf5badc7ee619f0f4e36d0a5b",
      "to": "0xe9ff2342903c5c3975cdae572a937626cbf3d9ed",
      "contractAddress": null
    },
    {
      "status": "0x1",
      "cumulativeGasUsed": "0x1b261",
      "logs": [
        {
          "address": "0xe9ff2342903c5c3975cdae572a937626cbf3d9ed",
          "topics": [
            "0x65b8e9ac9ab64091da36d1b07196f246dbab404b8fc03911717d626789b9567a",
            "0x000000000000000000000000f5625a6f85d8be37becd7c3928c6e31e18a2f7bb"
          ],
          "data": "0x000000000000000000000000efbbd14082cf2fbcf5badc7ee619f0f4e36d0a5b",
          "blockHash": "0x63a4bbbda4f140714b28d52b2e65b4164bbcc4a1921551f35051eb231b8884fc",
          "blockNumber": "0x10c78c6",
          "transactionHash": "0x7a7b164fa3033ab9f95006906fc99c7a7057792e32563fa542144af475331773",
          "transactionIndex": "0x1",
          "logIndex": "0x2",
          "removed": false
        },
        {
          "address": "0x0000000000000000000000000000000000001010",
          "topics": [
            "0x4dfe1bbbcf077ddc3e01291eea2d5c70c2b422b415d95645b9adcfd678cb1d63",
            "0x0000000000000000000000000000000000000000000000000000000000001010",
            "0x000000000000000000000000efbbd14082cf2fbcf5badc7ee619f0f4e36d0a5b",
            "0x0000000000000000000000006ab3d36c46ecfb9b9c0bd51cb1c3da5a2c81cea6"
          ],
          "data": "0x0000000000000000000000000000000000000000000000000082307a9406c40000000000000000000000000000000000000000000000000037e6852f883c376f00000000000000000000000000000000000000000000050521b44b06ad17d83c000000000000000000000000000000000000000000000000376454b4f435736f00000000000000000000000000000000000000000000050522367b81411e9c3c",
          "blockHash": "0x63a4bbbda4f140714b28d52b2e65b4164bbcc4a1921551f35051eb231b8884fc",
          "blockNumber": "0x10c78c6",
          "transactionHash": "0x7a7b164fa3033ab9f95006906fc99c7a7057792e32563fa542144af475331773",
          "transactionIndex": "0x1",
          "logIndex": "0x3",
          "removed": false
        }
      ],
      "logsBloom": "0x00000000080080001000000000000000000000000000000000000000000000000000000000000000000000000000000000008000000000000000000000000000008000080000000000000000000000800000010000000000000100000000000000000000000000000000000000000008000000000000000080000000000000000800000000000000000000200000000000000000000000000000000000000000200000000000000080000000000000000000400000000000000000000000004100000000000000000001000000000000000000010000000000100000000000000000000000000000000000000008000000000000000000000000200000100000",
      "type": "0x2",
      "transactionHash": "0x7a7b164fa3033ab9f95006906fc99c7a7057792e32563fa542144af475331773",
      "transactionIndex": "0x1",
      "blockHash": "0x63a4bbbda4f140714b28d52b2e65b4164bbcc4a1921551f35051eb231b8884fc",
      "blockNumber": "0x10c78c6",
      "gasUsed": "0xdc39",
      "effectiveGasPrice": "0x975704e40f",
      "from": "0xefbbd14082cf2fbcf5badc7ee619f0f4e36d0a5b",
      "to": "0xe9ff2342903c5c3975cdae572a937626cbf3d9ed",
      "contractAddress": null
    }
  ],
  "libraries": [],
  "pending": [],
  "returns": {},
  "timestamp": 1738507933,
  "chain": 80002,
  "commit": "c5ea3b3"
}