{
  "transactions": [
    {
      "hash": "0xb09c0e8eac8a9aa8c978ff8588204f761c59b751073223ecabbe666c7b6d64f9",
      "transactionType": "CALL",
      "contractName": null,
      "contractAddress": "0x79e0ad0cdc478096f28eef7f0f96f3b65c861e9d",
      "function": "deploy(bytes32,bytes)",
      "arguments": [
        "0xad86f04b87148646e62a3af42386f5daa873175fb7149d41fe1508efcdc17698",
        "0x608080604052346015576101f8908161001a8239f35b5f80fdfe60806040526004361015610011575f80fd5b5f3560e01c806352b7512c146100ab57637c627b211461002f575f80fd5b346100a75760807ffffffffffffffffffffffffffffffffffffffffffffffffffffffffffffffffc3601126100a757600360043510156100a75760243567ffffffffffffffff81116100a757366023820112156100a757806004013567ffffffffffffffff81116100a757369101602401116100a757005b5f80fd5b346100a75760607ffffffffffffffffffffffffffffffffffffffffffffffffffffffffffffffffc3601126100a75760043567ffffffffffffffff81116100a7577ffffffffffffffffffffffffffffffffffffffffffffffffffffffffffffffffc61012091360301126100a7576040516020810167ffffffffffffffff811182821017610195576040525f80825260208201916060913684377fffffffffffffffffffffffffffffffffffffffffffffffffffffffffffffffe0601f604051948593604085525180918160408701528686015e5f8582860101525f602085015201168101030190f35b7f4e487b71000000000000000000000000000000000000000000000000000000005f52604160045260245ffdfea26469706673582212200b389105411ef1c670a013b4112ff65164f785f177fc43002d8e12a5ba39efbd64736f6c634300081a0033"
      ],
      "transaction": {
        "from": "0xefbbd14082cf2fbcf5badc7ee619f0f4e36d0a5b",
        "to": "0x79e0ad0cdc478096f28eef7f0f96f3b65c861e9d",
        "gas": "0x4295d",
        "value": "0x0",
        "input": "0xcdcb760aad86f04b87148646e62a3af42386f5daa873175fb7149d41fe1508efcdc1769800000000000000000000000000000000000000000000000000000000000000400000000000000000000000000000000000000000000000000000000000000212608080604052346015576101f8908161001a8239f35b5f80fdfe60806040526004361015610011575f80fd5b5f3560e01c806352b7512c146100ab57637c627b211461002f575f80fd5b346100a75760807ffffffffffffffffffffffffffffffffffffffffffffffffffffffffffffffffc3601126100a757600360043510156100a75760243567ffffffffffffffff81116100a757366023820112156100a757806004013567ffffffffffffffff81116100a757369101602401116100a757005b5f80fd5b346100a75760607ffffffffffffffffffffffffffffffffffffffffffffffffffffffffffffffffc3601126100a75760043567ffffffffffffffff81116100a7577ffffffffffffffffffffffffffffffffffffffffffffffffffffffffffffffffc61012091360301126100a7576040516020810167ffffffffffffffff811182821017610195576040525f80825260208201916060913684377fffffffffffffffffffffffffffffffffffffffffffffffffffffffffffffffe0601f604051948593604085525180918160408701528686015e5f8582860101525f602085015201168101030190f35b7f4e487b71000000000000000000000000000000000000000000000000000000005f52604160045260245ffdfea26469706673582212200b389105411ef1c670a013b4112ff65164f785f177fc43002d8e12a5ba39efbd64736f6c634300081a00330000000000000000000000000000",
        "nonce": "0x619",
        "chainId": "0x13882"
      },
      "additionalContracts": [
        {
          "transactionType": "CREATE2",
          "address": "0x3961d3fc579e7cc40abca1492bc70bc8cc20b652",
          "initCode": "0x67363d3d37363d34f03d5260086018f3"
        },
        {
          "transactionType": "CREATE",
          "address": "0x246992c70a4ab28f88db6683d3563ce8338acc52",
          "initCode": "0x608080604052346015576101f8908161001a8239f35b5f80fdfe60806040526004361015610011575f80fd5b5f3560e01c806352b7512c146100ab57637c627b211461002f575f80fd5b346100a75760807ffffffffffffffffffffffffffffffffffffffffffffffffffffffffffffffffc3601126100a757600360043510156100a75760243567ffffffffffffffff81116100a757366023820112156100a757806004013567ffffffffffffffff81116100a757369101602401116100a757005b5f80fd5b346100a75760607ffffffffffffffffffffffffffffffffffffffffffffffffffffffffffffffffc3601126100a75760043567ffffffffffffffff81116100a7577ffffffffffffffffffffffffffffffffffffffffffffffffffffffffffffffffc61012091360301126100a7576040516020810167ffffffffffffffff811182821017610195576040525f80825260208201916060913684377fffffffffffffffffffffffffffffffffffffffffffffffffffffffffffffffe0601f604051948593604085525180918160408701528686015e5f8582860101525f602085015201168101030190f35b7f4e487b71000000000000000000000000000000000000000000000000000000005f52604160045260245ffdfea26469706673582212200b389105411ef1c670a013b4112ff65164f785f177fc43002d8e12a5ba39efbd64736f6c634300081a0033"
        }
      ],
      "isFixedGasLimit": false
    }
  ],
  "receipts": [
    {
      "status": "0x1",
      "cumulativeGasUsed": "0x51aee",
      "logs": [
        {
          "address": "0x0000000000000000000000000000000000001010",
          "topics": [
            "0x4dfe1bbbcf077ddc3e01291eea2d5c70c2b422b415d95645b9adcfd678cb1d63",
            "0x0000000000000000000000000000000000000000000000000000000000001010",
            "0x000000000000000000000000efbbd14082cf2fbcf5badc7ee619f0f4e36d0a5b",
            "0x0000000000000000000000004631753190f2f5a15a7ba172bbac102b7d95fa22"
          ],
          "data": "0x00000000000000000000000000000000000000000000000000150b873e06140000000000000000000000000000000000000000000000000022a8edef1d97c5da000000000000000000000000000000000000000000000308af505bb756c6a7b20000000000000000000000000000000000000000000000002293e267df91b1da000000000000000000000000000000000000000000000308af65673e94ccbbb2",
          "blockHash": "0x49153de7f7d152b5bcb522b5ac17e4f22825ea732fa8b311260baac9ba7ee6bf",
          "blockNumber": "0xde80c1",
          "transactionHash": "0xb09c0e8eac8a9aa8c978ff8588204f761c59b751073223ecabbe666c7b6d64f9",
          "transactionIndex": "0x1",
          "logIndex": "0x6",
          "removed": false
        }
      ],
      "logsBloom": "0x00000000000000000000000000000000000000002000000000000000000000000000000000000000000000000000000000008000000000000000000040000000008000000000000000000000000000800000000000000000000100000000000000000000000000100000000000000000000000000000000080000000000000000800000000000000000000000000000000000000000000000000000000000000200000000000000000000000000000000000400000000000000000000000004000000000000000000001000000000000000000000000000000100000000000000000000000000000000000000000000000000000000000000000000000100000",
      "type": "0x2",
      "transactionHash": "0xb09c0e8eac8a9aa8c978ff8588204f761c59b751073223ecabbe666c7b6d64f9",
      "transactionIndex": "0x1",
      "blockHash": "0x49153de7f7d152b5bcb522b5ac17e4f22825ea732fa8b311260baac9ba7ee6bf",
      "blockNumber": "0xde80c1",
      "gasUsed": "0x3034f",
      "effectiveGasPrice": "0x6fc23ac0f",
      "from": "0xefbbd14082cf2fbcf5badc7ee619f0f4e36d0a5b",
      "to": "0x79e0ad0cdc478096f28eef7f0f96f3b65c861e9d",
      "contractAddress": null
    }
  ],
  "libraries": [],
  "pending": [],
  "returns": {
    "paymaster": {
      "internal_type": "address",
      "value": "0x246992c70a4AB28F88dB6683D3563CE8338aCC52"
    }
  },
  "timestamp": 1731946173,
  "chain": 80002,
  "commit": "5073067"
}