{
  "transactions": [
    {
      "hash": "0x6984e7ae8151461a6173f67a13a6d2851edcb3006b389c6e7bfba0772c2edd5c",
      "transactionType": "CALL",
      "contractName": null,
      "contractAddress": "0xbefb85f29add5ad91f8646be7b1d5090e4fad89a",
      "function": "createAccount(address,bytes32)",
      "arguments": [
        "0xEFBBD14082cF2FbCf5Badc7ee619F0f4e36D0A5B",
        "0xefbbd14082cf2fbcf5badc7ee619f0f4e36d0a5b000000000000000000000000"
      ],
      "transaction": {
        "from": "0xefbbd14082cf2fbcf5badc7ee619f0f4e36d0a5b",
        "to": "0xbefb85f29add5ad91f8646be7b1d5090e4fad89a",
        "gas": "0x27f73",
        "value": "0x0",
        "input": "0xf14ddffc000000000000000000000000efbbd14082cf2fbcf5badc7ee619f0f4e36d0a5befbbd14082cf2fbcf5badc7ee619f0f4e36d0a5b000000000000000000000000",
        "nonce": "0x61b",
        "chainId": "0x13882"
      },
      "additionalContracts": [
        {
          "transactionType": "CREATE2",
          "address": "0x3e5b3ea46f1636fd72115431c89b3f7d094c9e98",
          "initCode": "0x603d3d8160223d39736094c59cf1df32eb5ec6fee3ce5ae8cdf10108e360095155f3363d3d373d3d363d7f360894a13ba1a3210667c828492db98dca3e2076cc3735a920a3ca505d382bbc545af43d6000803e6038573d6000fd5b3d6000f3"
        }
      ],
      "isFixedGasLimit": false
    }
  ],
  "receipts": [
    {
      "status": "0x1",
      "cumulativeGasUsed": "0x22808",
      "logs": [
        {
          "address": "0x3e5b3ea46f1636fd72115431c89b3f7d094c9e98",
          "topics": [
            "0x8be0079c531659141344cd1fd0a4f28419497f9722a3daafe3b4186f6b6457e0",
            "0x0000000000000000000000000000000000000000000000000000000000000000",
            "0x000000000000000000000000efbbd14082cf2fbcf5badc7ee619f0f4e36d0a5b"
          ],
          "data": "0x",
          "blockHash": "0x787229720b076ab1c2271b8580f100fe46fa41cf077ac2c2361f49a437071429",
          "blockNumber": "0xde82ae",
          "transactionHash": "0x6984e7ae8151461a6173f67a13a6d2851edcb3006b389c6e7bfba0772c2edd5c",
          "transactionIndex": "0x1",
          "logIndex": "0x1",
          "removed": false
        },
        {
          "address": "0x0000000000000000000000000000000000001010",
          "topics": [
            "0x4dfe1bbbcf077ddc3e01291eea2d5c70c2b422b415d95645b9adcfd678cb1d63",
            "0x0000000000000000000000000000000000000000000000000000000000001010",
            "0x000000000000000000000000efbbd14082cf2fbcf5badc7ee619f0f4e36d0a5b",
            "0x00000000000000000000000009207a6efee346cb3e4a54ac18523e3715d38b3f"
          ],
          "data": "0x00000000000000000000000000000000000000000000000000150d7bd3e76fb4000000000000000000000000000000000000000000000000228c2c7003bcd5d80000000000000000000000000000000000000000000003caacae7486799ca3e500000000000000000000000000000000000000000000000022771ef42fd566240000000000000000000000000000000000000000000003caacc382024d841399",
          "blockHash": "0x787229720b076ab1c2271b8580f100fe46fa41cf077ac2c2361f49a437071429",
          "blockNumber": "0xde82ae",
          "transactionHash": "0x6984e7ae8151461a6173f67a13a6d2851edcb3006b389c6e7bfba0772c2edd5c",
          "transactionIndex": "0x1",
          "logIndex": "0x2",
          "removed": false
        }
      ],
      "logsBloom": "0x00000000000000000000000000000000000000000000000000800000000000000000000000000000000000000000000010008000000000000000010000000000008000000000000000000000000000800001000000000000000100000000000000000000020000000000000000000800000000000000000080000000000000400800000000000000000000000000000000004000000000000080000000000000200000000080000000000000000000000000400000000000000000000000004000000000000000000001000000000000000000000000000000100000000020000000000000000000000000010000000000000000000000000000000000100000",
      "type": "0x2",
      "transactionHash": "0x6984e7ae8151461a6173f67a13a6d2851edcb3006b389c6e7bfba0772c2edd5c",
      "transactionIndex": "0x1",
      "blockHash": "0x787229720b076ab1c2271b8580f100fe46fa41cf077ac2c2361f49a437071429",
      "blockNumber": "0xde82ae",
      "gasUsed": "0x1cef4",
      "effectiveGasPrice": "0xba43b7400",
      "from": "0xefbbd14082cf2fbcf5badc7ee619f0f4e36d0a5b",
      "to": "0xbefb85f29add5ad91f8646be7b1d5090e4fad89a",
      "contractAddress": null
    }
  ],
  "libraries": [],
  "pending": [],
  "returns": {},
  "timestamp": 1731947217,
  "chain": 80002,
  "commit": "5073067"
}